{
	"data": {
		"bytecode": {
			"linkReferences": {},
			"object": "60a06040523073ffffffffffffffffffffffffffffffffffffffff1660809073ffffffffffffffffffffffffffffffffffffffff16815250348015610042575f80fd5b506080516148f56100775f395f81816109d101528181610a5f01528181610b7601528181610c040152610cb301526148f55ff3fe6080604052600436106101c1575f3560e01c8063715018a6116100f6578063a22cb46511610094578063e985e9c511610063578063e985e9c5146105e9578063eb08ab2814610625578063f14210a61461064f578063f2fde38b14610677576101c1565b8063a22cb4651461052d578063ac9650d814610555578063b88d4fde14610585578063c87b56dd146105ad576101c1565b80638da5cb5b116100d05780638da5cb5b1461048757806391b7f5ed146104b157806395d89b41146104d9578063a035b1fe14610503576101c1565b8063715018a6146104215780637cb647591461043757806384296eb71461045f576101c1565b806342842e0e116101635780635b36c66b1161013d5780635b36c66b146103775780636352211e1461039f578063658a7227146103db57806370a08231146103e5576101c1565b806342842e0e146103095780634f1ef2861461033157806352d1902d1461034d576101c1565b8063095ea7b31161019f578063095ea7b31461026757806323b872dd1461028f5780632eb4a7ab146102b75780633659cfe6146102e1576101c1565b806301ffc9a7146101c557806306fdde0314610201578063081812fc1461022b575b5f80fd5b3480156101d0575f80fd5b506101eb60048036038101906101e69190612cac565b61069f565b6040516101f89190612cf1565b60405180910390f35b34801561020c575f80fd5b50610215610780565b6040516102229190612d94565b60405180910390f35b348015610236575f80fd5b50610251600480360381019061024c9190612de7565b610810565b60405161025e9190612e51565b60405180910390f35b348015610272575f80fd5b5061028d60048036038101906102889190612e94565b610852565b005b34801561029a575f80fd5b506102b560048036038101906102b09190612ed2565b610968565b005b3480156102c2575f80fd5b506102cb6109c8565b6040516102d89190612f3a565b60405180910390f35b3480156102ec575f80fd5b5061030760048036038101906103029190612f53565b6109cf565b005b348015610314575f80fd5b5061032f600480360381019061032a9190612ed2565b610b55565b005b61034b600480360381019061034691906130aa565b610b74565b005b348015610358575f80fd5b50610361610cb0565b60405161036e9190612f3a565b60405180910390f35b348015610382575f80fd5b5061039d6004803603810190610398919061312e565b610d67565b005b3480156103aa575f80fd5b506103c560048036038101906103c09190612de7565b610f37565b6040516103d29190612e51565b60405180910390f35b6103e3610fbb565b005b3480156103f0575f80fd5b5061040b60048036038101906104069190612f53565b611030565b604051610418919061317b565b60405180910390f35b34801561042c575f80fd5b506104356110e4565b005b348015610442575f80fd5b5061045d60048036038101906104589190613194565b6110f7565b005b34801561046a575f80fd5b506104856004803603810190610480919061321c565b611102565b005b348015610492575f80fd5b5061049b6111e8565b6040516104a89190612e51565b60405180910390f35b3480156104bc575f80fd5b506104d760048036038101906104d29190612de7565b611210565b005b3480156104e4575f80fd5b506104ed611265565b6040516104fa9190612d94565b60405180910390f35b34801561050e575f80fd5b506105176112f5565b604051610524919061317b565b60405180910390f35b348015610538575f80fd5b50610553600480360381019061054e91906132a3565b6112fc565b005b61056f600480360381019061056a9190613336565b611312565b60405161057c919061348e565b60405180910390f35b348015610590575f80fd5b506105ab60048036038101906105a691906134ae565b611416565b005b3480156105b8575f80fd5b506105d360048036038101906105ce9190612de7565b611478565b6040516105e09190612d94565b60405180910390f35b3480156105f4575f80fd5b5061060f600480360381019061060a919061352e565b6114dd565b60405161061c9190612cf1565b60405180910390f35b348015610630575f80fd5b5061063961156b565b604051610646919061317b565b60405180910390f35b34801561065a575f80fd5b5061067560048036038101906106709190612de7565b611572565b005b348015610682575f80fd5b5061069d60048036038101906106989190612f53565b6115c8565b005b5f7f80ac58cd000000000000000000000000000000000000000000000000000000007bffffffffffffffffffffffffffffffffffffffffffffffffffffffff1916827bffffffffffffffffffffffffffffffffffffffffffffffffffffffff1916148061076957507f5b5e139f000000000000000000000000000000000000000000000000000000007bffffffffffffffffffffffffffffffffffffffffffffffffffffffff1916827bffffffffffffffffffffffffffffffffffffffffffffffffffffffff1916145b8061077957506107788261164a565b5b9050919050565b60606065805461078f90613599565b80601f01602080910402602001604051908101604052809291908181526020018280546107bb90613599565b80156108065780601f106107dd57610100808354040283529160200191610806565b820191905f5260205f20905b8154815290600101906020018083116107e957829003601f168201915b5050505050905090565b5f61081a826116b3565b60695f8381526020019081526020015f205f9054906101000a900473ffffffffffffffffffffffffffffffffffffffff169050919050565b5f61085c82610f37565b90508073ffffffffffffffffffffffffffffffffffffffff168373ffffffffffffffffffffffffffffffffffffffff16036108cc576040517f08c379a00000000000000000000000000000000000000000000000000000000081526004016108c390613639565b60405180910390fd5b8073ffffffffffffffffffffffffffffffffffffffff166108eb6116fe565b73ffffffffffffffffffffffffffffffffffffffff16148061091a5750610919816109146116fe565b6114dd565b5b610959576040517f08c379a0000000000000000000000000000000000000000000000000000000008152600401610950906136c7565b60405180910390fd5b6109638383611705565b505050565b6109796109736116fe565b826117bb565b6109b8576040517f08c379a00000000000000000000000000000000000000000000000000000000081526004016109af90613755565b60405180910390fd5b6109c383838361184f565b505050565b61012d5481565b7f000000000000000000000000000000000000000000000000000000000000000073ffffffffffffffffffffffffffffffffffffffff163073ffffffffffffffffffffffffffffffffffffffff1603610a5d576040517f08c379a0000000000000000000000000000000000000000000000000000000008152600401610a54906137e3565b60405180910390fd5b7f000000000000000000000000000000000000000000000000000000000000000073ffffffffffffffffffffffffffffffffffffffff16610a9c611b3b565b73ffffffffffffffffffffffffffffffffffffffff1614610af2576040517f08c379a0000000000000000000000000000000000000000000000000000000008152600401610ae990613871565b60405180910390fd5b610afb81611b8e565b610b52815f67ffffffffffffffff811115610b1957610b18612f86565b5b6040519080825280601f01601f191660200182016040528015610b4b5781602001600182028036833780820191505090505b505f611b91565b50565b610b6f83838360405180602001604052805f815250611416565b505050565b7f000000000000000000000000000000000000000000000000000000000000000073ffffffffffffffffffffffffffffffffffffffff163073ffffffffffffffffffffffffffffffffffffffff1603610c02576040517f08c379a0000000000000000000000000000000000000000000000000000000008152600401610bf9906137e3565b60405180910390fd5b7f000000000000000000000000000000000000000000000000000000000000000073ffffffffffffffffffffffffffffffffffffffff16610c41611b3b565b73ffffffffffffffffffffffffffffffffffffffff1614610c97576040517f08c379a0000000000000000000000000000000000000000000000000000000008152600401610c8e90613871565b60405180910390fd5b610ca082611b8e565b610cac82826001611b91565b5050565b5f7f000000000000000000000000000000000000000000000000000000000000000073ffffffffffffffffffffffffffffffffffffffff163073ffffffffffffffffffffffffffffffffffffffff1614610d3f576040517f08c379a0000000000000000000000000000000000000000000000000000000008152600401610d36906138ff565b60405180910390fd5b7f360894a13ba1a3210667c828492db98dca3e2076cc3735a920a3ca505d382bbc5f1b905090565b5f8060019054906101000a900460ff16159050808015610d96575060015f8054906101000a900460ff1660ff16105b80610dc25750610da530611cfb565b158015610dc1575060015f8054906101000a900460ff1660ff16145b5b610e01576040517f08c379a0000000000000000000000000000000000000000000000000000000008152600401610df89061398d565b60405180910390fd5b60015f806101000a81548160ff021916908360ff1602179055508015610e3c5760015f60016101000a81548160ff0219169083151502179055505b610eb06040518060400160405280600b81526020017f48616c626f726e204e46540000000000000000000000000000000000000000008152506040518060400160405280600481526020017f484e465400000000000000000000000000000000000000000000000000000000815250611d1d565b610eb8611d79565b610ec0611dc9565b610ec8611e21565b610ed1836110f7565b610eda82611210565b8015610f32575f8060016101000a81548160ff0219169083151502179055507f7f26b83ff96e1f2b6a682f133852f6798a09c465da95921460cefb38474024986001604051610f2991906139f9565b60405180910390a15b505050565b5f80610f4283611e71565b90505f73ffffffffffffffffffffffffffffffffffffffff168173ffffffffffffffffffffffffffffffffffffffff1603610fb2576040517f08c379a0000000000000000000000000000000000000000000000000000000008152600401610fa990613a5c565b60405180910390fd5b80915050919050565b61012e543414611000576040517f08c379a0000000000000000000000000000000000000000000000000000000008152600401610ff790613ac4565b60405180910390fd5b61012f5f815480929190600101919050555061102e3361012f5460405180602001604052805f815250611eaa565b565b5f8073ffffffffffffffffffffffffffffffffffffffff168273ffffffffffffffffffffffffffffffffffffffff160361109f576040517f08c379a000000000000000000000000000000000000000000000000000000000815260040161109690613b52565b60405180910390fd5b60685f8373ffffffffffffffffffffffffffffffffffffffff1673ffffffffffffffffffffffffffffffffffffffff1681526020019081526020015f20549050919050565b6110ec611f04565b6110f55f611f82565b565b8061012d8190555050565b61110b83612045565b61114a576040517f08c379a000000000000000000000000000000000000000000000000000000000815260040161114190613bba565b60405180910390fd5b5f338460405160200161115e929190613c3d565b6040516020818303038152906040528051906020012090505f611186848461012d5485612085565b9050806111c8576040517f08c379a00000000000000000000000000000000000000000000000000000000081526004016111bf90613cb2565b60405180910390fd5b6111e1338660405180602001604052805f815250611eaa565b5050505050565b5f60fb5f9054906101000a900473ffffffffffffffffffffffffffffffffffffffff16905090565b611218611f04565b5f810361125a576040517f08c379a000000000000000000000000000000000000000000000000000000000815260040161125190613d1a565b60405180910390fd5b8061012e8190555050565b60606066805461127490613599565b80601f01602080910402602001604051908101604052809291908181526020018280546112a090613599565b80156112eb5780601f106112c2576101008083540402835291602001916112eb565b820191905f5260205f20905b8154815290600101906020018083116112ce57829003601f168201915b5050505050905090565b61012e5481565b61130e6113076116fe565b838361209d565b5050565b60608282905067ffffffffffffffff81111561133157611330612f86565b5b60405190808252806020026020018201604052801561136457816020015b606081526020019060019003908161134f5790505b5090505f5b8383905081101561140f576113e43085858481811061138b5761138a613d38565b5b905060200281019061139d9190613d71565b8080601f0160208091040260200160405190810160405280939291908181526020018383808284375f81840152601f19601f82011690508083019250505050505050612204565b8282815181106113f7576113f6613d38565b5b60200260200101819052508080600101915050611369565b5092915050565b6114276114216116fe565b836117bb565b611466576040517f08c379a000000000000000000000000000000000000000000000000000000000815260040161145d90613755565b60405180910390fd5b61147284848484612231565b50505050565b6060611483826116b3565b5f61148c61228d565b90505f8151116114aa5760405180602001604052805f8152506114d5565b806114b4846122a3565b6040516020016114c5929190613e0d565b6040516020818303038152906040525b915050919050565b5f606a5f8473ffffffffffffffffffffffffffffffffffffffff1673ffffffffffffffffffffffffffffffffffffffff1681526020019081526020015f205f8373ffffffffffffffffffffffffffffffffffffffff1673ffffffffffffffffffffffffffffffffffffffff1681526020019081526020015f205f9054906101000a900460ff16905092915050565b61012f5481565b61157a611f04565b6115826111e8565b73ffffffffffffffffffffffffffffffffffffffff166108fc8290811502906040515f60405180830381858888f193505050501580156115c4573d5f803e3d5ffd5b5050565b6115d0611f04565b5f73ffffffffffffffffffffffffffffffffffffffff168173ffffffffffffffffffffffffffffffffffffffff160361163e576040517f08c379a000000000000000000000000000000000000000000000000000000000815260040161163590613ea0565b60405180910390fd5b61164781611f82565b50565b5f7f01ffc9a7000000000000000000000000000000000000000000000000000000007bffffffffffffffffffffffffffffffffffffffffffffffffffffffff1916827bffffffffffffffffffffffffffffffffffffffffffffffffffffffff1916149050919050565b6116bc81612045565b6116fb576040517f08c379a00000000000000000000000000000000000000000000000000000000081526004016116f290613a5c565b60405180910390fd5b50565b5f33905090565b8160695f8381526020019081526020015f205f6101000a81548173ffffffffffffffffffffffffffffffffffffffff021916908373ffffffffffffffffffffffffffffffffffffffff160217905550808273ffffffffffffffffffffffffffffffffffffffff1661177583610f37565b73ffffffffffffffffffffffffffffffffffffffff167f8c5be1e5ebec7d5bd14f71427d1e84f3dd0314c0f7b2291e5b200ac8c7c3b92560405160405180910390a45050565b5f806117c683610f37565b90508073ffffffffffffffffffffffffffffffffffffffff168473ffffffffffffffffffffffffffffffffffffffff161480611808575061180781856114dd565b5b8061184657508373ffffffffffffffffffffffffffffffffffffffff1661182e84610810565b73ffffffffffffffffffffffffffffffffffffffff16145b91505092915050565b8273ffffffffffffffffffffffffffffffffffffffff1661186f82610f37565b73ffffffffffffffffffffffffffffffffffffffff16146118c5576040517f08c379a00000000000000000000000000000000000000000000000000000000081526004016118bc90613f2e565b60405180910390fd5b5f73ffffffffffffffffffffffffffffffffffffffff168273ffffffffffffffffffffffffffffffffffffffff1603611933576040517f08c379a000000000000000000000000000000000000000000000000000000000815260040161192a90613fbc565b60405180910390fd5b611940838383600161236d565b8273ffffffffffffffffffffffffffffffffffffffff1661196082610f37565b73ffffffffffffffffffffffffffffffffffffffff16146119b6576040517f08c379a00000000000000000000000000000000000000000000000000000000081526004016119ad90613f2e565b60405180910390fd5b60695f8281526020019081526020015f205f6101000a81549073ffffffffffffffffffffffffffffffffffffffff0219169055600160685f8573ffffffffffffffffffffffffffffffffffffffff1673ffffffffffffffffffffffffffffffffffffffff1681526020019081526020015f205f8282540392505081905550600160685f8473ffffffffffffffffffffffffffffffffffffffff1673ffffffffffffffffffffffffffffffffffffffff1681526020019081526020015f205f82825401925050819055508160675f8381526020019081526020015f205f6101000a81548173ffffffffffffffffffffffffffffffffffffffff021916908373ffffffffffffffffffffffffffffffffffffffff160217905550808273ffffffffffffffffffffffffffffffffffffffff168473ffffffffffffffffffffffffffffffffffffffff167fddf252ad1be2c89b69c2b068fc378daa952ba7f163c4a11628f55a4df523b3ef60405160405180910390a4611b368383836001612373565b505050565b5f611b677f360894a13ba1a3210667c828492db98dca3e2076cc3735a920a3ca505d382bbc5f1b612379565b5f015f9054906101000a900473ffffffffffffffffffffffffffffffffffffffff16905090565b50565b611bbc7f4910fdfa16fed3260ed0e7147f7cc6da11a60208b5b9406d12a635614ffd91435f1b612382565b5f015f9054906101000a900460ff1615611bde57611bd98361238b565b611cf6565b8273ffffffffffffffffffffffffffffffffffffffff166352d1902d6040518163ffffffff1660e01b8152600401602060405180830381865afa925050508015611c4657506040513d601f19601f82011682018060405250810190611c439190613fee565b60015b611c85576040517f08c379a0000000000000000000000000000000000000000000000000000000008152600401611c7c90614089565b60405180910390fd5b7f360894a13ba1a3210667c828492db98dca3e2076cc3735a920a3ca505d382bbc5f1b8114611ce9576040517f08c379a0000000000000000000000000000000000000000000000000000000008152600401611ce090614117565b60405180910390fd5b50611cf5838383612441565b5b505050565b5f808273ffffffffffffffffffffffffffffffffffffffff163b119050919050565b5f60019054906101000a900460ff16611d6b576040517f08c379a0000000000000000000000000000000000000000000000000000000008152600401611d62906141a5565b60405180910390fd5b611d75828261246c565b5050565b5f60019054906101000a900460ff16611dc7576040517f08c379a0000000000000000000000000000000000000000000000000000000008152600401611dbe906141a5565b60405180910390fd5b565b5f60019054906101000a900460ff16611e17576040517f08c379a0000000000000000000000000000000000000000000000000000000008152600401611e0e906141a5565b60405180910390fd5b611e1f6124de565b565b5f60019054906101000a900460ff16611e6f576040517f08c379a0000000000000000000000000000000000000000000000000000000008152600401611e66906141a5565b60405180910390fd5b565b5f60675f8381526020019081526020015f205f9054906101000a900473ffffffffffffffffffffffffffffffffffffffff169050919050565b611eb4838361253e565b611ec05f848484612751565b611eff576040517f08c379a0000000000000000000000000000000000000000000000000000000008152600401611ef690614233565b60405180910390fd5b505050565b611f0c6116fe565b73ffffffffffffffffffffffffffffffffffffffff16611f2a6111e8565b73ffffffffffffffffffffffffffffffffffffffff1614611f80576040517f08c379a0000000000000000000000000000000000000000000000000000000008152600401611f779061429b565b60405180910390fd5b565b5f60fb5f9054906101000a900473ffffffffffffffffffffffffffffffffffffffff1690508160fb5f6101000a81548173ffffffffffffffffffffffffffffffffffffffff021916908373ffffffffffffffffffffffffffffffffffffffff1602179055508173ffffffffffffffffffffffffffffffffffffffff168173ffffffffffffffffffffffffffffffffffffffff167f8be0079c531659141344cd1fd0a4f28419497f9722a3daafe3b4186f6b6457e060405160405180910390a35050565b5f8073ffffffffffffffffffffffffffffffffffffffff1661206683611e71565b73ffffffffffffffffffffffffffffffffffffffff1614159050919050565b5f826120928686856128d3565b149050949350505050565b8173ffffffffffffffffffffffffffffffffffffffff168373ffffffffffffffffffffffffffffffffffffffff160361210b576040517f08c379a000000000000000000000000000000000000000000000000000000000815260040161210290614303565b60405180910390fd5b80606a5f8573ffffffffffffffffffffffffffffffffffffffff1673ffffffffffffffffffffffffffffffffffffffff1681526020019081526020015f205f8473ffffffffffffffffffffffffffffffffffffffff1673ffffffffffffffffffffffffffffffffffffffff1681526020019081526020015f205f6101000a81548160ff0219169083151502179055508173ffffffffffffffffffffffffffffffffffffffff168373ffffffffffffffffffffffffffffffffffffffff167f17307eab39ab6107e8899845ad3d59bd9653f200f220920489ca2b5937696c31836040516121f79190612cf1565b60405180910390a3505050565b6060612229838360405180606001604052806027815260200161489960279139612923565b905092915050565b61223c84848461184f565b61224884848484612751565b612287576040517f08c379a000000000000000000000000000000000000000000000000000000000815260040161227e90614233565b60405180910390fd5b50505050565b606060405180602001604052805f815250905090565b60605f60016122b1846129a5565b0190505f8167ffffffffffffffff8111156122cf576122ce612f86565b5b6040519080825280601f01601f1916602001820160405280156123015781602001600182028036833780820191505090505b5090505f82602001820190505b600115612362578080600190039150507f3031323334353637383961626364656600000000000000000000000000000000600a86061a8153600a858161235757612356614321565b5b0494505f850361230e575b819350505050919050565b50505050565b50505050565b5f819050919050565b5f819050919050565b61239481611cfb565b6123d3576040517f08c379a00000000000000000000000000000000000000000000000000000000081526004016123ca906143be565b60405180910390fd5b806123ff7f360894a13ba1a3210667c828492db98dca3e2076cc3735a920a3ca505d382bbc5f1b612379565b5f015f6101000a81548173ffffffffffffffffffffffffffffffffffffffff021916908373ffffffffffffffffffffffffffffffffffffffff16021790555050565b61244a83612af6565b5f825111806124565750805b15612467576124658383612204565b505b505050565b5f60019054906101000a900460ff166124ba576040517f08c379a00000000000000000000000000000000000000000000000000000000081526004016124b1906141a5565b60405180910390fd5b81606590816124c99190614570565b5080606690816124d99190614570565b505050565b5f60019054906101000a900460ff1661252c576040517f08c379a0000000000000000000000000000000000000000000000000000000008152600401612523906141a5565b60405180910390fd5b61253c6125376116fe565b611f82565b565b5f73ffffffffffffffffffffffffffffffffffffffff168273ffffffffffffffffffffffffffffffffffffffff16036125ac576040517f08c379a00000000000000000000000000000000000000000000000000000000081526004016125a390614689565b60405180910390fd5b6125b581612045565b156125f5576040517f08c379a00000000000000000000000000000000000000000000000000000000081526004016125ec906146f1565b60405180910390fd5b6126025f8383600161236d565b61260b81612045565b1561264b576040517f08c379a0000000000000000000000000000000000000000000000000000000008152600401612642906146f1565b60405180910390fd5b600160685f8473ffffffffffffffffffffffffffffffffffffffff1673ffffffffffffffffffffffffffffffffffffffff1681526020019081526020015f205f82825401925050819055508160675f8381526020019081526020015f205f6101000a81548173ffffffffffffffffffffffffffffffffffffffff021916908373ffffffffffffffffffffffffffffffffffffffff160217905550808273ffffffffffffffffffffffffffffffffffffffff165f73ffffffffffffffffffffffffffffffffffffffff167fddf252ad1be2c89b69c2b068fc378daa952ba7f163c4a11628f55a4df523b3ef60405160405180910390a461274d5f83836001612373565b5050565b5f6127718473ffffffffffffffffffffffffffffffffffffffff16611cfb565b156128c6578373ffffffffffffffffffffffffffffffffffffffff1663150b7a0261279a6116fe565b8786866040518563ffffffff1660e01b81526004016127bc9493929190614757565b6020604051808303815f875af19250505080156127f757506040513d601f19601f820116820180604052508101906127f491906147b5565b60015b612876573d805f8114612825576040519150601f19603f3d011682016040523d82523d5f602084013e61282a565b606091505b505f81510361286e576040517f08c379a000000000000000000000000000000000000000000000000000000000815260040161286590614233565b60405180910390fd5b805181602001fd5b63150b7a0260e01b7bffffffffffffffffffffffffffffffffffffffffffffffffffffffff1916817bffffffffffffffffffffffffffffffffffffffffffffffffffffffff1916149150506128cb565b600190505b949350505050565b5f808290505f5b8585905081101561291757612908828787848181106128fc576128fb613d38565b5b90506020020135612b45565b915080806001019150506128da565b50809150509392505050565b60605f808573ffffffffffffffffffffffffffffffffffffffff168560405161294c919061481a565b5f60405180830381855af49150503d805f8114612984576040519150601f19603f3d011682016040523d82523d5f602084013e612989565b606091505b509150915061299a86838387612b6f565b925050509392505050565b5f805f90507a184f03e93ff9f4daa797ed6e38ed64bf6a1f0100000000000000008310612a01577a184f03e93ff9f4daa797ed6e38ed64bf6a1f01000000000000000083816129f7576129f6614321565b5b0492506040810190505b6d04ee2d6d415b85acef81000000008310612a3e576d04ee2d6d415b85acef81000000008381612a3457612a33614321565b5b0492506020810190505b662386f26fc100008310612a6d57662386f26fc100008381612a6357612a62614321565b5b0492506010810190505b6305f5e1008310612a96576305f5e1008381612a8c57612a8b614321565b5b0492506008810190505b6127108310612abb576127108381612ab157612ab0614321565b5b0492506004810190505b60648310612ade5760648381612ad457612ad3614321565b5b0492506002810190505b600a8310612aed576001810190505b80915050919050565b612aff8161238b565b8073ffffffffffffffffffffffffffffffffffffffff167fbc7cd75a20ee27fd9adebab32041f755214dbc6bffa90cc0225b39da2e5c2d3b60405160405180910390a250565b5f818310612b5c57612b578284612be3565b612b67565b612b668383612be3565b5b905092915050565b60608315612bd0575f835103612bc857612b8885611cfb565b612bc7576040517f08c379a0000000000000000000000000000000000000000000000000000000008152600401612bbe9061487a565b60405180910390fd5b5b829050612bdb565b612bda8383612bf7565b5b949350505050565b5f825f528160205260405f20905092915050565b5f82511115612c095781518083602001fd5b806040517f08c379a0000000000000000000000000000000000000000000000000000000008152600401612c3d9190612d94565b60405180910390fd5b5f604051905090565b5f80fd5b5f80fd5b5f7fffffffff0000000000000000000000000000000000000000000000000000000082169050919050565b612c8b81612c57565b8114612c95575f80fd5b50565b5f81359050612ca681612c82565b92915050565b5f60208284031215612cc157612cc0612c4f565b5b5f612cce84828501612c98565b91505092915050565b5f8115159050919050565b612ceb81612cd7565b82525050565b5f602082019050612d045f830184612ce2565b92915050565b5f81519050919050565b5f82825260208201905092915050565b5f5b83811015612d41578082015181840152602081019050612d26565b5f8484015250505050565b5f601f19601f8301169050919050565b5f612d6682612d0a565b612d708185612d14565b9350612d80818560208601612d24565b612d8981612d4c565b840191505092915050565b5f6020820190508181035f830152612dac8184612d5c565b905092915050565b5f819050919050565b612dc681612db4565b8114612dd0575f80fd5b50565b5f81359050612de181612dbd565b92915050565b5f60208284031215612dfc57612dfb612c4f565b5b5f612e0984828501612dd3565b91505092915050565b5f73ffffffffffffffffffffffffffffffffffffffff82169050919050565b5f612e3b82612e12565b9050919050565b612e4b81612e31565b82525050565b5f602082019050612e645f830184612e42565b92915050565b612e7381612e31565b8114612e7d575f80fd5b50565b5f81359050612e8e81612e6a565b92915050565b5f8060408385031215612eaa57612ea9612c4f565b5b5f612eb785828601612e80565b9250506020612ec885828601612dd3565b9150509250929050565b5f805f60608486031215612ee957612ee8612c4f565b5b5f612ef686828701612e80565b9350506020612f0786828701612e80565b9250506040612f1886828701612dd3565b9150509250925092565b5f819050919050565b612f3481612f22565b82525050565b5f602082019050612f4d5f830184612f2b565b92915050565b5f60208284031215612f6857612f67612c4f565b5b5f612f7584828501612e80565b91505092915050565b5f80fd5b5f80fd5b7f4e487b71000000000000000000000000000000000000000000000000000000005f52604160045260245ffd5b612fbc82612d4c565b810181811067ffffffffffffffff82111715612fdb57612fda612f86565b5b80604052505050565b5f612fed612c46565b9050612ff98282612fb3565b919050565b5f67ffffffffffffffff82111561301857613017612f86565b5b61302182612d4c565b9050602081019050919050565b828183375f83830152505050565b5f61304e61304984612ffe565b612fe4565b90508281526020810184848401111561306a57613069612f82565b5b61307584828561302e565b509392505050565b5f82601f83011261309157613090612f7e565b5b81356130a184826020860161303c565b91505092915050565b5f80604083850312156130c0576130bf612c4f565b5b5f6130cd85828601612e80565b925050602083013567ffffffffffffffff8111156130ee576130ed612c53565b5b6130fa8582860161307d565b9150509250929050565b61310d81612f22565b8114613117575f80fd5b50565b5f8135905061312881613104565b92915050565b5f806040838503121561314457613143612c4f565b5b5f6131518582860161311a565b925050602061316285828601612dd3565b9150509250929050565b61317581612db4565b82525050565b5f60208201905061318e5f83018461316c565b92915050565b5f602082840312156131a9576131a8612c4f565b5b5f6131b68482850161311a565b91505092915050565b5f80fd5b5f80fd5b5f8083601f8401126131dc576131db612f7e565b5b8235905067ffffffffffffffff8111156131f9576131f86131bf565b5b602083019150836020820283011115613215576132146131c3565b5b9250929050565b5f805f6040848603121561323357613232612c4f565b5b5f61324086828701612dd3565b935050602084013567ffffffffffffffff81111561326157613260612c53565b5b61326d868287016131c7565b92509250509250925092565b61328281612cd7565b811461328c575f80fd5b50565b5f8135905061329d81613279565b92915050565b5f80604083850312156132b9576132b8612c4f565b5b5f6132c685828601612e80565b92505060206132d78582860161328f565b9150509250929050565b5f8083601f8401126132f6576132f5612f7e565b5b8235905067ffffffffffffffff811115613313576133126131bf565b5b60208301915083602082028301111561332f5761332e6131c3565b5b9250929050565b5f806020838503121561334c5761334b612c4f565b5b5f83013567ffffffffffffffff81111561336957613368612c53565b5b613375858286016132e1565b92509250509250929050565b5f81519050919050565b5f82825260208201905092915050565b5f819050602082019050919050565b5f81519050919050565b5f82825260208201905092915050565b5f6133ce826133aa565b6133d881856133b4565b93506133e8818560208601612d24565b6133f181612d4c565b840191505092915050565b5f61340783836133c4565b905092915050565b5f602082019050919050565b5f61342582613381565b61342f818561338b565b9350836020820285016134418561339b565b805f5b8581101561347c578484038952815161345d85826133fc565b94506134688361340f565b925060208a01995050600181019050613444565b50829750879550505050505092915050565b5f6020820190508181035f8301526134a6818461341b565b905092915050565b5f805f80608085870312156134c6576134c5612c4f565b5b5f6134d387828801612e80565b94505060206134e487828801612e80565b93505060406134f587828801612dd3565b925050606085013567ffffffffffffffff81111561351657613515612c53565b5b6135228782880161307d565b91505092959194509250565b5f806040838503121561354457613543612c4f565b5b5f61355185828601612e80565b925050602061356285828601612e80565b9150509250929050565b7f4e487b71000000000000000000000000000000000000000000000000000000005f52602260045260245ffd5b5f60028204905060018216806135b057607f821691505b6020821081036135c3576135c261356c565b5b50919050565b7f4552433732313a20617070726f76616c20746f2063757272656e74206f776e655f8201527f7200000000000000000000000000000000000000000000000000000000000000602082015250565b5f613623602183612d14565b915061362e826135c9565b604082019050919050565b5f6020820190508181035f83015261365081613617565b9050919050565b7f4552433732313a20617070726f76652063616c6c6572206973206e6f7420746f5f8201527f6b656e206f776e6572206f7220617070726f76656420666f7220616c6c000000602082015250565b5f6136b1603d83612d14565b91506136bc82613657565b604082019050919050565b5f6020820190508181035f8301526136de816136a5565b9050919050565b7f4552433732313a2063616c6c6572206973206e6f7420746f6b656e206f776e655f8201527f72206f7220617070726f76656400000000000000000000000000000000000000602082015250565b5f61373f602d83612d14565b915061374a826136e5565b604082019050919050565b5f6020820190508181035f83015261376c81613733565b9050919050565b7f46756e6374696f6e206d7573742062652063616c6c6564207468726f756768205f8201527f64656c656761746563616c6c0000000000000000000000000000000000000000602082015250565b5f6137cd602c83612d14565b91506137d882613773565b604082019050919050565b5f6020820190508181035f8301526137fa816137c1565b9050919050565b7f46756e6374696f6e206d7573742062652063616c6c6564207468726f756768205f8201527f6163746976652070726f78790000000000000000000000000000000000000000602082015250565b5f61385b602c83612d14565b915061386682613801565b604082019050919050565b5f6020820190508181035f8301526138888161384f565b9050919050565b7f555550535570677261646561626c653a206d757374206e6f742062652063616c5f8201527f6c6564207468726f7567682064656c656761746563616c6c0000000000000000602082015250565b5f6138e9603883612d14565b91506138f48261388f565b604082019050919050565b5f6020820190508181035f830152613916816138dd565b9050919050565b7f496e697469616c697a61626c653a20636f6e747261637420697320616c7265615f8201527f647920696e697469616c697a6564000000000000000000000000000000000000602082015250565b5f613977602e83612d14565b91506139828261391d565b604082019050919050565b5f6020820190508181035f8301526139a48161396b565b9050919050565b5f819050919050565b5f60ff82169050919050565b5f819050919050565b5f6139e36139de6139d9846139ab565b6139c0565b6139b4565b9050919050565b6139f3816139c9565b82525050565b5f602082019050613a0c5f8301846139ea565b92915050565b7f4552433732313a20696e76616c696420746f6b656e20494400000000000000005f82015250565b5f613a46601883612d14565b9150613a5182613a12565b602082019050919050565b5f6020820190508181035f830152613a7381613a3a565b9050919050565b7f496e76616c6964205072696365000000000000000000000000000000000000005f82015250565b5f613aae600d83612d14565b9150613ab982613a7a565b602082019050919050565b5f6020820190508181035f830152613adb81613aa2565b9050919050565b7f4552433732313a2061646472657373207a65726f206973206e6f7420612076615f8201527f6c6964206f776e65720000000000000000000000000000000000000000000000602082015250565b5f613b3c602983612d14565b9150613b4782613ae2565b604082019050919050565b5f6020820190508181035f830152613b6981613b30565b9050919050565b7f546f6b656e20616c7265616479206d696e7465640000000000000000000000005f82015250565b5f613ba4601483612d14565b9150613baf82613b70565b602082019050919050565b5f6020820190508181035f830152613bd181613b98565b9050919050565b5f8160601b9050919050565b5f613bee82613bd8565b9050919050565b5f613bff82613be4565b9050919050565b613c17613c1282612e31565b613bf5565b82525050565b5f819050919050565b613c37613c3282612db4565b613c1d565b82525050565b5f613c488285613c06565b601482019150613c588284613c26565b6020820191508190509392505050565b7f496e76616c69642070726f6f662e0000000000000000000000000000000000005f82015250565b5f613c9c600e83612d14565b9150613ca782613c68565b602082019050919050565b5f6020820190508181035f830152613cc981613c90565b9050919050565b7f50726963652063616e6e6f7420626520300000000000000000000000000000005f82015250565b5f613d04601183612d14565b9150613d0f82613cd0565b602082019050919050565b5f6020820190508181035f830152613d3181613cf8565b9050919050565b7f4e487b71000000000000000000000000000000000000000000000000000000005f52603260045260245ffd5b5f80fd5b5f80fd5b5f80fd5b5f8083356001602003843603038112613d8d57613d8c613d65565b5b80840192508235915067ffffffffffffffff821115613daf57613dae613d69565b5b602083019250600182023603831315613dcb57613dca613d6d565b5b509250929050565b5f81905092915050565b5f613de782612d0a565b613df18185613dd3565b9350613e01818560208601612d24565b80840191505092915050565b5f613e188285613ddd565b9150613e248284613ddd565b91508190509392505050565b7f4f776e61626c653a206e6577206f776e657220697320746865207a65726f20615f8201527f6464726573730000000000000000000000000000000000000000000000000000602082015250565b5f613e8a602683612d14565b9150613e9582613e30565b604082019050919050565b5f6020820190508181035f830152613eb781613e7e565b9050919050565b7f4552433732313a207472616e736665722066726f6d20696e636f7272656374205f8201527f6f776e6572000000000000000000000000000000000000000000000000000000602082015250565b5f613f18602583612d14565b9150613f2382613ebe565b604082019050919050565b5f6020820190508181035f830152613f4581613f0c565b9050919050565b7f4552433732313a207472616e7366657220746f20746865207a65726f206164645f8201527f7265737300000000000000000000000000000000000000000000000000000000602082015250565b5f613fa6602483612d14565b9150613fb182613f4c565b604082019050919050565b5f6020820190508181035f830152613fd381613f9a565b9050919050565b5f81519050613fe881613104565b92915050565b5f6020828403121561400357614002612c4f565b5b5f61401084828501613fda565b91505092915050565b7f45524331393637557067726164653a206e657720696d706c656d656e746174695f8201527f6f6e206973206e6f742055555053000000000000000000000000000000000000602082015250565b5f614073602e83612d14565b915061407e82614019565b604082019050919050565b5f6020820190508181035f8301526140a081614067565b9050919050565b7f45524331393637557067726164653a20756e737570706f727465642070726f785f8201527f6961626c65555549440000000000000000000000000000000000000000000000602082015250565b5f614101602983612d14565b915061410c826140a7565b604082019050919050565b5f6020820190508181035f83015261412e816140f5565b9050919050565b7f496e697469616c697a61626c653a20636f6e7472616374206973206e6f7420695f8201527f6e697469616c697a696e67000000000000000000000000000000000000000000602082015250565b5f61418f602b83612d14565b915061419a82614135565b604082019050919050565b5f6020820190508181035f8301526141bc81614183565b9050919050565b7f4552433732313a207472616e7366657220746f206e6f6e2045524337323152655f8201527f63656976657220696d706c656d656e7465720000000000000000000000000000602082015250565b5f61421d603283612d14565b9150614228826141c3565b604082019050919050565b5f6020820190508181035f83015261424a81614211565b9050919050565b7f4f776e61626c653a2063616c6c6572206973206e6f7420746865206f776e65725f82015250565b5f614285602083612d14565b915061429082614251565b602082019050919050565b5f6020820190508181035f8301526142b281614279565b9050919050565b7f4552433732313a20617070726f766520746f2063616c6c6572000000000000005f82015250565b5f6142ed601983612d14565b91506142f8826142b9565b602082019050919050565b5f6020820190508181035f83015261431a816142e1565b9050919050565b7f4e487b71000000000000000000000000000000000000000000000000000000005f52601260045260245ffd5b7f455243313936373a206e657720696d706c656d656e746174696f6e206973206e5f8201527f6f74206120636f6e747261637400000000000000000000000000000000000000602082015250565b5f6143a8602d83612d14565b91506143b38261434e565b604082019050919050565b5f6020820190508181035f8301526143d58161439c565b9050919050565b5f819050815f5260205f209050919050565b5f6020601f8301049050919050565b5f82821b905092915050565b5f600883026144387fffffffffffffffffffffffffffffffffffffffffffffffffffffffffffffffff826143fd565b61444286836143fd565b95508019841693508086168417925050509392505050565b5f61447461446f61446a84612db4565b6139c0565b612db4565b9050919050565b5f819050919050565b61448d8361445a565b6144a16144998261447b565b848454614409565b825550505050565b5f90565b6144b56144a9565b6144c0818484614484565b505050565b5b818110156144e3576144d85f826144ad565b6001810190506144c6565b5050565b601f821115614528576144f9816143dc565b614502846143ee565b81016020851015614511578190505b61452561451d856143ee565b8301826144c5565b50505b505050565b5f82821c905092915050565b5f6145485f198460080261452d565b1980831691505092915050565b5f6145608383614539565b9150826002028217905092915050565b61457982612d0a565b67ffffffffffffffff81111561459257614591612f86565b5b61459c8254613599565b6145a78282856144e7565b5f60209050601f8311600181146145d8575f84156145c6578287015190505b6145d08582614555565b865550614637565b601f1984166145e6866143dc565b5f5b8281101561460d578489015182556001820191506020850194506020810190506145e8565b8683101561462a5784890151614626601f891682614539565b8355505b6001600288020188555050505b505050505050565b7f4552433732313a206d696e7420746f20746865207a65726f20616464726573735f82015250565b5f614673602083612d14565b915061467e8261463f565b602082019050919050565b5f6020820190508181035f8301526146a081614667565b9050919050565b7f4552433732313a20746f6b656e20616c7265616479206d696e746564000000005f82015250565b5f6146db601c83612d14565b91506146e6826146a7565b602082019050919050565b5f6020820190508181035f830152614708816146cf565b9050919050565b5f82825260208201905092915050565b5f614729826133aa565b614733818561470f565b9350614743818560208601612d24565b61474c81612d4c565b840191505092915050565b5f60808201905061476a5f830187612e42565b6147776020830186612e42565b614784604083018561316c565b8181036060830152614796818461471f565b905095945050505050565b5f815190506147af81612c82565b92915050565b5f602082840312156147ca576147c9612c4f565b5b5f6147d7848285016147a1565b91505092915050565b5f81905092915050565b5f6147f4826133aa565b6147fe81856147e0565b935061480e818560208601612d24565b80840191505092915050565b5f61482582846147ea565b915081905092915050565b7f416464726573733a2063616c6c20746f206e6f6e2d636f6e74726163740000005f82015250565b5f614864601d83612d14565b915061486f82614830565b602082019050919050565b5f6020820190508181035f83015261489181614858565b905091905056fe416464726573733a206c6f772d6c6576656c2064656c65676174652063616c6c206661696c6564a2646970667358221220dcf5175b08669157d33249cba9360dfe082528874005eaf018df19ecf93e3ac664736f6c63430008180033",
			"opcodes": "PUSH1 0xA0 PUSH1 0x40 MSTORE ADDRESS PUSH20 0xFFFFFFFFFFFFFFFFFFFFFFFFFFFFFFFFFFFFFFFF AND PUSH1 0x80 SWAP1 PUSH20 0xFFFFFFFFFFFFFFFFFFFFFFFFFFFFFFFFFFFFFFFF AND DUP2 MSTORE POP CALLVALUE DUP1 ISZERO PUSH2 0x42 JUMPI PUSH0 DUP1 REVERT JUMPDEST POP PUSH1 0x80 MLOAD PUSH2 0x48F5 PUSH2 0x77 PUSH0 CODECOPY PUSH0 DUP2 DUP2 PUSH2 0x9D1 ADD MSTORE DUP2 DUP2 PUSH2 0xA5F ADD MSTORE DUP2 DUP2 PUSH2 0xB76 ADD MSTORE DUP2 DUP2 PUSH2 0xC04 ADD MSTORE PUSH2 0xCB3 ADD MSTORE PUSH2 0x48F5 PUSH0 RETURN INVALID PUSH1 0x80 PUSH1 0x40 MSTORE PUSH1 0x4 CALLDATASIZE LT PUSH2 0x1C1 JUMPI PUSH0 CALLDATALOAD PUSH1 0xE0 SHR DUP1 PUSH4 0x715018A6 GT PUSH2 0xF6 JUMPI DUP1 PUSH4 0xA22CB465 GT PUSH2 0x94 JUMPI DUP1 PUSH4 0xE985E9C5 GT PUSH2 0x63 JUMPI DUP1 PUSH4 0xE985E9C5 EQ PUSH2 0x5E9 JUMPI DUP1 PUSH4 0xEB08AB28 EQ PUSH2 0x625 JUMPI DUP1 PUSH4 0xF14210A6 EQ PUSH2 0x64F JUMPI DUP1 PUSH4 0xF2FDE38B EQ PUSH2 0x677 JUMPI PUSH2 0x1C1 JUMP JUMPDEST DUP1 PUSH4 0xA22CB465 EQ PUSH2 0x52D JUMPI DUP1 PUSH4 0xAC9650D8 EQ PUSH2 0x555 JUMPI DUP1 PUSH4 0xB88D4FDE EQ PUSH2 0x585 JUMPI DUP1 PUSH4 0xC87B56DD EQ PUSH2 0x5AD JUMPI PUSH2 0x1C1 JUMP JUMPDEST DUP1 PUSH4 0x8DA5CB5B GT PUSH2 0xD0 JUMPI DUP1 PUSH4 0x8DA5CB5B EQ PUSH2 0x487 JUMPI DUP1 PUSH4 0x91B7F5ED EQ PUSH2 0x4B1 JUMPI DUP1 PUSH4 0x95D89B41 EQ PUSH2 0x4D9 JUMPI DUP1 PUSH4 0xA035B1FE EQ PUSH2 0x503 JUMPI PUSH2 0x1C1 JUMP JUMPDEST DUP1 PUSH4 0x715018A6 EQ PUSH2 0x421 JUMPI DUP1 PUSH4 0x7CB64759 EQ PUSH2 0x437 JUMPI DUP1 PUSH4 0x84296EB7 EQ PUSH2 0x45F JUMPI PUSH2 0x1C1 JUMP JUMPDEST DUP1 PUSH4 0x42842E0E GT PUSH2 0x163 JUMPI DUP1 PUSH4 0x5B36C66B GT PUSH2 0x13D JUMPI DUP1 PUSH4 0x5B36C66B EQ PUSH2 0x377 JUMPI DUP1 PUSH4 0x6352211E EQ PUSH2 0x39F JUMPI DUP1 PUSH4 0x658A7227 EQ PUSH2 0x3DB JUMPI DUP1 PUSH4 0x70A08231 EQ PUSH2 0x3E5 JUMPI PUSH2 0x1C1 JUMP JUMPDEST DUP1 PUSH4 0x42842E0E EQ PUSH2 0x309 JUMPI DUP1 PUSH4 0x4F1EF286 EQ PUSH2 0x331 JUMPI DUP1 PUSH4 0x52D1902D EQ PUSH2 0x34D JUMPI PUSH2 0x1C1 JUMP JUMPDEST DUP1 PUSH4 0x95EA7B3 GT PUSH2 0x19F JUMPI DUP1 PUSH4 0x95EA7B3 EQ PUSH2 0x267 JUMPI DUP1 PUSH4 0x23B872DD EQ PUSH2 0x28F JUMPI DUP1 PUSH4 0x2EB4A7AB EQ PUSH2 0x2B7 JUMPI DUP1 PUSH4 0x3659CFE6 EQ PUSH2 0x2E1 JUMPI PUSH2 0x1C1 JUMP JUMPDEST DUP1 PUSH4 0x1FFC9A7 EQ PUSH2 0x1C5 JUMPI DUP1 PUSH4 0x6FDDE03 EQ PUSH2 0x201 JUMPI DUP1 PUSH4 0x81812FC EQ PUSH2 0x22B JUMPI JUMPDEST PUSH0 DUP1 REVERT JUMPDEST CALLVALUE DUP1 ISZERO PUSH2 0x1D0 JUMPI PUSH0 DUP1 REVERT JUMPDEST POP PUSH2 0x1EB PUSH1 0x4 DUP1 CALLDATASIZE SUB DUP2 ADD SWAP1 PUSH2 0x1E6 SWAP2 SWAP1 PUSH2 0x2CAC JUMP JUMPDEST PUSH2 0x69F JUMP JUMPDEST PUSH1 0x40 MLOAD PUSH2 0x1F8 SWAP2 SWAP1 PUSH2 0x2CF1 JUMP JUMPDEST PUSH1 0x40 MLOAD DUP1 SWAP2 SUB SWAP1 RETURN JUMPDEST CALLVALUE DUP1 ISZERO PUSH2 0x20C JUMPI PUSH0 DUP1 REVERT JUMPDEST POP PUSH2 0x215 PUSH2 0x780 JUMP JUMPDEST PUSH1 0x40 MLOAD PUSH2 0x222 SWAP2 SWAP1 PUSH2 0x2D94 JUMP JUMPDEST PUSH1 0x40 MLOAD DUP1 SWAP2 SUB SWAP1 RETURN JUMPDEST CALLVALUE DUP1 ISZERO PUSH2 0x236 JUMPI PUSH0 DUP1 REVERT JUMPDEST POP PUSH2 0x251 PUSH1 0x4 DUP1 CALLDATASIZE SUB DUP2 ADD SWAP1 PUSH2 0x24C SWAP2 SWAP1 PUSH2 0x2DE7 JUMP JUMPDEST PUSH2 0x810 JUMP JUMPDEST PUSH1 0x40 MLOAD PUSH2 0x25E SWAP2 SWAP1 PUSH2 0x2E51 JUMP JUMPDEST PUSH1 0x40 MLOAD DUP1 SWAP2 SUB SWAP1 RETURN JUMPDEST CALLVALUE DUP1 ISZERO PUSH2 0x272 JUMPI PUSH0 DUP1 REVERT JUMPDEST POP PUSH2 0x28D PUSH1 0x4 DUP1 CALLDATASIZE SUB DUP2 ADD SWAP1 PUSH2 0x288 SWAP2 SWAP1 PUSH2 0x2E94 JUMP JUMPDEST PUSH2 0x852 JUMP JUMPDEST STOP JUMPDEST CALLVALUE DUP1 ISZERO PUSH2 0x29A JUMPI PUSH0 DUP1 REVERT JUMPDEST POP PUSH2 0x2B5 PUSH1 0x4 DUP1 CALLDATASIZE SUB DUP2 ADD SWAP1 PUSH2 0x2B0 SWAP2 SWAP1 PUSH2 0x2ED2 JUMP JUMPDEST PUSH2 0x968 JUMP JUMPDEST STOP JUMPDEST CALLVALUE DUP1 ISZERO PUSH2 0x2C2 JUMPI PUSH0 DUP1 REVERT JUMPDEST POP PUSH2 0x2CB PUSH2 0x9C8 JUMP JUMPDEST PUSH1 0x40 MLOAD PUSH2 0x2D8 SWAP2 SWAP1 PUSH2 0x2F3A JUMP JUMPDEST PUSH1 0x40 MLOAD DUP1 SWAP2 SUB SWAP1 RETURN JUMPDEST CALLVALUE DUP1 ISZERO PUSH2 0x2EC JUMPI PUSH0 DUP1 REVERT JUMPDEST POP PUSH2 0x307 PUSH1 0x4 DUP1 CALLDATASIZE SUB DUP2 ADD SWAP1 PUSH2 0x302 SWAP2 SWAP1 PUSH2 0x2F53 JUMP JUMPDEST PUSH2 0x9CF JUMP JUMPDEST STOP JUMPDEST CALLVALUE DUP1 ISZERO PUSH2 0x314 JUMPI PUSH0 DUP1 REVERT JUMPDEST POP PUSH2 0x32F PUSH1 0x4 DUP1 CALLDATASIZE SUB DUP2 ADD SWAP1 PUSH2 0x32A SWAP2 SWAP1 PUSH2 0x2ED2 JUMP JUMPDEST PUSH2 0xB55 JUMP JUMPDEST STOP JUMPDEST PUSH2 0x34B PUSH1 0x4 DUP1 CALLDATASIZE SUB DUP2 ADD SWAP1 PUSH2 0x346 SWAP2 SWAP1 PUSH2 0x30AA JUMP JUMPDEST PUSH2 0xB74 JUMP JUMPDEST STOP JUMPDEST CALLVALUE DUP1 ISZERO PUSH2 0x358 JUMPI PUSH0 DUP1 REVERT JUMPDEST POP PUSH2 0x361 PUSH2 0xCB0 JUMP JUMPDEST PUSH1 0x40 MLOAD PUSH2 0x36E SWAP2 SWAP1 PUSH2 0x2F3A JUMP JUMPDEST PUSH1 0x40 MLOAD DUP1 SWAP2 SUB SWAP1 RETURN JUMPDEST CALLVALUE DUP1 ISZERO PUSH2 0x382 JUMPI PUSH0 DUP1 REVERT JUMPDEST POP PUSH2 0x39D PUSH1 0x4 DUP1 CALLDATASIZE SUB DUP2 ADD SWAP1 PUSH2 0x398 SWAP2 SWAP1 PUSH2 0x312E JUMP JUMPDEST PUSH2 0xD67 JUMP JUMPDEST STOP JUMPDEST CALLVALUE DUP1 ISZERO PUSH2 0x3AA JUMPI PUSH0 DUP1 REVERT JUMPDEST POP PUSH2 0x3C5 PUSH1 0x4 DUP1 CALLDATASIZE SUB DUP2 ADD SWAP1 PUSH2 0x3C0 SWAP2 SWAP1 PUSH2 0x2DE7 JUMP JUMPDEST PUSH2 0xF37 JUMP JUMPDEST PUSH1 0x40 MLOAD PUSH2 0x3D2 SWAP2 SWAP1 PUSH2 0x2E51 JUMP JUMPDEST PUSH1 0x40 MLOAD DUP1 SWAP2 SUB SWAP1 RETURN JUMPDEST PUSH2 0x3E3 PUSH2 0xFBB JUMP JUMPDEST STOP JUMPDEST CALLVALUE DUP1 ISZERO PUSH2 0x3F0 JUMPI PUSH0 DUP1 REVERT JUMPDEST POP PUSH2 0x40B PUSH1 0x4 DUP1 CALLDATASIZE SUB DUP2 ADD SWAP1 PUSH2 0x406 SWAP2 SWAP1 PUSH2 0x2F53 JUMP JUMPDEST PUSH2 0x1030 JUMP JUMPDEST PUSH1 0x40 MLOAD PUSH2 0x418 SWAP2 SWAP1 PUSH2 0x317B JUMP JUMPDEST PUSH1 0x40 MLOAD DUP1 SWAP2 SUB SWAP1 RETURN JUMPDEST CALLVALUE DUP1 ISZERO PUSH2 0x42C JUMPI PUSH0 DUP1 REVERT JUMPDEST POP PUSH2 0x435 PUSH2 0x10E4 JUMP JUMPDEST STOP JUMPDEST CALLVALUE DUP1 ISZERO PUSH2 0x442 JUMPI PUSH0 DUP1 REVERT JUMPDEST POP PUSH2 0x45D PUSH1 0x4 DUP1 CALLDATASIZE SUB DUP2 ADD SWAP1 PUSH2 0x458 SWAP2 SWAP1 PUSH2 0x3194 JUMP JUMPDEST PUSH2 0x10F7 JUMP JUMPDEST STOP JUMPDEST CALLVALUE DUP1 ISZERO PUSH2 0x46A JUMPI PUSH0 DUP1 REVERT JUMPDEST POP PUSH2 0x485 PUSH1 0x4 DUP1 CALLDATASIZE SUB DUP2 ADD SWAP1 PUSH2 0x480 SWAP2 SWAP1 PUSH2 0x321C JUMP JUMPDEST PUSH2 0x1102 JUMP JUMPDEST STOP JUMPDEST CALLVALUE DUP1 ISZERO PUSH2 0x492 JUMPI PUSH0 DUP1 REVERT JUMPDEST POP PUSH2 0x49B PUSH2 0x11E8 JUMP JUMPDEST PUSH1 0x40 MLOAD PUSH2 0x4A8 SWAP2 SWAP1 PUSH2 0x2E51 JUMP JUMPDEST PUSH1 0x40 MLOAD DUP1 SWAP2 SUB SWAP1 RETURN JUMPDEST CALLVALUE DUP1 ISZERO PUSH2 0x4BC JUMPI PUSH0 DUP1 REVERT JUMPDEST POP PUSH2 0x4D7 PUSH1 0x4 DUP1 CALLDATASIZE SUB DUP2 ADD SWAP1 PUSH2 0x4D2 SWAP2 SWAP1 PUSH2 0x2DE7 JUMP JUMPDEST PUSH2 0x1210 JUMP JUMPDEST STOP JUMPDEST CALLVALUE DUP1 ISZERO PUSH2 0x4E4 JUMPI PUSH0 DUP1 REVERT JUMPDEST POP PUSH2 0x4ED PUSH2 0x1265 JUMP JUMPDEST PUSH1 0x40 MLOAD PUSH2 0x4FA SWAP2 SWAP1 PUSH2 0x2D94 JUMP JUMPDEST PUSH1 0x40 MLOAD DUP1 SWAP2 SUB SWAP1 RETURN JUMPDEST CALLVALUE DUP1 ISZERO PUSH2 0x50E JUMPI PUSH0 DUP1 REVERT JUMPDEST POP PUSH2 0x517 PUSH2 0x12F5 JUMP JUMPDEST PUSH1 0x40 MLOAD PUSH2 0x524 SWAP2 SWAP1 PUSH2 0x317B JUMP JUMPDEST PUSH1 0x40 MLOAD DUP1 SWAP2 SUB SWAP1 RETURN JUMPDEST CALLVALUE DUP1 ISZERO PUSH2 0x538 JUMPI PUSH0 DUP1 REVERT JUMPDEST POP PUSH2 0x553 PUSH1 0x4 DUP1 CALLDATASIZE SUB DUP2 ADD SWAP1 PUSH2 0x54E SWAP2 SWAP1 PUSH2 0x32A3 JUMP JUMPDEST PUSH2 0x12FC JUMP JUMPDEST STOP JUMPDEST PUSH2 0x56F PUSH1 0x4 DUP1 CALLDATASIZE SUB DUP2 ADD SWAP1 PUSH2 0x56A SWAP2 SWAP1 PUSH2 0x3336 JUMP JUMPDEST PUSH2 0x1312 JUMP JUMPDEST PUSH1 0x40 MLOAD PUSH2 0x57C SWAP2 SWAP1 PUSH2 0x348E JUMP JUMPDEST PUSH1 0x40 MLOAD DUP1 SWAP2 SUB SWAP1 RETURN JUMPDEST CALLVALUE DUP1 ISZERO PUSH2 0x590 JUMPI PUSH0 DUP1 REVERT JUMPDEST POP PUSH2 0x5AB PUSH1 0x4 DUP1 CALLDATASIZE SUB DUP2 ADD SWAP1 PUSH2 0x5A6 SWAP2 SWAP1 PUSH2 0x34AE JUMP JUMPDEST PUSH2 0x1416 JUMP JUMPDEST STOP JUMPDEST CALLVALUE DUP1 ISZERO PUSH2 0x5B8 JUMPI PUSH0 DUP1 REVERT JUMPDEST POP PUSH2 0x5D3 PUSH1 0x4 DUP1 CALLDATASIZE SUB DUP2 ADD SWAP1 PUSH2 0x5CE SWAP2 SWAP1 PUSH2 0x2DE7 JUMP JUMPDEST PUSH2 0x1478 JUMP JUMPDEST PUSH1 0x40 MLOAD PUSH2 0x5E0 SWAP2 SWAP1 PUSH2 0x2D94 JUMP JUMPDEST PUSH1 0x40 MLOAD DUP1 SWAP2 SUB SWAP1 RETURN JUMPDEST CALLVALUE DUP1 ISZERO PUSH2 0x5F4 JUMPI PUSH0 DUP1 REVERT JUMPDEST POP PUSH2 0x60F PUSH1 0x4 DUP1 CALLDATASIZE SUB DUP2 ADD SWAP1 PUSH2 0x60A SWAP2 SWAP1 PUSH2 0x352E JUMP JUMPDEST PUSH2 0x14DD JUMP JUMPDEST PUSH1 0x40 MLOAD PUSH2 0x61C SWAP2 SWAP1 PUSH2 0x2CF1 JUMP JUMPDEST PUSH1 0x40 MLOAD DUP1 SWAP2 SUB SWAP1 RETURN JUMPDEST CALLVALUE DUP1 ISZERO PUSH2 0x630 JUMPI PUSH0 DUP1 REVERT JUMPDEST POP PUSH2 0x639 PUSH2 0x156B JUMP JUMPDEST PUSH1 0x40 MLOAD PUSH2 0x646 SWAP2 SWAP1 PUSH2 0x317B JUMP JUMPDEST PUSH1 0x40 MLOAD DUP1 SWAP2 SUB SWAP1 RETURN JUMPDEST CALLVALUE DUP1 ISZERO PUSH2 0x65A JUMPI PUSH0 DUP1 REVERT JUMPDEST POP PUSH2 0x675 PUSH1 0x4 DUP1 CALLDATASIZE SUB DUP2 ADD SWAP1 PUSH2 0x670 SWAP2 SWAP1 PUSH2 0x2DE7 JUMP JUMPDEST PUSH2 0x1572 JUMP JUMPDEST STOP JUMPDEST CALLVALUE DUP1 ISZERO PUSH2 0x682 JUMPI PUSH0 DUP1 REVERT JUMPDEST POP PUSH2 0x69D PUSH1 0x4 DUP1 CALLDATASIZE SUB DUP2 ADD SWAP1 PUSH2 0x698 SWAP2 SWAP1 PUSH2 0x2F53 JUMP JUMPDEST PUSH2 0x15C8 JUMP JUMPDEST STOP JUMPDEST PUSH0 PUSH32 0x80AC58CD00000000000000000000000000000000000000000000000000000000 PUSH28 0xFFFFFFFFFFFFFFFFFFFFFFFFFFFFFFFFFFFFFFFFFFFFFFFFFFFFFFFF NOT AND DUP3 PUSH28 0xFFFFFFFFFFFFFFFFFFFFFFFFFFFFFFFFFFFFFFFFFFFFFFFFFFFFFFFF NOT AND EQ DUP1 PUSH2 0x769 JUMPI POP PUSH32 0x5B5E139F00000000000000000000000000000000000000000000000000000000 PUSH28 0xFFFFFFFFFFFFFFFFFFFFFFFFFFFFFFFFFFFFFFFFFFFFFFFFFFFFFFFF NOT AND DUP3 PUSH28 0xFFFFFFFFFFFFFFFFFFFFFFFFFFFFFFFFFFFFFFFFFFFFFFFFFFFFFFFF NOT AND EQ JUMPDEST DUP1 PUSH2 0x779 JUMPI POP PUSH2 0x778 DUP3 PUSH2 0x164A JUMP JUMPDEST JUMPDEST SWAP1 POP SWAP2 SWAP1 POP JUMP JUMPDEST PUSH1 0x60 PUSH1 0x65 DUP1 SLOAD PUSH2 0x78F SWAP1 PUSH2 0x3599 JUMP JUMPDEST DUP1 PUSH1 0x1F ADD PUSH1 0x20 DUP1 SWAP2 DIV MUL PUSH1 0x20 ADD PUSH1 0x40 MLOAD SWAP1 DUP2 ADD PUSH1 0x40 MSTORE DUP1 SWAP3 SWAP2 SWAP1 DUP2 DUP2 MSTORE PUSH1 0x20 ADD DUP3 DUP1 SLOAD PUSH2 0x7BB SWAP1 PUSH2 0x3599 JUMP JUMPDEST DUP1 ISZERO PUSH2 0x806 JUMPI DUP1 PUSH1 0x1F LT PUSH2 0x7DD JUMPI PUSH2 0x100 DUP1 DUP4 SLOAD DIV MUL DUP4 MSTORE SWAP2 PUSH1 0x20 ADD SWAP2 PUSH2 0x806 JUMP JUMPDEST DUP3 ADD SWAP2 SWAP1 PUSH0 MSTORE PUSH1 0x20 PUSH0 KECCAK256 SWAP1 JUMPDEST DUP2 SLOAD DUP2 MSTORE SWAP1 PUSH1 0x1 ADD SWAP1 PUSH1 0x20 ADD DUP1 DUP4 GT PUSH2 0x7E9 JUMPI DUP3 SWAP1 SUB PUSH1 0x1F AND DUP3 ADD SWAP2 JUMPDEST POP POP POP POP POP SWAP1 POP SWAP1 JUMP JUMPDEST PUSH0 PUSH2 0x81A DUP3 PUSH2 0x16B3 JUMP JUMPDEST PUSH1 0x69 PUSH0 DUP4 DUP2 MSTORE PUSH1 0x20 ADD SWAP1 DUP2 MSTORE PUSH1 0x20 ADD PUSH0 KECCAK256 PUSH0 SWAP1 SLOAD SWAP1 PUSH2 0x100 EXP SWAP1 DIV PUSH20 0xFFFFFFFFFFFFFFFFFFFFFFFFFFFFFFFFFFFFFFFF AND SWAP1 POP SWAP2 SWAP1 POP JUMP JUMPDEST PUSH0 PUSH2 0x85C DUP3 PUSH2 0xF37 JUMP JUMPDEST SWAP1 POP DUP1 PUSH20 0xFFFFFFFFFFFFFFFFFFFFFFFFFFFFFFFFFFFFFFFF AND DUP4 PUSH20 0xFFFFFFFFFFFFFFFFFFFFFFFFFFFFFFFFFFFFFFFF AND SUB PUSH2 0x8CC JUMPI PUSH1 0x40 MLOAD PUSH32 0x8C379A000000000000000000000000000000000000000000000000000000000 DUP2 MSTORE PUSH1 0x4 ADD PUSH2 0x8C3 SWAP1 PUSH2 0x3639 JUMP JUMPDEST PUSH1 0x40 MLOAD DUP1 SWAP2 SUB SWAP1 REVERT JUMPDEST DUP1 PUSH20 0xFFFFFFFFFFFFFFFFFFFFFFFFFFFFFFFFFFFFFFFF AND PUSH2 0x8EB PUSH2 0x16FE JUMP JUMPDEST PUSH20 0xFFFFFFFFFFFFFFFFFFFFFFFFFFFFFFFFFFFFFFFF AND EQ DUP1 PUSH2 0x91A JUMPI POP PUSH2 0x919 DUP2 PUSH2 0x914 PUSH2 0x16FE JUMP JUMPDEST PUSH2 0x14DD JUMP JUMPDEST JUMPDEST PUSH2 0x959 JUMPI PUSH1 0x40 MLOAD PUSH32 0x8C379A000000000000000000000000000000000000000000000000000000000 DUP2 MSTORE PUSH1 0x4 ADD PUSH2 0x950 SWAP1 PUSH2 0x36C7 JUMP JUMPDEST PUSH1 0x40 MLOAD DUP1 SWAP2 SUB SWAP1 REVERT JUMPDEST PUSH2 0x963 DUP4 DUP4 PUSH2 0x1705 JUMP JUMPDEST POP POP POP JUMP JUMPDEST PUSH2 0x979 PUSH2 0x973 PUSH2 0x16FE JUMP JUMPDEST DUP3 PUSH2 0x17BB JUMP JUMPDEST PUSH2 0x9B8 JUMPI PUSH1 0x40 MLOAD PUSH32 0x8C379A000000000000000000000000000000000000000000000000000000000 DUP2 MSTORE PUSH1 0x4 ADD PUSH2 0x9AF SWAP1 PUSH2 0x3755 JUMP JUMPDEST PUSH1 0x40 MLOAD DUP1 SWAP2 SUB SWAP1 REVERT JUMPDEST PUSH2 0x9C3 DUP4 DUP4 DUP4 PUSH2 0x184F JUMP JUMPDEST POP POP POP JUMP JUMPDEST PUSH2 0x12D SLOAD DUP2 JUMP JUMPDEST PUSH32 0x0 PUSH20 0xFFFFFFFFFFFFFFFFFFFFFFFFFFFFFFFFFFFFFFFF AND ADDRESS PUSH20 0xFFFFFFFFFFFFFFFFFFFFFFFFFFFFFFFFFFFFFFFF AND SUB PUSH2 0xA5D JUMPI PUSH1 0x40 MLOAD PUSH32 0x8C379A000000000000000000000000000000000000000000000000000000000 DUP2 MSTORE PUSH1 0x4 ADD PUSH2 0xA54 SWAP1 PUSH2 0x37E3 JUMP JUMPDEST PUSH1 0x40 MLOAD DUP1 SWAP2 SUB SWAP1 REVERT JUMPDEST PUSH32 0x0 PUSH20 0xFFFFFFFFFFFFFFFFFFFFFFFFFFFFFFFFFFFFFFFF AND PUSH2 0xA9C PUSH2 0x1B3B JUMP JUMPDEST PUSH20 0xFFFFFFFFFFFFFFFFFFFFFFFFFFFFFFFFFFFFFFFF AND EQ PUSH2 0xAF2 JUMPI PUSH1 0x40 MLOAD PUSH32 0x8C379A000000000000000000000000000000000000000000000000000000000 DUP2 MSTORE PUSH1 0x4 ADD PUSH2 0xAE9 SWAP1 PUSH2 0x3871 JUMP JUMPDEST PUSH1 0x40 MLOAD DUP1 SWAP2 SUB SWAP1 REVERT JUMPDEST PUSH2 0xAFB DUP2 PUSH2 0x1B8E JUMP JUMPDEST PUSH2 0xB52 DUP2 PUSH0 PUSH8 0xFFFFFFFFFFFFFFFF DUP2 GT ISZERO PUSH2 0xB19 JUMPI PUSH2 0xB18 PUSH2 0x2F86 JUMP JUMPDEST JUMPDEST PUSH1 0x40 MLOAD SWAP1 DUP1 DUP3 MSTORE DUP1 PUSH1 0x1F ADD PUSH1 0x1F NOT AND PUSH1 0x20 ADD DUP3 ADD PUSH1 0x40 MSTORE DUP1 ISZERO PUSH2 0xB4B JUMPI DUP2 PUSH1 0x20 ADD PUSH1 0x1 DUP3 MUL DUP1 CALLDATASIZE DUP4 CALLDATACOPY DUP1 DUP3 ADD SWAP2 POP POP SWAP1 POP JUMPDEST POP PUSH0 PUSH2 0x1B91 JUMP JUMPDEST POP JUMP JUMPDEST PUSH2 0xB6F DUP4 DUP4 DUP4 PUSH1 0x40 MLOAD DUP1 PUSH1 0x20 ADD PUSH1 0x40 MSTORE DUP1 PUSH0 DUP2 MSTORE POP PUSH2 0x1416 JUMP JUMPDEST POP POP POP JUMP JUMPDEST PUSH32 0x0 PUSH20 0xFFFFFFFFFFFFFFFFFFFFFFFFFFFFFFFFFFFFFFFF AND ADDRESS PUSH20 0xFFFFFFFFFFFFFFFFFFFFFFFFFFFFFFFFFFFFFFFF AND SUB PUSH2 0xC02 JUMPI PUSH1 0x40 MLOAD PUSH32 0x8C379A000000000000000000000000000000000000000000000000000000000 DUP2 MSTORE PUSH1 0x4 ADD PUSH2 0xBF9 SWAP1 PUSH2 0x37E3 JUMP JUMPDEST PUSH1 0x40 MLOAD DUP1 SWAP2 SUB SWAP1 REVERT JUMPDEST PUSH32 0x0 PUSH20 0xFFFFFFFFFFFFFFFFFFFFFFFFFFFFFFFFFFFFFFFF AND PUSH2 0xC41 PUSH2 0x1B3B JUMP JUMPDEST PUSH20 0xFFFFFFFFFFFFFFFFFFFFFFFFFFFFFFFFFFFFFFFF AND EQ PUSH2 0xC97 JUMPI PUSH1 0x40 MLOAD PUSH32 0x8C379A000000000000000000000000000000000000000000000000000000000 DUP2 MSTORE PUSH1 0x4 ADD PUSH2 0xC8E SWAP1 PUSH2 0x3871 JUMP JUMPDEST PUSH1 0x40 MLOAD DUP1 SWAP2 SUB SWAP1 REVERT JUMPDEST PUSH2 0xCA0 DUP3 PUSH2 0x1B8E JUMP JUMPDEST PUSH2 0xCAC DUP3 DUP3 PUSH1 0x1 PUSH2 0x1B91 JUMP JUMPDEST POP POP JUMP JUMPDEST PUSH0 PUSH32 0x0 PUSH20 0xFFFFFFFFFFFFFFFFFFFFFFFFFFFFFFFFFFFFFFFF AND ADDRESS PUSH20 0xFFFFFFFFFFFFFFFFFFFFFFFFFFFFFFFFFFFFFFFF AND EQ PUSH2 0xD3F JUMPI PUSH1 0x40 MLOAD PUSH32 0x8C379A000000000000000000000000000000000000000000000000000000000 DUP2 MSTORE PUSH1 0x4 ADD PUSH2 0xD36 SWAP1 PUSH2 0x38FF JUMP JUMPDEST PUSH1 0x40 MLOAD DUP1 SWAP2 SUB SWAP1 REVERT JUMPDEST PUSH32 0x360894A13BA1A3210667C828492DB98DCA3E2076CC3735A920A3CA505D382BBC PUSH0 SHL SWAP1 POP SWAP1 JUMP JUMPDEST PUSH0 DUP1 PUSH1 0x1 SWAP1 SLOAD SWAP1 PUSH2 0x100 EXP SWAP1 DIV PUSH1 0xFF AND ISZERO SWAP1 POP DUP1 DUP1 ISZERO PUSH2 0xD96 JUMPI POP PUSH1 0x1 PUSH0 DUP1 SLOAD SWAP1 PUSH2 0x100 EXP SWAP1 DIV PUSH1 0xFF AND PUSH1 0xFF AND LT JUMPDEST DUP1 PUSH2 0xDC2 JUMPI POP PUSH2 0xDA5 ADDRESS PUSH2 0x1CFB JUMP JUMPDEST ISZERO DUP1 ISZERO PUSH2 0xDC1 JUMPI POP PUSH1 0x1 PUSH0 DUP1 SLOAD SWAP1 PUSH2 0x100 EXP SWAP1 DIV PUSH1 0xFF AND PUSH1 0xFF AND EQ JUMPDEST JUMPDEST PUSH2 0xE01 JUMPI PUSH1 0x40 MLOAD PUSH32 0x8C379A000000000000000000000000000000000000000000000000000000000 DUP2 MSTORE PUSH1 0x4 ADD PUSH2 0xDF8 SWAP1 PUSH2 0x398D JUMP JUMPDEST PUSH1 0x40 MLOAD DUP1 SWAP2 SUB SWAP1 REVERT JUMPDEST PUSH1 0x1 PUSH0 DUP1 PUSH2 0x100 EXP DUP2 SLOAD DUP2 PUSH1 0xFF MUL NOT AND SWAP1 DUP4 PUSH1 0xFF AND MUL OR SWAP1 SSTORE POP DUP1 ISZERO PUSH2 0xE3C JUMPI PUSH1 0x1 PUSH0 PUSH1 0x1 PUSH2 0x100 EXP DUP2 SLOAD DUP2 PUSH1 0xFF MUL NOT AND SWAP1 DUP4 ISZERO ISZERO MUL OR SWAP1 SSTORE POP JUMPDEST PUSH2 0xEB0 PUSH1 0x40 MLOAD DUP1 PUSH1 0x40 ADD PUSH1 0x40 MSTORE DUP1 PUSH1 0xB DUP2 MSTORE PUSH1 0x20 ADD PUSH32 0x48616C626F726E204E4654000000000000000000000000000000000000000000 DUP2 MSTORE POP PUSH1 0x40 MLOAD DUP1 PUSH1 0x40 ADD PUSH1 0x40 MSTORE DUP1 PUSH1 0x4 DUP2 MSTORE PUSH1 0x20 ADD PUSH32 0x484E465400000000000000000000000000000000000000000000000000000000 DUP2 MSTORE POP PUSH2 0x1D1D JUMP JUMPDEST PUSH2 0xEB8 PUSH2 0x1D79 JUMP JUMPDEST PUSH2 0xEC0 PUSH2 0x1DC9 JUMP JUMPDEST PUSH2 0xEC8 PUSH2 0x1E21 JUMP JUMPDEST PUSH2 0xED1 DUP4 PUSH2 0x10F7 JUMP JUMPDEST PUSH2 0xEDA DUP3 PUSH2 0x1210 JUMP JUMPDEST DUP1 ISZERO PUSH2 0xF32 JUMPI PUSH0 DUP1 PUSH1 0x1 PUSH2 0x100 EXP DUP2 SLOAD DUP2 PUSH1 0xFF MUL NOT AND SWAP1 DUP4 ISZERO ISZERO MUL OR SWAP1 SSTORE POP PUSH32 0x7F26B83FF96E1F2B6A682F133852F6798A09C465DA95921460CEFB3847402498 PUSH1 0x1 PUSH1 0x40 MLOAD PUSH2 0xF29 SWAP2 SWAP1 PUSH2 0x39F9 JUMP JUMPDEST PUSH1 0x40 MLOAD DUP1 SWAP2 SUB SWAP1 LOG1 JUMPDEST POP POP POP JUMP JUMPDEST PUSH0 DUP1 PUSH2 0xF42 DUP4 PUSH2 0x1E71 JUMP JUMPDEST SWAP1 POP PUSH0 PUSH20 0xFFFFFFFFFFFFFFFFFFFFFFFFFFFFFFFFFFFFFFFF AND DUP2 PUSH20 0xFFFFFFFFFFFFFFFFFFFFFFFFFFFFFFFFFFFFFFFF AND SUB PUSH2 0xFB2 JUMPI PUSH1 0x40 MLOAD PUSH32 0x8C379A000000000000000000000000000000000000000000000000000000000 DUP2 MSTORE PUSH1 0x4 ADD PUSH2 0xFA9 SWAP1 PUSH2 0x3A5C JUMP JUMPDEST PUSH1 0x40 MLOAD DUP1 SWAP2 SUB SWAP1 REVERT JUMPDEST DUP1 SWAP2 POP POP SWAP2 SWAP1 POP JUMP JUMPDEST PUSH2 0x12E SLOAD CALLVALUE EQ PUSH2 0x1000 JUMPI PUSH1 0x40 MLOAD PUSH32 0x8C379A000000000000000000000000000000000000000000000000000000000 DUP2 MSTORE PUSH1 0x4 ADD PUSH2 0xFF7 SWAP1 PUSH2 0x3AC4 JUMP JUMPDEST PUSH1 0x40 MLOAD DUP1 SWAP2 SUB SWAP1 REVERT JUMPDEST PUSH2 0x12F PUSH0 DUP2 SLOAD DUP1 SWAP3 SWAP2 SWAP1 PUSH1 0x1 ADD SWAP2 SWAP1 POP SSTORE POP PUSH2 0x102E CALLER PUSH2 0x12F SLOAD PUSH1 0x40 MLOAD DUP1 PUSH1 0x20 ADD PUSH1 0x40 MSTORE DUP1 PUSH0 DUP2 MSTORE POP PUSH2 0x1EAA JUMP JUMPDEST JUMP JUMPDEST PUSH0 DUP1 PUSH20 0xFFFFFFFFFFFFFFFFFFFFFFFFFFFFFFFFFFFFFFFF AND DUP3 PUSH20 0xFFFFFFFFFFFFFFFFFFFFFFFFFFFFFFFFFFFFFFFF AND SUB PUSH2 0x109F JUMPI PUSH1 0x40 MLOAD PUSH32 0x8C379A000000000000000000000000000000000000000000000000000000000 DUP2 MSTORE PUSH1 0x4 ADD PUSH2 0x1096 SWAP1 PUSH2 0x3B52 JUMP JUMPDEST PUSH1 0x40 MLOAD DUP1 SWAP2 SUB SWAP1 REVERT JUMPDEST PUSH1 0x68 PUSH0 DUP4 PUSH20 0xFFFFFFFFFFFFFFFFFFFFFFFFFFFFFFFFFFFFFFFF AND PUSH20 0xFFFFFFFFFFFFFFFFFFFFFFFFFFFFFFFFFFFFFFFF AND DUP2 MSTORE PUSH1 0x20 ADD SWAP1 DUP2 MSTORE PUSH1 0x20 ADD PUSH0 KECCAK256 SLOAD SWAP1 POP SWAP2 SWAP1 POP JUMP JUMPDEST PUSH2 0x10EC PUSH2 0x1F04 JUMP JUMPDEST PUSH2 0x10F5 PUSH0 PUSH2 0x1F82 JUMP JUMPDEST JUMP JUMPDEST DUP1 PUSH2 0x12D DUP2 SWAP1 SSTORE POP POP JUMP JUMPDEST PUSH2 0x110B DUP4 PUSH2 0x2045 JUMP JUMPDEST PUSH2 0x114A JUMPI PUSH1 0x40 MLOAD PUSH32 0x8C379A000000000000000000000000000000000000000000000000000000000 DUP2 MSTORE PUSH1 0x4 ADD PUSH2 0x1141 SWAP1 PUSH2 0x3BBA JUMP JUMPDEST PUSH1 0x40 MLOAD DUP1 SWAP2 SUB SWAP1 REVERT JUMPDEST PUSH0 CALLER DUP5 PUSH1 0x40 MLOAD PUSH1 0x20 ADD PUSH2 0x115E SWAP3 SWAP2 SWAP1 PUSH2 0x3C3D JUMP JUMPDEST PUSH1 0x40 MLOAD PUSH1 0x20 DUP2 DUP4 SUB SUB DUP2 MSTORE SWAP1 PUSH1 0x40 MSTORE DUP1 MLOAD SWAP1 PUSH1 0x20 ADD KECCAK256 SWAP1 POP PUSH0 PUSH2 0x1186 DUP5 DUP5 PUSH2 0x12D SLOAD DUP6 PUSH2 0x2085 JUMP JUMPDEST SWAP1 POP DUP1 PUSH2 0x11C8 JUMPI PUSH1 0x40 MLOAD PUSH32 0x8C379A000000000000000000000000000000000000000000000000000000000 DUP2 MSTORE PUSH1 0x4 ADD PUSH2 0x11BF SWAP1 PUSH2 0x3CB2 JUMP JUMPDEST PUSH1 0x40 MLOAD DUP1 SWAP2 SUB SWAP1 REVERT JUMPDEST PUSH2 0x11E1 CALLER DUP7 PUSH1 0x40 MLOAD DUP1 PUSH1 0x20 ADD PUSH1 0x40 MSTORE DUP1 PUSH0 DUP2 MSTORE POP PUSH2 0x1EAA JUMP JUMPDEST POP POP POP POP POP JUMP JUMPDEST PUSH0 PUSH1 0xFB PUSH0 SWAP1 SLOAD SWAP1 PUSH2 0x100 EXP SWAP1 DIV PUSH20 0xFFFFFFFFFFFFFFFFFFFFFFFFFFFFFFFFFFFFFFFF AND SWAP1 POP SWAP1 JUMP JUMPDEST PUSH2 0x1218 PUSH2 0x1F04 JUMP JUMPDEST PUSH0 DUP2 SUB PUSH2 0x125A JUMPI PUSH1 0x40 MLOAD PUSH32 0x8C379A000000000000000000000000000000000000000000000000000000000 DUP2 MSTORE PUSH1 0x4 ADD PUSH2 0x1251 SWAP1 PUSH2 0x3D1A JUMP JUMPDEST PUSH1 0x40 MLOAD DUP1 SWAP2 SUB SWAP1 REVERT JUMPDEST DUP1 PUSH2 0x12E DUP2 SWAP1 SSTORE POP POP JUMP JUMPDEST PUSH1 0x60 PUSH1 0x66 DUP1 SLOAD PUSH2 0x1274 SWAP1 PUSH2 0x3599 JUMP JUMPDEST DUP1 PUSH1 0x1F ADD PUSH1 0x20 DUP1 SWAP2 DIV MUL PUSH1 0x20 ADD PUSH1 0x40 MLOAD SWAP1 DUP2 ADD PUSH1 0x40 MSTORE DUP1 SWAP3 SWAP2 SWAP1 DUP2 DUP2 MSTORE PUSH1 0x20 ADD DUP3 DUP1 SLOAD PUSH2 0x12A0 SWAP1 PUSH2 0x3599 JUMP JUMPDEST DUP1 ISZERO PUSH2 0x12EB JUMPI DUP1 PUSH1 0x1F LT PUSH2 0x12C2 JUMPI PUSH2 0x100 DUP1 DUP4 SLOAD DIV MUL DUP4 MSTORE SWAP2 PUSH1 0x20 ADD SWAP2 PUSH2 0x12EB JUMP JUMPDEST DUP3 ADD SWAP2 SWAP1 PUSH0 MSTORE PUSH1 0x20 PUSH0 KECCAK256 SWAP1 JUMPDEST DUP2 SLOAD DUP2 MSTORE SWAP1 PUSH1 0x1 ADD SWAP1 PUSH1 0x20 ADD DUP1 DUP4 GT PUSH2 0x12CE JUMPI DUP3 SWAP1 SUB PUSH1 0x1F AND DUP3 ADD SWAP2 JUMPDEST POP POP POP POP POP SWAP1 POP SWAP1 JUMP JUMPDEST PUSH2 0x12E SLOAD DUP2 JUMP JUMPDEST PUSH2 0x130E PUSH2 0x1307 PUSH2 0x16FE JUMP JUMPDEST DUP4 DUP4 PUSH2 0x209D JUMP JUMPDEST POP POP JUMP JUMPDEST PUSH1 0x60 DUP3 DUP3 SWAP1 POP PUSH8 0xFFFFFFFFFFFFFFFF DUP2 GT ISZERO PUSH2 0x1331 JUMPI PUSH2 0x1330 PUSH2 0x2F86 JUMP JUMPDEST JUMPDEST PUSH1 0x40 MLOAD SWAP1 DUP1 DUP3 MSTORE DUP1 PUSH1 0x20 MUL PUSH1 0x20 ADD DUP3 ADD PUSH1 0x40 MSTORE DUP1 ISZERO PUSH2 0x1364 JUMPI DUP2 PUSH1 0x20 ADD JUMPDEST PUSH1 0x60 DUP2 MSTORE PUSH1 0x20 ADD SWAP1 PUSH1 0x1 SWAP1 SUB SWAP1 DUP2 PUSH2 0x134F JUMPI SWAP1 POP JUMPDEST POP SWAP1 POP PUSH0 JUMPDEST DUP4 DUP4 SWAP1 POP DUP2 LT ISZERO PUSH2 0x140F JUMPI PUSH2 0x13E4 ADDRESS DUP6 DUP6 DUP5 DUP2 DUP2 LT PUSH2 0x138B JUMPI PUSH2 0x138A PUSH2 0x3D38 JUMP JUMPDEST JUMPDEST SWAP1 POP PUSH1 0x20 MUL DUP2 ADD SWAP1 PUSH2 0x139D SWAP2 SWAP1 PUSH2 0x3D71 JUMP JUMPDEST DUP1 DUP1 PUSH1 0x1F ADD PUSH1 0x20 DUP1 SWAP2 DIV MUL PUSH1 0x20 ADD PUSH1 0x40 MLOAD SWAP1 DUP2 ADD PUSH1 0x40 MSTORE DUP1 SWAP4 SWAP3 SWAP2 SWAP1 DUP2 DUP2 MSTORE PUSH1 0x20 ADD DUP4 DUP4 DUP1 DUP3 DUP5 CALLDATACOPY PUSH0 DUP2 DUP5 ADD MSTORE PUSH1 0x1F NOT PUSH1 0x1F DUP3 ADD AND SWAP1 POP DUP1 DUP4 ADD SWAP3 POP POP POP POP POP POP POP PUSH2 0x2204 JUMP JUMPDEST DUP3 DUP3 DUP2 MLOAD DUP2 LT PUSH2 0x13F7 JUMPI PUSH2 0x13F6 PUSH2 0x3D38 JUMP JUMPDEST JUMPDEST PUSH1 0x20 MUL PUSH1 0x20 ADD ADD DUP2 SWAP1 MSTORE POP DUP1 DUP1 PUSH1 0x1 ADD SWAP2 POP POP PUSH2 0x1369 JUMP JUMPDEST POP SWAP3 SWAP2 POP POP JUMP JUMPDEST PUSH2 0x1427 PUSH2 0x1421 PUSH2 0x16FE JUMP JUMPDEST DUP4 PUSH2 0x17BB JUMP JUMPDEST PUSH2 0x1466 JUMPI PUSH1 0x40 MLOAD PUSH32 0x8C379A000000000000000000000000000000000000000000000000000000000 DUP2 MSTORE PUSH1 0x4 ADD PUSH2 0x145D SWAP1 PUSH2 0x3755 JUMP JUMPDEST PUSH1 0x40 MLOAD DUP1 SWAP2 SUB SWAP1 REVERT JUMPDEST PUSH2 0x1472 DUP5 DUP5 DUP5 DUP5 PUSH2 0x2231 JUMP JUMPDEST POP POP POP POP JUMP JUMPDEST PUSH1 0x60 PUSH2 0x1483 DUP3 PUSH2 0x16B3 JUMP JUMPDEST PUSH0 PUSH2 0x148C PUSH2 0x228D JUMP JUMPDEST SWAP1 POP PUSH0 DUP2 MLOAD GT PUSH2 0x14AA JUMPI PUSH1 0x40 MLOAD DUP1 PUSH1 0x20 ADD PUSH1 0x40 MSTORE DUP1 PUSH0 DUP2 MSTORE POP PUSH2 0x14D5 JUMP JUMPDEST DUP1 PUSH2 0x14B4 DUP5 PUSH2 0x22A3 JUMP JUMPDEST PUSH1 0x40 MLOAD PUSH1 0x20 ADD PUSH2 0x14C5 SWAP3 SWAP2 SWAP1 PUSH2 0x3E0D JUMP JUMPDEST PUSH1 0x40 MLOAD PUSH1 0x20 DUP2 DUP4 SUB SUB DUP2 MSTORE SWAP1 PUSH1 0x40 MSTORE JUMPDEST SWAP2 POP POP SWAP2 SWAP1 POP JUMP JUMPDEST PUSH0 PUSH1 0x6A PUSH0 DUP5 PUSH20 0xFFFFFFFFFFFFFFFFFFFFFFFFFFFFFFFFFFFFFFFF AND PUSH20 0xFFFFFFFFFFFFFFFFFFFFFFFFFFFFFFFFFFFFFFFF AND DUP2 MSTORE PUSH1 0x20 ADD SWAP1 DUP2 MSTORE PUSH1 0x20 ADD PUSH0 KECCAK256 PUSH0 DUP4 PUSH20 0xFFFFFFFFFFFFFFFFFFFFFFFFFFFFFFFFFFFFFFFF AND PUSH20 0xFFFFFFFFFFFFFFFFFFFFFFFFFFFFFFFFFFFFFFFF AND DUP2 MSTORE PUSH1 0x20 ADD SWAP1 DUP2 MSTORE PUSH1 0x20 ADD PUSH0 KECCAK256 PUSH0 SWAP1 SLOAD SWAP1 PUSH2 0x100 EXP SWAP1 DIV PUSH1 0xFF AND SWAP1 POP SWAP3 SWAP2 POP POP JUMP JUMPDEST PUSH2 0x12F SLOAD DUP2 JUMP JUMPDEST PUSH2 0x157A PUSH2 0x1F04 JUMP JUMPDEST PUSH2 0x1582 PUSH2 0x11E8 JUMP JUMPDEST PUSH20 0xFFFFFFFFFFFFFFFFFFFFFFFFFFFFFFFFFFFFFFFF AND PUSH2 0x8FC DUP3 SWAP1 DUP2 ISZERO MUL SWAP1 PUSH1 0x40 MLOAD PUSH0 PUSH1 0x40 MLOAD DUP1 DUP4 SUB DUP2 DUP6 DUP9 DUP9 CALL SWAP4 POP POP POP POP ISZERO DUP1 ISZERO PUSH2 0x15C4 JUMPI RETURNDATASIZE PUSH0 DUP1 RETURNDATACOPY RETURNDATASIZE PUSH0 REVERT JUMPDEST POP POP JUMP JUMPDEST PUSH2 0x15D0 PUSH2 0x1F04 JUMP JUMPDEST PUSH0 PUSH20 0xFFFFFFFFFFFFFFFFFFFFFFFFFFFFFFFFFFFFFFFF AND DUP2 PUSH20 0xFFFFFFFFFFFFFFFFFFFFFFFFFFFFFFFFFFFFFFFF AND SUB PUSH2 0x163E JUMPI PUSH1 0x40 MLOAD PUSH32 0x8C379A000000000000000000000000000000000000000000000000000000000 DUP2 MSTORE PUSH1 0x4 ADD PUSH2 0x1635 SWAP1 PUSH2 0x3EA0 JUMP JUMPDEST PUSH1 0x40 MLOAD DUP1 SWAP2 SUB SWAP1 REVERT JUMPDEST PUSH2 0x1647 DUP2 PUSH2 0x1F82 JUMP JUMPDEST POP JUMP JUMPDEST PUSH0 PUSH32 0x1FFC9A700000000000000000000000000000000000000000000000000000000 PUSH28 0xFFFFFFFFFFFFFFFFFFFFFFFFFFFFFFFFFFFFFFFFFFFFFFFFFFFFFFFF NOT AND DUP3 PUSH28 0xFFFFFFFFFFFFFFFFFFFFFFFFFFFFFFFFFFFFFFFFFFFFFFFFFFFFFFFF NOT AND EQ SWAP1 POP SWAP2 SWAP1 POP JUMP JUMPDEST PUSH2 0x16BC DUP2 PUSH2 0x2045 JUMP JUMPDEST PUSH2 0x16FB JUMPI PUSH1 0x40 MLOAD PUSH32 0x8C379A000000000000000000000000000000000000000000000000000000000 DUP2 MSTORE PUSH1 0x4 ADD PUSH2 0x16F2 SWAP1 PUSH2 0x3A5C JUMP JUMPDEST PUSH1 0x40 MLOAD DUP1 SWAP2 SUB SWAP1 REVERT JUMPDEST POP JUMP JUMPDEST PUSH0 CALLER SWAP1 POP SWAP1 JUMP JUMPDEST DUP2 PUSH1 0x69 PUSH0 DUP4 DUP2 MSTORE PUSH1 0x20 ADD SWAP1 DUP2 MSTORE PUSH1 0x20 ADD PUSH0 KECCAK256 PUSH0 PUSH2 0x100 EXP DUP2 SLOAD DUP2 PUSH20 0xFFFFFFFFFFFFFFFFFFFFFFFFFFFFFFFFFFFFFFFF MUL NOT AND SWAP1 DUP4 PUSH20 0xFFFFFFFFFFFFFFFFFFFFFFFFFFFFFFFFFFFFFFFF AND MUL OR SWAP1 SSTORE POP DUP1 DUP3 PUSH20 0xFFFFFFFFFFFFFFFFFFFFFFFFFFFFFFFFFFFFFFFF AND PUSH2 0x1775 DUP4 PUSH2 0xF37 JUMP JUMPDEST PUSH20 0xFFFFFFFFFFFFFFFFFFFFFFFFFFFFFFFFFFFFFFFF AND PUSH32 0x8C5BE1E5EBEC7D5BD14F71427D1E84F3DD0314C0F7B2291E5B200AC8C7C3B925 PUSH1 0x40 MLOAD PUSH1 0x40 MLOAD DUP1 SWAP2 SUB SWAP1 LOG4 POP POP JUMP JUMPDEST PUSH0 DUP1 PUSH2 0x17C6 DUP4 PUSH2 0xF37 JUMP JUMPDEST SWAP1 POP DUP1 PUSH20 0xFFFFFFFFFFFFFFFFFFFFFFFFFFFFFFFFFFFFFFFF AND DUP5 PUSH20 0xFFFFFFFFFFFFFFFFFFFFFFFFFFFFFFFFFFFFFFFF AND EQ DUP1 PUSH2 0x1808 JUMPI POP PUSH2 0x1807 DUP2 DUP6 PUSH2 0x14DD JUMP JUMPDEST JUMPDEST DUP1 PUSH2 0x1846 JUMPI POP DUP4 PUSH20 0xFFFFFFFFFFFFFFFFFFFFFFFFFFFFFFFFFFFFFFFF AND PUSH2 0x182E DUP5 PUSH2 0x810 JUMP JUMPDEST PUSH20 0xFFFFFFFFFFFFFFFFFFFFFFFFFFFFFFFFFFFFFFFF AND EQ JUMPDEST SWAP2 POP POP SWAP3 SWAP2 POP POP JUMP JUMPDEST DUP3 PUSH20 0xFFFFFFFFFFFFFFFFFFFFFFFFFFFFFFFFFFFFFFFF AND PUSH2 0x186F DUP3 PUSH2 0xF37 JUMP JUMPDEST PUSH20 0xFFFFFFFFFFFFFFFFFFFFFFFFFFFFFFFFFFFFFFFF AND EQ PUSH2 0x18C5 JUMPI PUSH1 0x40 MLOAD PUSH32 0x8C379A000000000000000000000000000000000000000000000000000000000 DUP2 MSTORE PUSH1 0x4 ADD PUSH2 0x18BC SWAP1 PUSH2 0x3F2E JUMP JUMPDEST PUSH1 0x40 MLOAD DUP1 SWAP2 SUB SWAP1 REVERT JUMPDEST PUSH0 PUSH20 0xFFFFFFFFFFFFFFFFFFFFFFFFFFFFFFFFFFFFFFFF AND DUP3 PUSH20 0xFFFFFFFFFFFFFFFFFFFFFFFFFFFFFFFFFFFFFFFF AND SUB PUSH2 0x1933 JUMPI PUSH1 0x40 MLOAD PUSH32 0x8C379A000000000000000000000000000000000000000000000000000000000 DUP2 MSTORE PUSH1 0x4 ADD PUSH2 0x192A SWAP1 PUSH2 0x3FBC JUMP JUMPDEST PUSH1 0x40 MLOAD DUP1 SWAP2 SUB SWAP1 REVERT JUMPDEST PUSH2 0x1940 DUP4 DUP4 DUP4 PUSH1 0x1 PUSH2 0x236D JUMP JUMPDEST DUP3 PUSH20 0xFFFFFFFFFFFFFFFFFFFFFFFFFFFFFFFFFFFFFFFF AND PUSH2 0x1960 DUP3 PUSH2 0xF37 JUMP JUMPDEST PUSH20 0xFFFFFFFFFFFFFFFFFFFFFFFFFFFFFFFFFFFFFFFF AND EQ PUSH2 0x19B6 JUMPI PUSH1 0x40 MLOAD PUSH32 0x8C379A000000000000000000000000000000000000000000000000000000000 DUP2 MSTORE PUSH1 0x4 ADD PUSH2 0x19AD SWAP1 PUSH2 0x3F2E JUMP JUMPDEST PUSH1 0x40 MLOAD DUP1 SWAP2 SUB SWAP1 REVERT JUMPDEST PUSH1 0x69 PUSH0 DUP3 DUP2 MSTORE PUSH1 0x20 ADD SWAP1 DUP2 MSTORE PUSH1 0x20 ADD PUSH0 KECCAK256 PUSH0 PUSH2 0x100 EXP DUP2 SLOAD SWAP1 PUSH20 0xFFFFFFFFFFFFFFFFFFFFFFFFFFFFFFFFFFFFFFFF MUL NOT AND SWAP1 SSTORE PUSH1 0x1 PUSH1 0x68 PUSH0 DUP6 PUSH20 0xFFFFFFFFFFFFFFFFFFFFFFFFFFFFFFFFFFFFFFFF AND PUSH20 0xFFFFFFFFFFFFFFFFFFFFFFFFFFFFFFFFFFFFFFFF AND DUP2 MSTORE PUSH1 0x20 ADD SWAP1 DUP2 MSTORE PUSH1 0x20 ADD PUSH0 KECCAK256 PUSH0 DUP3 DUP3 SLOAD SUB SWAP3 POP POP DUP2 SWAP1 SSTORE POP PUSH1 0x1 PUSH1 0x68 PUSH0 DUP5 PUSH20 0xFFFFFFFFFFFFFFFFFFFFFFFFFFFFFFFFFFFFFFFF AND PUSH20 0xFFFFFFFFFFFFFFFFFFFFFFFFFFFFFFFFFFFFFFFF AND DUP2 MSTORE PUSH1 0x20 ADD SWAP1 DUP2 MSTORE PUSH1 0x20 ADD PUSH0 KECCAK256 PUSH0 DUP3 DUP3 SLOAD ADD SWAP3 POP POP DUP2 SWAP1 SSTORE POP DUP2 PUSH1 0x67 PUSH0 DUP4 DUP2 MSTORE PUSH1 0x20 ADD SWAP1 DUP2 MSTORE PUSH1 0x20 ADD PUSH0 KECCAK256 PUSH0 PUSH2 0x100 EXP DUP2 SLOAD DUP2 PUSH20 0xFFFFFFFFFFFFFFFFFFFFFFFFFFFFFFFFFFFFFFFF MUL NOT AND SWAP1 DUP4 PUSH20 0xFFFFFFFFFFFFFFFFFFFFFFFFFFFFFFFFFFFFFFFF AND MUL OR SWAP1 SSTORE POP DUP1 DUP3 PUSH20 0xFFFFFFFFFFFFFFFFFFFFFFFFFFFFFFFFFFFFFFFF AND DUP5 PUSH20 0xFFFFFFFFFFFFFFFFFFFFFFFFFFFFFFFFFFFFFFFF AND PUSH32 0xDDF252AD1BE2C89B69C2B068FC378DAA952BA7F163C4A11628F55A4DF523B3EF PUSH1 0x40 MLOAD PUSH1 0x40 MLOAD DUP1 SWAP2 SUB SWAP1 LOG4 PUSH2 0x1B36 DUP4 DUP4 DUP4 PUSH1 0x1 PUSH2 0x2373 JUMP JUMPDEST POP POP POP JUMP JUMPDEST PUSH0 PUSH2 0x1B67 PUSH32 0x360894A13BA1A3210667C828492DB98DCA3E2076CC3735A920A3CA505D382BBC PUSH0 SHL PUSH2 0x2379 JUMP JUMPDEST PUSH0 ADD PUSH0 SWAP1 SLOAD SWAP1 PUSH2 0x100 EXP SWAP1 DIV PUSH20 0xFFFFFFFFFFFFFFFFFFFFFFFFFFFFFFFFFFFFFFFF AND SWAP1 POP SWAP1 JUMP JUMPDEST POP JUMP JUMPDEST PUSH2 0x1BBC PUSH32 0x4910FDFA16FED3260ED0E7147F7CC6DA11A60208B5B9406D12A635614FFD9143 PUSH0 SHL PUSH2 0x2382 JUMP JUMPDEST PUSH0 ADD PUSH0 SWAP1 SLOAD SWAP1 PUSH2 0x100 EXP SWAP1 DIV PUSH1 0xFF AND ISZERO PUSH2 0x1BDE JUMPI PUSH2 0x1BD9 DUP4 PUSH2 0x238B JUMP JUMPDEST PUSH2 0x1CF6 JUMP JUMPDEST DUP3 PUSH20 0xFFFFFFFFFFFFFFFFFFFFFFFFFFFFFFFFFFFFFFFF AND PUSH4 0x52D1902D PUSH1 0x40 MLOAD DUP2 PUSH4 0xFFFFFFFF AND PUSH1 0xE0 SHL DUP2 MSTORE PUSH1 0x4 ADD PUSH1 0x20 PUSH1 0x40 MLOAD DUP1 DUP4 SUB DUP2 DUP7 GAS STATICCALL SWAP3 POP POP POP DUP1 ISZERO PUSH2 0x1C46 JUMPI POP PUSH1 0x40 MLOAD RETURNDATASIZE PUSH1 0x1F NOT PUSH1 0x1F DUP3 ADD AND DUP3 ADD DUP1 PUSH1 0x40 MSTORE POP DUP2 ADD SWAP1 PUSH2 0x1C43 SWAP2 SWAP1 PUSH2 0x3FEE JUMP JUMPDEST PUSH1 0x1 JUMPDEST PUSH2 0x1C85 JUMPI PUSH1 0x40 MLOAD PUSH32 0x8C379A000000000000000000000000000000000000000000000000000000000 DUP2 MSTORE PUSH1 0x4 ADD PUSH2 0x1C7C SWAP1 PUSH2 0x4089 JUMP JUMPDEST PUSH1 0x40 MLOAD DUP1 SWAP2 SUB SWAP1 REVERT JUMPDEST PUSH32 0x360894A13BA1A3210667C828492DB98DCA3E2076CC3735A920A3CA505D382BBC PUSH0 SHL DUP2 EQ PUSH2 0x1CE9 JUMPI PUSH1 0x40 MLOAD PUSH32 0x8C379A000000000000000000000000000000000000000000000000000000000 DUP2 MSTORE PUSH1 0x4 ADD PUSH2 0x1CE0 SWAP1 PUSH2 0x4117 JUMP JUMPDEST PUSH1 0x40 MLOAD DUP1 SWAP2 SUB SWAP1 REVERT JUMPDEST POP PUSH2 0x1CF5 DUP4 DUP4 DUP4 PUSH2 0x2441 JUMP JUMPDEST JUMPDEST POP POP POP JUMP JUMPDEST PUSH0 DUP1 DUP3 PUSH20 0xFFFFFFFFFFFFFFFFFFFFFFFFFFFFFFFFFFFFFFFF AND EXTCODESIZE GT SWAP1 POP SWAP2 SWAP1 POP JUMP JUMPDEST PUSH0 PUSH1 0x1 SWAP1 SLOAD SWAP1 PUSH2 0x100 EXP SWAP1 DIV PUSH1 0xFF AND PUSH2 0x1D6B JUMPI PUSH1 0x40 MLOAD PUSH32 0x8C379A000000000000000000000000000000000000000000000000000000000 DUP2 MSTORE PUSH1 0x4 ADD PUSH2 0x1D62 SWAP1 PUSH2 0x41A5 JUMP JUMPDEST PUSH1 0x40 MLOAD DUP1 SWAP2 SUB SWAP1 REVERT JUMPDEST PUSH2 0x1D75 DUP3 DUP3 PUSH2 0x246C JUMP JUMPDEST POP POP JUMP JUMPDEST PUSH0 PUSH1 0x1 SWAP1 SLOAD SWAP1 PUSH2 0x100 EXP SWAP1 DIV PUSH1 0xFF AND PUSH2 0x1DC7 JUMPI PUSH1 0x40 MLOAD PUSH32 0x8C379A000000000000000000000000000000000000000000000000000000000 DUP2 MSTORE PUSH1 0x4 ADD PUSH2 0x1DBE SWAP1 PUSH2 0x41A5 JUMP JUMPDEST PUSH1 0x40 MLOAD DUP1 SWAP2 SUB SWAP1 REVERT JUMPDEST JUMP JUMPDEST PUSH0 PUSH1 0x1 SWAP1 SLOAD SWAP1 PUSH2 0x100 EXP SWAP1 DIV PUSH1 0xFF AND PUSH2 0x1E17 JUMPI PUSH1 0x40 MLOAD PUSH32 0x8C379A000000000000000000000000000000000000000000000000000000000 DUP2 MSTORE PUSH1 0x4 ADD PUSH2 0x1E0E SWAP1 PUSH2 0x41A5 JUMP JUMPDEST PUSH1 0x40 MLOAD DUP1 SWAP2 SUB SWAP1 REVERT JUMPDEST PUSH2 0x1E1F PUSH2 0x24DE JUMP JUMPDEST JUMP JUMPDEST PUSH0 PUSH1 0x1 SWAP1 SLOAD SWAP1 PUSH2 0x100 EXP SWAP1 DIV PUSH1 0xFF AND PUSH2 0x1E6F JUMPI PUSH1 0x40 MLOAD PUSH32 0x8C379A000000000000000000000000000000000000000000000000000000000 DUP2 MSTORE PUSH1 0x4 ADD PUSH2 0x1E66 SWAP1 PUSH2 0x41A5 JUMP JUMPDEST PUSH1 0x40 MLOAD DUP1 SWAP2 SUB SWAP1 REVERT JUMPDEST JUMP JUMPDEST PUSH0 PUSH1 0x67 PUSH0 DUP4 DUP2 MSTORE PUSH1 0x20 ADD SWAP1 DUP2 MSTORE PUSH1 0x20 ADD PUSH0 KECCAK256 PUSH0 SWAP1 SLOAD SWAP1 PUSH2 0x100 EXP SWAP1 DIV PUSH20 0xFFFFFFFFFFFFFFFFFFFFFFFFFFFFFFFFFFFFFFFF AND SWAP1 POP SWAP2 SWAP1 POP JUMP JUMPDEST PUSH2 0x1EB4 DUP4 DUP4 PUSH2 0x253E JUMP JUMPDEST PUSH2 0x1EC0 PUSH0 DUP5 DUP5 DUP5 PUSH2 0x2751 JUMP JUMPDEST PUSH2 0x1EFF JUMPI PUSH1 0x40 MLOAD PUSH32 0x8C379A000000000000000000000000000000000000000000000000000000000 DUP2 MSTORE PUSH1 0x4 ADD PUSH2 0x1EF6 SWAP1 PUSH2 0x4233 JUMP JUMPDEST PUSH1 0x40 MLOAD DUP1 SWAP2 SUB SWAP1 REVERT JUMPDEST POP POP POP JUMP JUMPDEST PUSH2 0x1F0C PUSH2 0x16FE JUMP JUMPDEST PUSH20 0xFFFFFFFFFFFFFFFFFFFFFFFFFFFFFFFFFFFFFFFF AND PUSH2 0x1F2A PUSH2 0x11E8 JUMP JUMPDEST PUSH20 0xFFFFFFFFFFFFFFFFFFFFFFFFFFFFFFFFFFFFFFFF AND EQ PUSH2 0x1F80 JUMPI PUSH1 0x40 MLOAD PUSH32 0x8C379A000000000000000000000000000000000000000000000000000000000 DUP2 MSTORE PUSH1 0x4 ADD PUSH2 0x1F77 SWAP1 PUSH2 0x429B JUMP JUMPDEST PUSH1 0x40 MLOAD DUP1 SWAP2 SUB SWAP1 REVERT JUMPDEST JUMP JUMPDEST PUSH0 PUSH1 0xFB PUSH0 SWAP1 SLOAD SWAP1 PUSH2 0x100 EXP SWAP1 DIV PUSH20 0xFFFFFFFFFFFFFFFFFFFFFFFFFFFFFFFFFFFFFFFF AND SWAP1 POP DUP2 PUSH1 0xFB PUSH0 PUSH2 0x100 EXP DUP2 SLOAD DUP2 PUSH20 0xFFFFFFFFFFFFFFFFFFFFFFFFFFFFFFFFFFFFFFFF MUL NOT AND SWAP1 DUP4 PUSH20 0xFFFFFFFFFFFFFFFFFFFFFFFFFFFFFFFFFFFFFFFF AND MUL OR SWAP1 SSTORE POP DUP2 PUSH20 0xFFFFFFFFFFFFFFFFFFFFFFFFFFFFFFFFFFFFFFFF AND DUP2 PUSH20 0xFFFFFFFFFFFFFFFFFFFFFFFFFFFFFFFFFFFFFFFF AND PUSH32 0x8BE0079C531659141344CD1FD0A4F28419497F9722A3DAAFE3B4186F6B6457E0 PUSH1 0x40 MLOAD PUSH1 0x40 MLOAD DUP1 SWAP2 SUB SWAP1 LOG3 POP POP JUMP JUMPDEST PUSH0 DUP1 PUSH20 0xFFFFFFFFFFFFFFFFFFFFFFFFFFFFFFFFFFFFFFFF AND PUSH2 0x2066 DUP4 PUSH2 0x1E71 JUMP JUMPDEST PUSH20 0xFFFFFFFFFFFFFFFFFFFFFFFFFFFFFFFFFFFFFFFF AND EQ ISZERO SWAP1 POP SWAP2 SWAP1 POP JUMP JUMPDEST PUSH0 DUP3 PUSH2 0x2092 DUP7 DUP7 DUP6 PUSH2 0x28D3 JUMP JUMPDEST EQ SWAP1 POP SWAP5 SWAP4 POP POP POP POP JUMP JUMPDEST DUP2 PUSH20 0xFFFFFFFFFFFFFFFFFFFFFFFFFFFFFFFFFFFFFFFF AND DUP4 PUSH20 0xFFFFFFFFFFFFFFFFFFFFFFFFFFFFFFFFFFFFFFFF AND SUB PUSH2 0x210B JUMPI PUSH1 0x40 MLOAD PUSH32 0x8C379A000000000000000000000000000000000000000000000000000000000 DUP2 MSTORE PUSH1 0x4 ADD PUSH2 0x2102 SWAP1 PUSH2 0x4303 JUMP JUMPDEST PUSH1 0x40 MLOAD DUP1 SWAP2 SUB SWAP1 REVERT JUMPDEST DUP1 PUSH1 0x6A PUSH0 DUP6 PUSH20 0xFFFFFFFFFFFFFFFFFFFFFFFFFFFFFFFFFFFFFFFF AND PUSH20 0xFFFFFFFFFFFFFFFFFFFFFFFFFFFFFFFFFFFFFFFF AND DUP2 MSTORE PUSH1 0x20 ADD SWAP1 DUP2 MSTORE PUSH1 0x20 ADD PUSH0 KECCAK256 PUSH0 DUP5 PUSH20 0xFFFFFFFFFFFFFFFFFFFFFFFFFFFFFFFFFFFFFFFF AND PUSH20 0xFFFFFFFFFFFFFFFFFFFFFFFFFFFFFFFFFFFFFFFF AND DUP2 MSTORE PUSH1 0x20 ADD SWAP1 DUP2 MSTORE PUSH1 0x20 ADD PUSH0 KECCAK256 PUSH0 PUSH2 0x100 EXP DUP2 SLOAD DUP2 PUSH1 0xFF MUL NOT AND SWAP1 DUP4 ISZERO ISZERO MUL OR SWAP1 SSTORE POP DUP2 PUSH20 0xFFFFFFFFFFFFFFFFFFFFFFFFFFFFFFFFFFFFFFFF AND DUP4 PUSH20 0xFFFFFFFFFFFFFFFFFFFFFFFFFFFFFFFFFFFFFFFF AND PUSH32 0x17307EAB39AB6107E8899845AD3D59BD9653F200F220920489CA2B5937696C31 DUP4 PUSH1 0x40 MLOAD PUSH2 0x21F7 SWAP2 SWAP1 PUSH2 0x2CF1 JUMP JUMPDEST PUSH1 0x40 MLOAD DUP1 SWAP2 SUB SWAP1 LOG3 POP POP POP JUMP JUMPDEST PUSH1 0x60 PUSH2 0x2229 DUP4 DUP4 PUSH1 0x40 MLOAD DUP1 PUSH1 0x60 ADD PUSH1 0x40 MSTORE DUP1 PUSH1 0x27 DUP2 MSTORE PUSH1 0x20 ADD PUSH2 0x4899 PUSH1 0x27 SWAP2 CODECOPY PUSH2 0x2923 JUMP JUMPDEST SWAP1 POP SWAP3 SWAP2 POP POP JUMP JUMPDEST PUSH2 0x223C DUP5 DUP5 DUP5 PUSH2 0x184F JUMP JUMPDEST PUSH2 0x2248 DUP5 DUP5 DUP5 DUP5 PUSH2 0x2751 JUMP JUMPDEST PUSH2 0x2287 JUMPI PUSH1 0x40 MLOAD PUSH32 0x8C379A000000000000000000000000000000000000000000000000000000000 DUP2 MSTORE PUSH1 0x4 ADD PUSH2 0x227E SWAP1 PUSH2 0x4233 JUMP JUMPDEST PUSH1 0x40 MLOAD DUP1 SWAP2 SUB SWAP1 REVERT JUMPDEST POP POP POP POP JUMP JUMPDEST PUSH1 0x60 PUSH1 0x40 MLOAD DUP1 PUSH1 0x20 ADD PUSH1 0x40 MSTORE DUP1 PUSH0 DUP2 MSTORE POP SWAP1 POP SWAP1 JUMP JUMPDEST PUSH1 0x60 PUSH0 PUSH1 0x1 PUSH2 0x22B1 DUP5 PUSH2 0x29A5 JUMP JUMPDEST ADD SWAP1 POP PUSH0 DUP2 PUSH8 0xFFFFFFFFFFFFFFFF DUP2 GT ISZERO PUSH2 0x22CF JUMPI PUSH2 0x22CE PUSH2 0x2F86 JUMP JUMPDEST JUMPDEST PUSH1 0x40 MLOAD SWAP1 DUP1 DUP3 MSTORE DUP1 PUSH1 0x1F ADD PUSH1 0x1F NOT AND PUSH1 0x20 ADD DUP3 ADD PUSH1 0x40 MSTORE DUP1 ISZERO PUSH2 0x2301 JUMPI DUP2 PUSH1 0x20 ADD PUSH1 0x1 DUP3 MUL DUP1 CALLDATASIZE DUP4 CALLDATACOPY DUP1 DUP3 ADD SWAP2 POP POP SWAP1 POP JUMPDEST POP SWAP1 POP PUSH0 DUP3 PUSH1 0x20 ADD DUP3 ADD SWAP1 POP JUMPDEST PUSH1 0x1 ISZERO PUSH2 0x2362 JUMPI DUP1 DUP1 PUSH1 0x1 SWAP1 SUB SWAP2 POP POP PUSH32 0x3031323334353637383961626364656600000000000000000000000000000000 PUSH1 0xA DUP7 MOD BYTE DUP2 MSTORE8 PUSH1 0xA DUP6 DUP2 PUSH2 0x2357 JUMPI PUSH2 0x2356 PUSH2 0x4321 JUMP JUMPDEST JUMPDEST DIV SWAP5 POP PUSH0 DUP6 SUB PUSH2 0x230E JUMPI JUMPDEST DUP2 SWAP4 POP POP POP POP SWAP2 SWAP1 POP JUMP JUMPDEST POP POP POP POP JUMP JUMPDEST POP POP POP POP JUMP JUMPDEST PUSH0 DUP2 SWAP1 POP SWAP2 SWAP1 POP JUMP JUMPDEST PUSH0 DUP2 SWAP1 POP SWAP2 SWAP1 POP JUMP JUMPDEST PUSH2 0x2394 DUP2 PUSH2 0x1CFB JUMP JUMPDEST PUSH2 0x23D3 JUMPI PUSH1 0x40 MLOAD PUSH32 0x8C379A000000000000000000000000000000000000000000000000000000000 DUP2 MSTORE PUSH1 0x4 ADD PUSH2 0x23CA SWAP1 PUSH2 0x43BE JUMP JUMPDEST PUSH1 0x40 MLOAD DUP1 SWAP2 SUB SWAP1 REVERT JUMPDEST DUP1 PUSH2 0x23FF PUSH32 0x360894A13BA1A3210667C828492DB98DCA3E2076CC3735A920A3CA505D382BBC PUSH0 SHL PUSH2 0x2379 JUMP JUMPDEST PUSH0 ADD PUSH0 PUSH2 0x100 EXP DUP2 SLOAD DUP2 PUSH20 0xFFFFFFFFFFFFFFFFFFFFFFFFFFFFFFFFFFFFFFFF MUL NOT AND SWAP1 DUP4 PUSH20 0xFFFFFFFFFFFFFFFFFFFFFFFFFFFFFFFFFFFFFFFF AND MUL OR SWAP1 SSTORE POP POP JUMP JUMPDEST PUSH2 0x244A DUP4 PUSH2 0x2AF6 JUMP JUMPDEST PUSH0 DUP3 MLOAD GT DUP1 PUSH2 0x2456 JUMPI POP DUP1 JUMPDEST ISZERO PUSH2 0x2467 JUMPI PUSH2 0x2465 DUP4 DUP4 PUSH2 0x2204 JUMP JUMPDEST POP JUMPDEST POP POP POP JUMP JUMPDEST PUSH0 PUSH1 0x1 SWAP1 SLOAD SWAP1 PUSH2 0x100 EXP SWAP1 DIV PUSH1 0xFF AND PUSH2 0x24BA JUMPI PUSH1 0x40 MLOAD PUSH32 0x8C379A000000000000000000000000000000000000000000000000000000000 DUP2 MSTORE PUSH1 0x4 ADD PUSH2 0x24B1 SWAP1 PUSH2 0x41A5 JUMP JUMPDEST PUSH1 0x40 MLOAD DUP1 SWAP2 SUB SWAP1 REVERT JUMPDEST DUP2 PUSH1 0x65 SWAP1 DUP2 PUSH2 0x24C9 SWAP2 SWAP1 PUSH2 0x4570 JUMP JUMPDEST POP DUP1 PUSH1 0x66 SWAP1 DUP2 PUSH2 0x24D9 SWAP2 SWAP1 PUSH2 0x4570 JUMP JUMPDEST POP POP POP JUMP JUMPDEST PUSH0 PUSH1 0x1 SWAP1 SLOAD SWAP1 PUSH2 0x100 EXP SWAP1 DIV PUSH1 0xFF AND PUSH2 0x252C JUMPI PUSH1 0x40 MLOAD PUSH32 0x8C379A000000000000000000000000000000000000000000000000000000000 DUP2 MSTORE PUSH1 0x4 ADD PUSH2 0x2523 SWAP1 PUSH2 0x41A5 JUMP JUMPDEST PUSH1 0x40 MLOAD DUP1 SWAP2 SUB SWAP1 REVERT JUMPDEST PUSH2 0x253C PUSH2 0x2537 PUSH2 0x16FE JUMP JUMPDEST PUSH2 0x1F82 JUMP JUMPDEST JUMP JUMPDEST PUSH0 PUSH20 0xFFFFFFFFFFFFFFFFFFFFFFFFFFFFFFFFFFFFFFFF AND DUP3 PUSH20 0xFFFFFFFFFFFFFFFFFFFFFFFFFFFFFFFFFFFFFFFF AND SUB PUSH2 0x25AC JUMPI PUSH1 0x40 MLOAD PUSH32 0x8C379A000000000000000000000000000000000000000000000000000000000 DUP2 MSTORE PUSH1 0x4 ADD PUSH2 0x25A3 SWAP1 PUSH2 0x4689 JUMP JUMPDEST PUSH1 0x40 MLOAD DUP1 SWAP2 SUB SWAP1 REVERT JUMPDEST PUSH2 0x25B5 DUP2 PUSH2 0x2045 JUMP JUMPDEST ISZERO PUSH2 0x25F5 JUMPI PUSH1 0x40 MLOAD PUSH32 0x8C379A000000000000000000000000000000000000000000000000000000000 DUP2 MSTORE PUSH1 0x4 ADD PUSH2 0x25EC SWAP1 PUSH2 0x46F1 JUMP JUMPDEST PUSH1 0x40 MLOAD DUP1 SWAP2 SUB SWAP1 REVERT JUMPDEST PUSH2 0x2602 PUSH0 DUP4 DUP4 PUSH1 0x1 PUSH2 0x236D JUMP JUMPDEST PUSH2 0x260B DUP2 PUSH2 0x2045 JUMP JUMPDEST ISZERO PUSH2 0x264B JUMPI PUSH1 0x40 MLOAD PUSH32 0x8C379A000000000000000000000000000000000000000000000000000000000 DUP2 MSTORE PUSH1 0x4 ADD PUSH2 0x2642 SWAP1 PUSH2 0x46F1 JUMP JUMPDEST PUSH1 0x40 MLOAD DUP1 SWAP2 SUB SWAP1 REVERT JUMPDEST PUSH1 0x1 PUSH1 0x68 PUSH0 DUP5 PUSH20 0xFFFFFFFFFFFFFFFFFFFFFFFFFFFFFFFFFFFFFFFF AND PUSH20 0xFFFFFFFFFFFFFFFFFFFFFFFFFFFFFFFFFFFFFFFF AND DUP2 MSTORE PUSH1 0x20 ADD SWAP1 DUP2 MSTORE PUSH1 0x20 ADD PUSH0 KECCAK256 PUSH0 DUP3 DUP3 SLOAD ADD SWAP3 POP POP DUP2 SWAP1 SSTORE POP DUP2 PUSH1 0x67 PUSH0 DUP4 DUP2 MSTORE PUSH1 0x20 ADD SWAP1 DUP2 MSTORE PUSH1 0x20 ADD PUSH0 KECCAK256 PUSH0 PUSH2 0x100 EXP DUP2 SLOAD DUP2 PUSH20 0xFFFFFFFFFFFFFFFFFFFFFFFFFFFFFFFFFFFFFFFF MUL NOT AND SWAP1 DUP4 PUSH20 0xFFFFFFFFFFFFFFFFFFFFFFFFFFFFFFFFFFFFFFFF AND MUL OR SWAP1 SSTORE POP DUP1 DUP3 PUSH20 0xFFFFFFFFFFFFFFFFFFFFFFFFFFFFFFFFFFFFFFFF AND PUSH0 PUSH20 0xFFFFFFFFFFFFFFFFFFFFFFFFFFFFFFFFFFFFFFFF AND PUSH32 0xDDF252AD1BE2C89B69C2B068FC378DAA952BA7F163C4A11628F55A4DF523B3EF PUSH1 0x40 MLOAD PUSH1 0x40 MLOAD DUP1 SWAP2 SUB SWAP1 LOG4 PUSH2 0x274D PUSH0 DUP4 DUP4 PUSH1 0x1 PUSH2 0x2373 JUMP JUMPDEST POP POP JUMP JUMPDEST PUSH0 PUSH2 0x2771 DUP5 PUSH20 0xFFFFFFFFFFFFFFFFFFFFFFFFFFFFFFFFFFFFFFFF AND PUSH2 0x1CFB JUMP JUMPDEST ISZERO PUSH2 0x28C6 JUMPI DUP4 PUSH20 0xFFFFFFFFFFFFFFFFFFFFFFFFFFFFFFFFFFFFFFFF AND PUSH4 0x150B7A02 PUSH2 0x279A PUSH2 0x16FE JUMP JUMPDEST DUP8 DUP7 DUP7 PUSH1 0x40 MLOAD DUP6 PUSH4 0xFFFFFFFF AND PUSH1 0xE0 SHL DUP2 MSTORE PUSH1 0x4 ADD PUSH2 0x27BC SWAP5 SWAP4 SWAP3 SWAP2 SWAP1 PUSH2 0x4757 JUMP JUMPDEST PUSH1 0x20 PUSH1 0x40 MLOAD DUP1 DUP4 SUB DUP2 PUSH0 DUP8 GAS CALL SWAP3 POP POP POP DUP1 ISZERO PUSH2 0x27F7 JUMPI POP PUSH1 0x40 MLOAD RETURNDATASIZE PUSH1 0x1F NOT PUSH1 0x1F DUP3 ADD AND DUP3 ADD DUP1 PUSH1 0x40 MSTORE POP DUP2 ADD SWAP1 PUSH2 0x27F4 SWAP2 SWAP1 PUSH2 0x47B5 JUMP JUMPDEST PUSH1 0x1 JUMPDEST PUSH2 0x2876 JUMPI RETURNDATASIZE DUP1 PUSH0 DUP2 EQ PUSH2 0x2825 JUMPI PUSH1 0x40 MLOAD SWAP2 POP PUSH1 0x1F NOT PUSH1 0x3F RETURNDATASIZE ADD AND DUP3 ADD PUSH1 0x40 MSTORE RETURNDATASIZE DUP3 MSTORE RETURNDATASIZE PUSH0 PUSH1 0x20 DUP5 ADD RETURNDATACOPY PUSH2 0x282A JUMP JUMPDEST PUSH1 0x60 SWAP2 POP JUMPDEST POP PUSH0 DUP2 MLOAD SUB PUSH2 0x286E JUMPI PUSH1 0x40 MLOAD PUSH32 0x8C379A000000000000000000000000000000000000000000000000000000000 DUP2 MSTORE PUSH1 0x4 ADD PUSH2 0x2865 SWAP1 PUSH2 0x4233 JUMP JUMPDEST PUSH1 0x40 MLOAD DUP1 SWAP2 SUB SWAP1 REVERT JUMPDEST DUP1 MLOAD DUP2 PUSH1 0x20 ADD REVERT JUMPDEST PUSH4 0x150B7A02 PUSH1 0xE0 SHL PUSH28 0xFFFFFFFFFFFFFFFFFFFFFFFFFFFFFFFFFFFFFFFFFFFFFFFFFFFFFFFF NOT AND DUP2 PUSH28 0xFFFFFFFFFFFFFFFFFFFFFFFFFFFFFFFFFFFFFFFFFFFFFFFFFFFFFFFF NOT AND EQ SWAP2 POP POP PUSH2 0x28CB JUMP JUMPDEST PUSH1 0x1 SWAP1 POP JUMPDEST SWAP5 SWAP4 POP POP POP POP JUMP JUMPDEST PUSH0 DUP1 DUP3 SWAP1 POP PUSH0 JUMPDEST DUP6 DUP6 SWAP1 POP DUP2 LT ISZERO PUSH2 0x2917 JUMPI PUSH2 0x2908 DUP3 DUP8 DUP8 DUP5 DUP2 DUP2 LT PUSH2 0x28FC JUMPI PUSH2 0x28FB PUSH2 0x3D38 JUMP JUMPDEST JUMPDEST SWAP1 POP PUSH1 0x20 MUL ADD CALLDATALOAD PUSH2 0x2B45 JUMP JUMPDEST SWAP2 POP DUP1 DUP1 PUSH1 0x1 ADD SWAP2 POP POP PUSH2 0x28DA JUMP JUMPDEST POP DUP1 SWAP2 POP POP SWAP4 SWAP3 POP POP POP JUMP JUMPDEST PUSH1 0x60 PUSH0 DUP1 DUP6 PUSH20 0xFFFFFFFFFFFFFFFFFFFFFFFFFFFFFFFFFFFFFFFF AND DUP6 PUSH1 0x40 MLOAD PUSH2 0x294C SWAP2 SWAP1 PUSH2 0x481A JUMP JUMPDEST PUSH0 PUSH1 0x40 MLOAD DUP1 DUP4 SUB DUP2 DUP6 GAS DELEGATECALL SWAP2 POP POP RETURNDATASIZE DUP1 PUSH0 DUP2 EQ PUSH2 0x2984 JUMPI PUSH1 0x40 MLOAD SWAP2 POP PUSH1 0x1F NOT PUSH1 0x3F RETURNDATASIZE ADD AND DUP3 ADD PUSH1 0x40 MSTORE RETURNDATASIZE DUP3 MSTORE RETURNDATASIZE PUSH0 PUSH1 0x20 DUP5 ADD RETURNDATACOPY PUSH2 0x2989 JUMP JUMPDEST PUSH1 0x60 SWAP2 POP JUMPDEST POP SWAP2 POP SWAP2 POP PUSH2 0x299A DUP7 DUP4 DUP4 DUP8 PUSH2 0x2B6F JUMP JUMPDEST SWAP3 POP POP POP SWAP4 SWAP3 POP POP POP JUMP JUMPDEST PUSH0 DUP1 PUSH0 SWAP1 POP PUSH27 0x184F03E93FF9F4DAA797ED6E38ED64BF6A1F010000000000000000 DUP4 LT PUSH2 0x2A01 JUMPI PUSH27 0x184F03E93FF9F4DAA797ED6E38ED64BF6A1F010000000000000000 DUP4 DUP2 PUSH2 0x29F7 JUMPI PUSH2 0x29F6 PUSH2 0x4321 JUMP JUMPDEST JUMPDEST DIV SWAP3 POP PUSH1 0x40 DUP2 ADD SWAP1 POP JUMPDEST PUSH14 0x4EE2D6D415B85ACEF8100000000 DUP4 LT PUSH2 0x2A3E JUMPI PUSH14 0x4EE2D6D415B85ACEF8100000000 DUP4 DUP2 PUSH2 0x2A34 JUMPI PUSH2 0x2A33 PUSH2 0x4321 JUMP JUMPDEST JUMPDEST DIV SWAP3 POP PUSH1 0x20 DUP2 ADD SWAP1 POP JUMPDEST PUSH7 0x2386F26FC10000 DUP4 LT PUSH2 0x2A6D JUMPI PUSH7 0x2386F26FC10000 DUP4 DUP2 PUSH2 0x2A63 JUMPI PUSH2 0x2A62 PUSH2 0x4321 JUMP JUMPDEST JUMPDEST DIV SWAP3 POP PUSH1 0x10 DUP2 ADD SWAP1 POP JUMPDEST PUSH4 0x5F5E100 DUP4 LT PUSH2 0x2A96 JUMPI PUSH4 0x5F5E100 DUP4 DUP2 PUSH2 0x2A8C JUMPI PUSH2 0x2A8B PUSH2 0x4321 JUMP JUMPDEST JUMPDEST DIV SWAP3 POP PUSH1 0x8 DUP2 ADD SWAP1 POP JUMPDEST PUSH2 0x2710 DUP4 LT PUSH2 0x2ABB JUMPI PUSH2 0x2710 DUP4 DUP2 PUSH2 0x2AB1 JUMPI PUSH2 0x2AB0 PUSH2 0x4321 JUMP JUMPDEST JUMPDEST DIV SWAP3 POP PUSH1 0x4 DUP2 ADD SWAP1 POP JUMPDEST PUSH1 0x64 DUP4 LT PUSH2 0x2ADE JUMPI PUSH1 0x64 DUP4 DUP2 PUSH2 0x2AD4 JUMPI PUSH2 0x2AD3 PUSH2 0x4321 JUMP JUMPDEST JUMPDEST DIV SWAP3 POP PUSH1 0x2 DUP2 ADD SWAP1 POP JUMPDEST PUSH1 0xA DUP4 LT PUSH2 0x2AED JUMPI PUSH1 0x1 DUP2 ADD SWAP1 POP JUMPDEST DUP1 SWAP2 POP POP SWAP2 SWAP1 POP JUMP JUMPDEST PUSH2 0x2AFF DUP2 PUSH2 0x238B JUMP JUMPDEST DUP1 PUSH20 0xFFFFFFFFFFFFFFFFFFFFFFFFFFFFFFFFFFFFFFFF AND PUSH32 0xBC7CD75A20EE27FD9ADEBAB32041F755214DBC6BFFA90CC0225B39DA2E5C2D3B PUSH1 0x40 MLOAD PUSH1 0x40 MLOAD DUP1 SWAP2 SUB SWAP1 LOG2 POP JUMP JUMPDEST PUSH0 DUP2 DUP4 LT PUSH2 0x2B5C JUMPI PUSH2 0x2B57 DUP3 DUP5 PUSH2 0x2BE3 JUMP JUMPDEST PUSH2 0x2B67 JUMP JUMPDEST PUSH2 0x2B66 DUP4 DUP4 PUSH2 0x2BE3 JUMP JUMPDEST JUMPDEST SWAP1 POP SWAP3 SWAP2 POP POP JUMP JUMPDEST PUSH1 0x60 DUP4 ISZERO PUSH2 0x2BD0 JUMPI PUSH0 DUP4 MLOAD SUB PUSH2 0x2BC8 JUMPI PUSH2 0x2B88 DUP6 PUSH2 0x1CFB JUMP JUMPDEST PUSH2 0x2BC7 JUMPI PUSH1 0x40 MLOAD PUSH32 0x8C379A000000000000000000000000000000000000000000000000000000000 DUP2 MSTORE PUSH1 0x4 ADD PUSH2 0x2BBE SWAP1 PUSH2 0x487A JUMP JUMPDEST PUSH1 0x40 MLOAD DUP1 SWAP2 SUB SWAP1 REVERT JUMPDEST JUMPDEST DUP3 SWAP1 POP PUSH2 0x2BDB JUMP JUMPDEST PUSH2 0x2BDA DUP4 DUP4 PUSH2 0x2BF7 JUMP JUMPDEST JUMPDEST SWAP5 SWAP4 POP POP POP POP JUMP JUMPDEST PUSH0 DUP3 PUSH0 MSTORE DUP2 PUSH1 0x20 MSTORE PUSH1 0x40 PUSH0 KECCAK256 SWAP1 POP SWAP3 SWAP2 POP POP JUMP JUMPDEST PUSH0 DUP3 MLOAD GT ISZERO PUSH2 0x2C09 JUMPI DUP2 MLOAD DUP1 DUP4 PUSH1 0x20 ADD REVERT JUMPDEST DUP1 PUSH1 0x40 MLOAD PUSH32 0x8C379A000000000000000000000000000000000000000000000000000000000 DUP2 MSTORE PUSH1 0x4 ADD PUSH2 0x2C3D SWAP2 SWAP1 PUSH2 0x2D94 JUMP JUMPDEST PUSH1 0x40 MLOAD DUP1 SWAP2 SUB SWAP1 REVERT JUMPDEST PUSH0 PUSH1 0x40 MLOAD SWAP1 POP SWAP1 JUMP JUMPDEST PUSH0 DUP1 REVERT JUMPDEST PUSH0 DUP1 REVERT JUMPDEST PUSH0 PUSH32 0xFFFFFFFF00000000000000000000000000000000000000000000000000000000 DUP3 AND SWAP1 POP SWAP2 SWAP1 POP JUMP JUMPDEST PUSH2 0x2C8B DUP2 PUSH2 0x2C57 JUMP JUMPDEST DUP2 EQ PUSH2 0x2C95 JUMPI PUSH0 DUP1 REVERT JUMPDEST POP JUMP JUMPDEST PUSH0 DUP2 CALLDATALOAD SWAP1 POP PUSH2 0x2CA6 DUP2 PUSH2 0x2C82 JUMP JUMPDEST SWAP3 SWAP2 POP POP JUMP JUMPDEST PUSH0 PUSH1 0x20 DUP3 DUP5 SUB SLT ISZERO PUSH2 0x2CC1 JUMPI PUSH2 0x2CC0 PUSH2 0x2C4F JUMP JUMPDEST JUMPDEST PUSH0 PUSH2 0x2CCE DUP5 DUP3 DUP6 ADD PUSH2 0x2C98 JUMP JUMPDEST SWAP2 POP POP SWAP3 SWAP2 POP POP JUMP JUMPDEST PUSH0 DUP2 ISZERO ISZERO SWAP1 POP SWAP2 SWAP1 POP JUMP JUMPDEST PUSH2 0x2CEB DUP2 PUSH2 0x2CD7 JUMP JUMPDEST DUP3 MSTORE POP POP JUMP JUMPDEST PUSH0 PUSH1 0x20 DUP3 ADD SWAP1 POP PUSH2 0x2D04 PUSH0 DUP4 ADD DUP5 PUSH2 0x2CE2 JUMP JUMPDEST SWAP3 SWAP2 POP POP JUMP JUMPDEST PUSH0 DUP2 MLOAD SWAP1 POP SWAP2 SWAP1 POP JUMP JUMPDEST PUSH0 DUP3 DUP3 MSTORE PUSH1 0x20 DUP3 ADD SWAP1 POP SWAP3 SWAP2 POP POP JUMP JUMPDEST PUSH0 JUMPDEST DUP4 DUP2 LT ISZERO PUSH2 0x2D41 JUMPI DUP1 DUP3 ADD MLOAD DUP2 DUP5 ADD MSTORE PUSH1 0x20 DUP2 ADD SWAP1 POP PUSH2 0x2D26 JUMP JUMPDEST PUSH0 DUP5 DUP5 ADD MSTORE POP POP POP POP JUMP JUMPDEST PUSH0 PUSH1 0x1F NOT PUSH1 0x1F DUP4 ADD AND SWAP1 POP SWAP2 SWAP1 POP JUMP JUMPDEST PUSH0 PUSH2 0x2D66 DUP3 PUSH2 0x2D0A JUMP JUMPDEST PUSH2 0x2D70 DUP2 DUP6 PUSH2 0x2D14 JUMP JUMPDEST SWAP4 POP PUSH2 0x2D80 DUP2 DUP6 PUSH1 0x20 DUP7 ADD PUSH2 0x2D24 JUMP JUMPDEST PUSH2 0x2D89 DUP2 PUSH2 0x2D4C JUMP JUMPDEST DUP5 ADD SWAP2 POP POP SWAP3 SWAP2 POP POP JUMP JUMPDEST PUSH0 PUSH1 0x20 DUP3 ADD SWAP1 POP DUP2 DUP2 SUB PUSH0 DUP4 ADD MSTORE PUSH2 0x2DAC DUP2 DUP5 PUSH2 0x2D5C JUMP JUMPDEST SWAP1 POP SWAP3 SWAP2 POP POP JUMP JUMPDEST PUSH0 DUP2 SWAP1 POP SWAP2 SWAP1 POP JUMP JUMPDEST PUSH2 0x2DC6 DUP2 PUSH2 0x2DB4 JUMP JUMPDEST DUP2 EQ PUSH2 0x2DD0 JUMPI PUSH0 DUP1 REVERT JUMPDEST POP JUMP JUMPDEST PUSH0 DUP2 CALLDATALOAD SWAP1 POP PUSH2 0x2DE1 DUP2 PUSH2 0x2DBD JUMP JUMPDEST SWAP3 SWAP2 POP POP JUMP JUMPDEST PUSH0 PUSH1 0x20 DUP3 DUP5 SUB SLT ISZERO PUSH2 0x2DFC JUMPI PUSH2 0x2DFB PUSH2 0x2C4F JUMP JUMPDEST JUMPDEST PUSH0 PUSH2 0x2E09 DUP5 DUP3 DUP6 ADD PUSH2 0x2DD3 JUMP JUMPDEST SWAP2 POP POP SWAP3 SWAP2 POP POP JUMP JUMPDEST PUSH0 PUSH20 0xFFFFFFFFFFFFFFFFFFFFFFFFFFFFFFFFFFFFFFFF DUP3 AND SWAP1 POP SWAP2 SWAP1 POP JUMP JUMPDEST PUSH0 PUSH2 0x2E3B DUP3 PUSH2 0x2E12 JUMP JUMPDEST SWAP1 POP SWAP2 SWAP1 POP JUMP JUMPDEST PUSH2 0x2E4B DUP2 PUSH2 0x2E31 JUMP JUMPDEST DUP3 MSTORE POP POP JUMP JUMPDEST PUSH0 PUSH1 0x20 DUP3 ADD SWAP1 POP PUSH2 0x2E64 PUSH0 DUP4 ADD DUP5 PUSH2 0x2E42 JUMP JUMPDEST SWAP3 SWAP2 POP POP JUMP JUMPDEST PUSH2 0x2E73 DUP2 PUSH2 0x2E31 JUMP JUMPDEST DUP2 EQ PUSH2 0x2E7D JUMPI PUSH0 DUP1 REVERT JUMPDEST POP JUMP JUMPDEST PUSH0 DUP2 CALLDATALOAD SWAP1 POP PUSH2 0x2E8E DUP2 PUSH2 0x2E6A JUMP JUMPDEST SWAP3 SWAP2 POP POP JUMP JUMPDEST PUSH0 DUP1 PUSH1 0x40 DUP4 DUP6 SUB SLT ISZERO PUSH2 0x2EAA JUMPI PUSH2 0x2EA9 PUSH2 0x2C4F JUMP JUMPDEST JUMPDEST PUSH0 PUSH2 0x2EB7 DUP6 DUP3 DUP7 ADD PUSH2 0x2E80 JUMP JUMPDEST SWAP3 POP POP PUSH1 0x20 PUSH2 0x2EC8 DUP6 DUP3 DUP7 ADD PUSH2 0x2DD3 JUMP JUMPDEST SWAP2 POP POP SWAP3 POP SWAP3 SWAP1 POP JUMP JUMPDEST PUSH0 DUP1 PUSH0 PUSH1 0x60 DUP5 DUP7 SUB SLT ISZERO PUSH2 0x2EE9 JUMPI PUSH2 0x2EE8 PUSH2 0x2C4F JUMP JUMPDEST JUMPDEST PUSH0 PUSH2 0x2EF6 DUP7 DUP3 DUP8 ADD PUSH2 0x2E80 JUMP JUMPDEST SWAP4 POP POP PUSH1 0x20 PUSH2 0x2F07 DUP7 DUP3 DUP8 ADD PUSH2 0x2E80 JUMP JUMPDEST SWAP3 POP POP PUSH1 0x40 PUSH2 0x2F18 DUP7 DUP3 DUP8 ADD PUSH2 0x2DD3 JUMP JUMPDEST SWAP2 POP POP SWAP3 POP SWAP3 POP SWAP3 JUMP JUMPDEST PUSH0 DUP2 SWAP1 POP SWAP2 SWAP1 POP JUMP JUMPDEST PUSH2 0x2F34 DUP2 PUSH2 0x2F22 JUMP JUMPDEST DUP3 MSTORE POP POP JUMP JUMPDEST PUSH0 PUSH1 0x20 DUP3 ADD SWAP1 POP PUSH2 0x2F4D PUSH0 DUP4 ADD DUP5 PUSH2 0x2F2B JUMP JUMPDEST SWAP3 SWAP2 POP POP JUMP JUMPDEST PUSH0 PUSH1 0x20 DUP3 DUP5 SUB SLT ISZERO PUSH2 0x2F68 JUMPI PUSH2 0x2F67 PUSH2 0x2C4F JUMP JUMPDEST JUMPDEST PUSH0 PUSH2 0x2F75 DUP5 DUP3 DUP6 ADD PUSH2 0x2E80 JUMP JUMPDEST SWAP2 POP POP SWAP3 SWAP2 POP POP JUMP JUMPDEST PUSH0 DUP1 REVERT JUMPDEST PUSH0 DUP1 REVERT JUMPDEST PUSH32 0x4E487B7100000000000000000000000000000000000000000000000000000000 PUSH0 MSTORE PUSH1 0x41 PUSH1 0x4 MSTORE PUSH1 0x24 PUSH0 REVERT JUMPDEST PUSH2 0x2FBC DUP3 PUSH2 0x2D4C JUMP JUMPDEST DUP2 ADD DUP2 DUP2 LT PUSH8 0xFFFFFFFFFFFFFFFF DUP3 GT OR ISZERO PUSH2 0x2FDB JUMPI PUSH2 0x2FDA PUSH2 0x2F86 JUMP JUMPDEST JUMPDEST DUP1 PUSH1 0x40 MSTORE POP POP POP JUMP JUMPDEST PUSH0 PUSH2 0x2FED PUSH2 0x2C46 JUMP JUMPDEST SWAP1 POP PUSH2 0x2FF9 DUP3 DUP3 PUSH2 0x2FB3 JUMP JUMPDEST SWAP2 SWAP1 POP JUMP JUMPDEST PUSH0 PUSH8 0xFFFFFFFFFFFFFFFF DUP3 GT ISZERO PUSH2 0x3018 JUMPI PUSH2 0x3017 PUSH2 0x2F86 JUMP JUMPDEST JUMPDEST PUSH2 0x3021 DUP3 PUSH2 0x2D4C JUMP JUMPDEST SWAP1 POP PUSH1 0x20 DUP2 ADD SWAP1 POP SWAP2 SWAP1 POP JUMP JUMPDEST DUP3 DUP2 DUP4 CALLDATACOPY PUSH0 DUP4 DUP4 ADD MSTORE POP POP POP JUMP JUMPDEST PUSH0 PUSH2 0x304E PUSH2 0x3049 DUP5 PUSH2 0x2FFE JUMP JUMPDEST PUSH2 0x2FE4 JUMP JUMPDEST SWAP1 POP DUP3 DUP2 MSTORE PUSH1 0x20 DUP2 ADD DUP5 DUP5 DUP5 ADD GT ISZERO PUSH2 0x306A JUMPI PUSH2 0x3069 PUSH2 0x2F82 JUMP JUMPDEST JUMPDEST PUSH2 0x3075 DUP5 DUP3 DUP6 PUSH2 0x302E JUMP JUMPDEST POP SWAP4 SWAP3 POP POP POP JUMP JUMPDEST PUSH0 DUP3 PUSH1 0x1F DUP4 ADD SLT PUSH2 0x3091 JUMPI PUSH2 0x3090 PUSH2 0x2F7E JUMP JUMPDEST JUMPDEST DUP2 CALLDATALOAD PUSH2 0x30A1 DUP5 DUP3 PUSH1 0x20 DUP7 ADD PUSH2 0x303C JUMP JUMPDEST SWAP2 POP POP SWAP3 SWAP2 POP POP JUMP JUMPDEST PUSH0 DUP1 PUSH1 0x40 DUP4 DUP6 SUB SLT ISZERO PUSH2 0x30C0 JUMPI PUSH2 0x30BF PUSH2 0x2C4F JUMP JUMPDEST JUMPDEST PUSH0 PUSH2 0x30CD DUP6 DUP3 DUP7 ADD PUSH2 0x2E80 JUMP JUMPDEST SWAP3 POP POP PUSH1 0x20 DUP4 ADD CALLDATALOAD PUSH8 0xFFFFFFFFFFFFFFFF DUP2 GT ISZERO PUSH2 0x30EE JUMPI PUSH2 0x30ED PUSH2 0x2C53 JUMP JUMPDEST JUMPDEST PUSH2 0x30FA DUP6 DUP3 DUP7 ADD PUSH2 0x307D JUMP JUMPDEST SWAP2 POP POP SWAP3 POP SWAP3 SWAP1 POP JUMP JUMPDEST PUSH2 0x310D DUP2 PUSH2 0x2F22 JUMP JUMPDEST DUP2 EQ PUSH2 0x3117 JUMPI PUSH0 DUP1 REVERT JUMPDEST POP JUMP JUMPDEST PUSH0 DUP2 CALLDATALOAD SWAP1 POP PUSH2 0x3128 DUP2 PUSH2 0x3104 JUMP JUMPDEST SWAP3 SWAP2 POP POP JUMP JUMPDEST PUSH0 DUP1 PUSH1 0x40 DUP4 DUP6 SUB SLT ISZERO PUSH2 0x3144 JUMPI PUSH2 0x3143 PUSH2 0x2C4F JUMP JUMPDEST JUMPDEST PUSH0 PUSH2 0x3151 DUP6 DUP3 DUP7 ADD PUSH2 0x311A JUMP JUMPDEST SWAP3 POP POP PUSH1 0x20 PUSH2 0x3162 DUP6 DUP3 DUP7 ADD PUSH2 0x2DD3 JUMP JUMPDEST SWAP2 POP POP SWAP3 POP SWAP3 SWAP1 POP JUMP JUMPDEST PUSH2 0x3175 DUP2 PUSH2 0x2DB4 JUMP JUMPDEST DUP3 MSTORE POP POP JUMP JUMPDEST PUSH0 PUSH1 0x20 DUP3 ADD SWAP1 POP PUSH2 0x318E PUSH0 DUP4 ADD DUP5 PUSH2 0x316C JUMP JUMPDEST SWAP3 SWAP2 POP POP JUMP JUMPDEST PUSH0 PUSH1 0x20 DUP3 DUP5 SUB SLT ISZERO PUSH2 0x31A9 JUMPI PUSH2 0x31A8 PUSH2 0x2C4F JUMP JUMPDEST JUMPDEST PUSH0 PUSH2 0x31B6 DUP5 DUP3 DUP6 ADD PUSH2 0x311A JUMP JUMPDEST SWAP2 POP POP SWAP3 SWAP2 POP POP JUMP JUMPDEST PUSH0 DUP1 REVERT JUMPDEST PUSH0 DUP1 REVERT JUMPDEST PUSH0 DUP1 DUP4 PUSH1 0x1F DUP5 ADD SLT PUSH2 0x31DC JUMPI PUSH2 0x31DB PUSH2 0x2F7E JUMP JUMPDEST JUMPDEST DUP3 CALLDATALOAD SWAP1 POP PUSH8 0xFFFFFFFFFFFFFFFF DUP2 GT ISZERO PUSH2 0x31F9 JUMPI PUSH2 0x31F8 PUSH2 0x31BF JUMP JUMPDEST JUMPDEST PUSH1 0x20 DUP4 ADD SWAP2 POP DUP4 PUSH1 0x20 DUP3 MUL DUP4 ADD GT ISZERO PUSH2 0x3215 JUMPI PUSH2 0x3214 PUSH2 0x31C3 JUMP JUMPDEST JUMPDEST SWAP3 POP SWAP3 SWAP1 POP JUMP JUMPDEST PUSH0 DUP1 PUSH0 PUSH1 0x40 DUP5 DUP7 SUB SLT ISZERO PUSH2 0x3233 JUMPI PUSH2 0x3232 PUSH2 0x2C4F JUMP JUMPDEST JUMPDEST PUSH0 PUSH2 0x3240 DUP7 DUP3 DUP8 ADD PUSH2 0x2DD3 JUMP JUMPDEST SWAP4 POP POP PUSH1 0x20 DUP5 ADD CALLDATALOAD PUSH8 0xFFFFFFFFFFFFFFFF DUP2 GT ISZERO PUSH2 0x3261 JUMPI PUSH2 0x3260 PUSH2 0x2C53 JUMP JUMPDEST JUMPDEST PUSH2 0x326D DUP7 DUP3 DUP8 ADD PUSH2 0x31C7 JUMP JUMPDEST SWAP3 POP SWAP3 POP POP SWAP3 POP SWAP3 POP SWAP3 JUMP JUMPDEST PUSH2 0x3282 DUP2 PUSH2 0x2CD7 JUMP JUMPDEST DUP2 EQ PUSH2 0x328C JUMPI PUSH0 DUP1 REVERT JUMPDEST POP JUMP JUMPDEST PUSH0 DUP2 CALLDATALOAD SWAP1 POP PUSH2 0x329D DUP2 PUSH2 0x3279 JUMP JUMPDEST SWAP3 SWAP2 POP POP JUMP JUMPDEST PUSH0 DUP1 PUSH1 0x40 DUP4 DUP6 SUB SLT ISZERO PUSH2 0x32B9 JUMPI PUSH2 0x32B8 PUSH2 0x2C4F JUMP JUMPDEST JUMPDEST PUSH0 PUSH2 0x32C6 DUP6 DUP3 DUP7 ADD PUSH2 0x2E80 JUMP JUMPDEST SWAP3 POP POP PUSH1 0x20 PUSH2 0x32D7 DUP6 DUP3 DUP7 ADD PUSH2 0x328F JUMP JUMPDEST SWAP2 POP POP SWAP3 POP SWAP3 SWAP1 POP JUMP JUMPDEST PUSH0 DUP1 DUP4 PUSH1 0x1F DUP5 ADD SLT PUSH2 0x32F6 JUMPI PUSH2 0x32F5 PUSH2 0x2F7E JUMP JUMPDEST JUMPDEST DUP3 CALLDATALOAD SWAP1 POP PUSH8 0xFFFFFFFFFFFFFFFF DUP2 GT ISZERO PUSH2 0x3313 JUMPI PUSH2 0x3312 PUSH2 0x31BF JUMP JUMPDEST JUMPDEST PUSH1 0x20 DUP4 ADD SWAP2 POP DUP4 PUSH1 0x20 DUP3 MUL DUP4 ADD GT ISZERO PUSH2 0x332F JUMPI PUSH2 0x332E PUSH2 0x31C3 JUMP JUMPDEST JUMPDEST SWAP3 POP SWAP3 SWAP1 POP JUMP JUMPDEST PUSH0 DUP1 PUSH1 0x20 DUP4 DUP6 SUB SLT ISZERO PUSH2 0x334C JUMPI PUSH2 0x334B PUSH2 0x2C4F JUMP JUMPDEST JUMPDEST PUSH0 DUP4 ADD CALLDATALOAD PUSH8 0xFFFFFFFFFFFFFFFF DUP2 GT ISZERO PUSH2 0x3369 JUMPI PUSH2 0x3368 PUSH2 0x2C53 JUMP JUMPDEST JUMPDEST PUSH2 0x3375 DUP6 DUP3 DUP7 ADD PUSH2 0x32E1 JUMP JUMPDEST SWAP3 POP SWAP3 POP POP SWAP3 POP SWAP3 SWAP1 POP JUMP JUMPDEST PUSH0 DUP2 MLOAD SWAP1 POP SWAP2 SWAP1 POP JUMP JUMPDEST PUSH0 DUP3 DUP3 MSTORE PUSH1 0x20 DUP3 ADD SWAP1 POP SWAP3 SWAP2 POP POP JUMP JUMPDEST PUSH0 DUP2 SWAP1 POP PUSH1 0x20 DUP3 ADD SWAP1 POP SWAP2 SWAP1 POP JUMP JUMPDEST PUSH0 DUP2 MLOAD SWAP1 POP SWAP2 SWAP1 POP JUMP JUMPDEST PUSH0 DUP3 DUP3 MSTORE PUSH1 0x20 DUP3 ADD SWAP1 POP SWAP3 SWAP2 POP POP JUMP JUMPDEST PUSH0 PUSH2 0x33CE DUP3 PUSH2 0x33AA JUMP JUMPDEST PUSH2 0x33D8 DUP2 DUP6 PUSH2 0x33B4 JUMP JUMPDEST SWAP4 POP PUSH2 0x33E8 DUP2 DUP6 PUSH1 0x20 DUP7 ADD PUSH2 0x2D24 JUMP JUMPDEST PUSH2 0x33F1 DUP2 PUSH2 0x2D4C JUMP JUMPDEST DUP5 ADD SWAP2 POP POP SWAP3 SWAP2 POP POP JUMP JUMPDEST PUSH0 PUSH2 0x3407 DUP4 DUP4 PUSH2 0x33C4 JUMP JUMPDEST SWAP1 POP SWAP3 SWAP2 POP POP JUMP JUMPDEST PUSH0 PUSH1 0x20 DUP3 ADD SWAP1 POP SWAP2 SWAP1 POP JUMP JUMPDEST PUSH0 PUSH2 0x3425 DUP3 PUSH2 0x3381 JUMP JUMPDEST PUSH2 0x342F DUP2 DUP6 PUSH2 0x338B JUMP JUMPDEST SWAP4 POP DUP4 PUSH1 0x20 DUP3 MUL DUP6 ADD PUSH2 0x3441 DUP6 PUSH2 0x339B JUMP JUMPDEST DUP1 PUSH0 JUMPDEST DUP6 DUP2 LT ISZERO PUSH2 0x347C JUMPI DUP5 DUP5 SUB DUP10 MSTORE DUP2 MLOAD PUSH2 0x345D DUP6 DUP3 PUSH2 0x33FC JUMP JUMPDEST SWAP5 POP PUSH2 0x3468 DUP4 PUSH2 0x340F JUMP JUMPDEST SWAP3 POP PUSH1 0x20 DUP11 ADD SWAP10 POP POP PUSH1 0x1 DUP2 ADD SWAP1 POP PUSH2 0x3444 JUMP JUMPDEST POP DUP3 SWAP8 POP DUP8 SWAP6 POP POP POP POP POP POP SWAP3 SWAP2 POP POP JUMP JUMPDEST PUSH0 PUSH1 0x20 DUP3 ADD SWAP1 POP DUP2 DUP2 SUB PUSH0 DUP4 ADD MSTORE PUSH2 0x34A6 DUP2 DUP5 PUSH2 0x341B JUMP JUMPDEST SWAP1 POP SWAP3 SWAP2 POP POP JUMP JUMPDEST PUSH0 DUP1 PUSH0 DUP1 PUSH1 0x80 DUP6 DUP8 SUB SLT ISZERO PUSH2 0x34C6 JUMPI PUSH2 0x34C5 PUSH2 0x2C4F JUMP JUMPDEST JUMPDEST PUSH0 PUSH2 0x34D3 DUP8 DUP3 DUP9 ADD PUSH2 0x2E80 JUMP JUMPDEST SWAP5 POP POP PUSH1 0x20 PUSH2 0x34E4 DUP8 DUP3 DUP9 ADD PUSH2 0x2E80 JUMP JUMPDEST SWAP4 POP POP PUSH1 0x40 PUSH2 0x34F5 DUP8 DUP3 DUP9 ADD PUSH2 0x2DD3 JUMP JUMPDEST SWAP3 POP POP PUSH1 0x60 DUP6 ADD CALLDATALOAD PUSH8 0xFFFFFFFFFFFFFFFF DUP2 GT ISZERO PUSH2 0x3516 JUMPI PUSH2 0x3515 PUSH2 0x2C53 JUMP JUMPDEST JUMPDEST PUSH2 0x3522 DUP8 DUP3 DUP9 ADD PUSH2 0x307D JUMP JUMPDEST SWAP2 POP POP SWAP3 SWAP6 SWAP2 SWAP5 POP SWAP3 POP JUMP JUMPDEST PUSH0 DUP1 PUSH1 0x40 DUP4 DUP6 SUB SLT ISZERO PUSH2 0x3544 JUMPI PUSH2 0x3543 PUSH2 0x2C4F JUMP JUMPDEST JUMPDEST PUSH0 PUSH2 0x3551 DUP6 DUP3 DUP7 ADD PUSH2 0x2E80 JUMP JUMPDEST SWAP3 POP POP PUSH1 0x20 PUSH2 0x3562 DUP6 DUP3 DUP7 ADD PUSH2 0x2E80 JUMP JUMPDEST SWAP2 POP POP SWAP3 POP SWAP3 SWAP1 POP JUMP JUMPDEST PUSH32 0x4E487B7100000000000000000000000000000000000000000000000000000000 PUSH0 MSTORE PUSH1 0x22 PUSH1 0x4 MSTORE PUSH1 0x24 PUSH0 REVERT JUMPDEST PUSH0 PUSH1 0x2 DUP3 DIV SWAP1 POP PUSH1 0x1 DUP3 AND DUP1 PUSH2 0x35B0 JUMPI PUSH1 0x7F DUP3 AND SWAP2 POP JUMPDEST PUSH1 0x20 DUP3 LT DUP2 SUB PUSH2 0x35C3 JUMPI PUSH2 0x35C2 PUSH2 0x356C JUMP JUMPDEST JUMPDEST POP SWAP2 SWAP1 POP JUMP JUMPDEST PUSH32 0x4552433732313A20617070726F76616C20746F2063757272656E74206F776E65 PUSH0 DUP3 ADD MSTORE PUSH32 0x7200000000000000000000000000000000000000000000000000000000000000 PUSH1 0x20 DUP3 ADD MSTORE POP JUMP JUMPDEST PUSH0 PUSH2 0x3623 PUSH1 0x21 DUP4 PUSH2 0x2D14 JUMP JUMPDEST SWAP2 POP PUSH2 0x362E DUP3 PUSH2 0x35C9 JUMP JUMPDEST PUSH1 0x40 DUP3 ADD SWAP1 POP SWAP2 SWAP1 POP JUMP JUMPDEST PUSH0 PUSH1 0x20 DUP3 ADD SWAP1 POP DUP2 DUP2 SUB PUSH0 DUP4 ADD MSTORE PUSH2 0x3650 DUP2 PUSH2 0x3617 JUMP JUMPDEST SWAP1 POP SWAP2 SWAP1 POP JUMP JUMPDEST PUSH32 0x4552433732313A20617070726F76652063616C6C6572206973206E6F7420746F PUSH0 DUP3 ADD MSTORE PUSH32 0x6B656E206F776E6572206F7220617070726F76656420666F7220616C6C000000 PUSH1 0x20 DUP3 ADD MSTORE POP JUMP JUMPDEST PUSH0 PUSH2 0x36B1 PUSH1 0x3D DUP4 PUSH2 0x2D14 JUMP JUMPDEST SWAP2 POP PUSH2 0x36BC DUP3 PUSH2 0x3657 JUMP JUMPDEST PUSH1 0x40 DUP3 ADD SWAP1 POP SWAP2 SWAP1 POP JUMP JUMPDEST PUSH0 PUSH1 0x20 DUP3 ADD SWAP1 POP DUP2 DUP2 SUB PUSH0 DUP4 ADD MSTORE PUSH2 0x36DE DUP2 PUSH2 0x36A5 JUMP JUMPDEST SWAP1 POP SWAP2 SWAP1 POP JUMP JUMPDEST PUSH32 0x4552433732313A2063616C6C6572206973206E6F7420746F6B656E206F776E65 PUSH0 DUP3 ADD MSTORE PUSH32 0x72206F7220617070726F76656400000000000000000000000000000000000000 PUSH1 0x20 DUP3 ADD MSTORE POP JUMP JUMPDEST PUSH0 PUSH2 0x373F PUSH1 0x2D DUP4 PUSH2 0x2D14 JUMP JUMPDEST SWAP2 POP PUSH2 0x374A DUP3 PUSH2 0x36E5 JUMP JUMPDEST PUSH1 0x40 DUP3 ADD SWAP1 POP SWAP2 SWAP1 POP JUMP JUMPDEST PUSH0 PUSH1 0x20 DUP3 ADD SWAP1 POP DUP2 DUP2 SUB PUSH0 DUP4 ADD MSTORE PUSH2 0x376C DUP2 PUSH2 0x3733 JUMP JUMPDEST SWAP1 POP SWAP2 SWAP1 POP JUMP JUMPDEST PUSH32 0x46756E6374696F6E206D7573742062652063616C6C6564207468726F75676820 PUSH0 DUP3 ADD MSTORE PUSH32 0x64656C656761746563616C6C0000000000000000000000000000000000000000 PUSH1 0x20 DUP3 ADD MSTORE POP JUMP JUMPDEST PUSH0 PUSH2 0x37CD PUSH1 0x2C DUP4 PUSH2 0x2D14 JUMP JUMPDEST SWAP2 POP PUSH2 0x37D8 DUP3 PUSH2 0x3773 JUMP JUMPDEST PUSH1 0x40 DUP3 ADD SWAP1 POP SWAP2 SWAP1 POP JUMP JUMPDEST PUSH0 PUSH1 0x20 DUP3 ADD SWAP1 POP DUP2 DUP2 SUB PUSH0 DUP4 ADD MSTORE PUSH2 0x37FA DUP2 PUSH2 0x37C1 JUMP JUMPDEST SWAP1 POP SWAP2 SWAP1 POP JUMP JUMPDEST PUSH32 0x46756E6374696F6E206D7573742062652063616C6C6564207468726F75676820 PUSH0 DUP3 ADD MSTORE PUSH32 0x6163746976652070726F78790000000000000000000000000000000000000000 PUSH1 0x20 DUP3 ADD MSTORE POP JUMP JUMPDEST PUSH0 PUSH2 0x385B PUSH1 0x2C DUP4 PUSH2 0x2D14 JUMP JUMPDEST SWAP2 POP PUSH2 0x3866 DUP3 PUSH2 0x3801 JUMP JUMPDEST PUSH1 0x40 DUP3 ADD SWAP1 POP SWAP2 SWAP1 POP JUMP JUMPDEST PUSH0 PUSH1 0x20 DUP3 ADD SWAP1 POP DUP2 DUP2 SUB PUSH0 DUP4 ADD MSTORE PUSH2 0x3888 DUP2 PUSH2 0x384F JUMP JUMPDEST SWAP1 POP SWAP2 SWAP1 POP JUMP JUMPDEST PUSH32 0x555550535570677261646561626C653A206D757374206E6F742062652063616C PUSH0 DUP3 ADD MSTORE PUSH32 0x6C6564207468726F7567682064656C656761746563616C6C0000000000000000 PUSH1 0x20 DUP3 ADD MSTORE POP JUMP JUMPDEST PUSH0 PUSH2 0x38E9 PUSH1 0x38 DUP4 PUSH2 0x2D14 JUMP JUMPDEST SWAP2 POP PUSH2 0x38F4 DUP3 PUSH2 0x388F JUMP JUMPDEST PUSH1 0x40 DUP3 ADD SWAP1 POP SWAP2 SWAP1 POP JUMP JUMPDEST PUSH0 PUSH1 0x20 DUP3 ADD SWAP1 POP DUP2 DUP2 SUB PUSH0 DUP4 ADD MSTORE PUSH2 0x3916 DUP2 PUSH2 0x38DD JUMP JUMPDEST SWAP1 POP SWAP2 SWAP1 POP JUMP JUMPDEST PUSH32 0x496E697469616C697A61626C653A20636F6E747261637420697320616C726561 PUSH0 DUP3 ADD MSTORE PUSH32 0x647920696E697469616C697A6564000000000000000000000000000000000000 PUSH1 0x20 DUP3 ADD MSTORE POP JUMP JUMPDEST PUSH0 PUSH2 0x3977 PUSH1 0x2E DUP4 PUSH2 0x2D14 JUMP JUMPDEST SWAP2 POP PUSH2 0x3982 DUP3 PUSH2 0x391D JUMP JUMPDEST PUSH1 0x40 DUP3 ADD SWAP1 POP SWAP2 SWAP1 POP JUMP JUMPDEST PUSH0 PUSH1 0x20 DUP3 ADD SWAP1 POP DUP2 DUP2 SUB PUSH0 DUP4 ADD MSTORE PUSH2 0x39A4 DUP2 PUSH2 0x396B JUMP JUMPDEST SWAP1 POP SWAP2 SWAP1 POP JUMP JUMPDEST PUSH0 DUP2 SWAP1 POP SWAP2 SWAP1 POP JUMP JUMPDEST PUSH0 PUSH1 0xFF DUP3 AND SWAP1 POP SWAP2 SWAP1 POP JUMP JUMPDEST PUSH0 DUP2 SWAP1 POP SWAP2 SWAP1 POP JUMP JUMPDEST PUSH0 PUSH2 0x39E3 PUSH2 0x39DE PUSH2 0x39D9 DUP5 PUSH2 0x39AB JUMP JUMPDEST PUSH2 0x39C0 JUMP JUMPDEST PUSH2 0x39B4 JUMP JUMPDEST SWAP1 POP SWAP2 SWAP1 POP JUMP JUMPDEST PUSH2 0x39F3 DUP2 PUSH2 0x39C9 JUMP JUMPDEST DUP3 MSTORE POP POP JUMP JUMPDEST PUSH0 PUSH1 0x20 DUP3 ADD SWAP1 POP PUSH2 0x3A0C PUSH0 DUP4 ADD DUP5 PUSH2 0x39EA JUMP JUMPDEST SWAP3 SWAP2 POP POP JUMP JUMPDEST PUSH32 0x4552433732313A20696E76616C696420746F6B656E2049440000000000000000 PUSH0 DUP3 ADD MSTORE POP JUMP JUMPDEST PUSH0 PUSH2 0x3A46 PUSH1 0x18 DUP4 PUSH2 0x2D14 JUMP JUMPDEST SWAP2 POP PUSH2 0x3A51 DUP3 PUSH2 0x3A12 JUMP JUMPDEST PUSH1 0x20 DUP3 ADD SWAP1 POP SWAP2 SWAP1 POP JUMP JUMPDEST PUSH0 PUSH1 0x20 DUP3 ADD SWAP1 POP DUP2 DUP2 SUB PUSH0 DUP4 ADD MSTORE PUSH2 0x3A73 DUP2 PUSH2 0x3A3A JUMP JUMPDEST SWAP1 POP SWAP2 SWAP1 POP JUMP JUMPDEST PUSH32 0x496E76616C696420507269636500000000000000000000000000000000000000 PUSH0 DUP3 ADD MSTORE POP JUMP JUMPDEST PUSH0 PUSH2 0x3AAE PUSH1 0xD DUP4 PUSH2 0x2D14 JUMP JUMPDEST SWAP2 POP PUSH2 0x3AB9 DUP3 PUSH2 0x3A7A JUMP JUMPDEST PUSH1 0x20 DUP3 ADD SWAP1 POP SWAP2 SWAP1 POP JUMP JUMPDEST PUSH0 PUSH1 0x20 DUP3 ADD SWAP1 POP DUP2 DUP2 SUB PUSH0 DUP4 ADD MSTORE PUSH2 0x3ADB DUP2 PUSH2 0x3AA2 JUMP JUMPDEST SWAP1 POP SWAP2 SWAP1 POP JUMP JUMPDEST PUSH32 0x4552433732313A2061646472657373207A65726F206973206E6F742061207661 PUSH0 DUP3 ADD MSTORE PUSH32 0x6C6964206F776E65720000000000000000000000000000000000000000000000 PUSH1 0x20 DUP3 ADD MSTORE POP JUMP JUMPDEST PUSH0 PUSH2 0x3B3C PUSH1 0x29 DUP4 PUSH2 0x2D14 JUMP JUMPDEST SWAP2 POP PUSH2 0x3B47 DUP3 PUSH2 0x3AE2 JUMP JUMPDEST PUSH1 0x40 DUP3 ADD SWAP1 POP SWAP2 SWAP1 POP JUMP JUMPDEST PUSH0 PUSH1 0x20 DUP3 ADD SWAP1 POP DUP2 DUP2 SUB PUSH0 DUP4 ADD MSTORE PUSH2 0x3B69 DUP2 PUSH2 0x3B30 JUMP JUMPDEST SWAP1 POP SWAP2 SWAP1 POP JUMP JUMPDEST PUSH32 0x546F6B656E20616C7265616479206D696E746564000000000000000000000000 PUSH0 DUP3 ADD MSTORE POP JUMP JUMPDEST PUSH0 PUSH2 0x3BA4 PUSH1 0x14 DUP4 PUSH2 0x2D14 JUMP JUMPDEST SWAP2 POP PUSH2 0x3BAF DUP3 PUSH2 0x3B70 JUMP JUMPDEST PUSH1 0x20 DUP3 ADD SWAP1 POP SWAP2 SWAP1 POP JUMP JUMPDEST PUSH0 PUSH1 0x20 DUP3 ADD SWAP1 POP DUP2 DUP2 SUB PUSH0 DUP4 ADD MSTORE PUSH2 0x3BD1 DUP2 PUSH2 0x3B98 JUMP JUMPDEST SWAP1 POP SWAP2 SWAP1 POP JUMP JUMPDEST PUSH0 DUP2 PUSH1 0x60 SHL SWAP1 POP SWAP2 SWAP1 POP JUMP JUMPDEST PUSH0 PUSH2 0x3BEE DUP3 PUSH2 0x3BD8 JUMP JUMPDEST SWAP1 POP SWAP2 SWAP1 POP JUMP JUMPDEST PUSH0 PUSH2 0x3BFF DUP3 PUSH2 0x3BE4 JUMP JUMPDEST SWAP1 POP SWAP2 SWAP1 POP JUMP JUMPDEST PUSH2 0x3C17 PUSH2 0x3C12 DUP3 PUSH2 0x2E31 JUMP JUMPDEST PUSH2 0x3BF5 JUMP JUMPDEST DUP3 MSTORE POP POP JUMP JUMPDEST PUSH0 DUP2 SWAP1 POP SWAP2 SWAP1 POP JUMP JUMPDEST PUSH2 0x3C37 PUSH2 0x3C32 DUP3 PUSH2 0x2DB4 JUMP JUMPDEST PUSH2 0x3C1D JUMP JUMPDEST DUP3 MSTORE POP POP JUMP JUMPDEST PUSH0 PUSH2 0x3C48 DUP3 DUP6 PUSH2 0x3C06 JUMP JUMPDEST PUSH1 0x14 DUP3 ADD SWAP2 POP PUSH2 0x3C58 DUP3 DUP5 PUSH2 0x3C26 JUMP JUMPDEST PUSH1 0x20 DUP3 ADD SWAP2 POP DUP2 SWAP1 POP SWAP4 SWAP3 POP POP POP JUMP JUMPDEST PUSH32 0x496E76616C69642070726F6F662E000000000000000000000000000000000000 PUSH0 DUP3 ADD MSTORE POP JUMP JUMPDEST PUSH0 PUSH2 0x3C9C PUSH1 0xE DUP4 PUSH2 0x2D14 JUMP JUMPDEST SWAP2 POP PUSH2 0x3CA7 DUP3 PUSH2 0x3C68 JUMP JUMPDEST PUSH1 0x20 DUP3 ADD SWAP1 POP SWAP2 SWAP1 POP JUMP JUMPDEST PUSH0 PUSH1 0x20 DUP3 ADD SWAP1 POP DUP2 DUP2 SUB PUSH0 DUP4 ADD MSTORE PUSH2 0x3CC9 DUP2 PUSH2 0x3C90 JUMP JUMPDEST SWAP1 POP SWAP2 SWAP1 POP JUMP JUMPDEST PUSH32 0x50726963652063616E6E6F742062652030000000000000000000000000000000 PUSH0 DUP3 ADD MSTORE POP JUMP JUMPDEST PUSH0 PUSH2 0x3D04 PUSH1 0x11 DUP4 PUSH2 0x2D14 JUMP JUMPDEST SWAP2 POP PUSH2 0x3D0F DUP3 PUSH2 0x3CD0 JUMP JUMPDEST PUSH1 0x20 DUP3 ADD SWAP1 POP SWAP2 SWAP1 POP JUMP JUMPDEST PUSH0 PUSH1 0x20 DUP3 ADD SWAP1 POP DUP2 DUP2 SUB PUSH0 DUP4 ADD MSTORE PUSH2 0x3D31 DUP2 PUSH2 0x3CF8 JUMP JUMPDEST SWAP1 POP SWAP2 SWAP1 POP JUMP JUMPDEST PUSH32 0x4E487B7100000000000000000000000000000000000000000000000000000000 PUSH0 MSTORE PUSH1 0x32 PUSH1 0x4 MSTORE PUSH1 0x24 PUSH0 REVERT JUMPDEST PUSH0 DUP1 REVERT JUMPDEST PUSH0 DUP1 REVERT JUMPDEST PUSH0 DUP1 REVERT JUMPDEST PUSH0 DUP1 DUP4 CALLDATALOAD PUSH1 0x1 PUSH1 0x20 SUB DUP5 CALLDATASIZE SUB SUB DUP2 SLT PUSH2 0x3D8D JUMPI PUSH2 0x3D8C PUSH2 0x3D65 JUMP JUMPDEST JUMPDEST DUP1 DUP5 ADD SWAP3 POP DUP3 CALLDATALOAD SWAP2 POP PUSH8 0xFFFFFFFFFFFFFFFF DUP3 GT ISZERO PUSH2 0x3DAF JUMPI PUSH2 0x3DAE PUSH2 0x3D69 JUMP JUMPDEST JUMPDEST PUSH1 0x20 DUP4 ADD SWAP3 POP PUSH1 0x1 DUP3 MUL CALLDATASIZE SUB DUP4 SGT ISZERO PUSH2 0x3DCB JUMPI PUSH2 0x3DCA PUSH2 0x3D6D JUMP JUMPDEST JUMPDEST POP SWAP3 POP SWAP3 SWAP1 POP JUMP JUMPDEST PUSH0 DUP2 SWAP1 POP SWAP3 SWAP2 POP POP JUMP JUMPDEST PUSH0 PUSH2 0x3DE7 DUP3 PUSH2 0x2D0A JUMP JUMPDEST PUSH2 0x3DF1 DUP2 DUP6 PUSH2 0x3DD3 JUMP JUMPDEST SWAP4 POP PUSH2 0x3E01 DUP2 DUP6 PUSH1 0x20 DUP7 ADD PUSH2 0x2D24 JUMP JUMPDEST DUP1 DUP5 ADD SWAP2 POP POP SWAP3 SWAP2 POP POP JUMP JUMPDEST PUSH0 PUSH2 0x3E18 DUP3 DUP6 PUSH2 0x3DDD JUMP JUMPDEST SWAP2 POP PUSH2 0x3E24 DUP3 DUP5 PUSH2 0x3DDD JUMP JUMPDEST SWAP2 POP DUP2 SWAP1 POP SWAP4 SWAP3 POP POP POP JUMP JUMPDEST PUSH32 0x4F776E61626C653A206E6577206F776E657220697320746865207A65726F2061 PUSH0 DUP3 ADD MSTORE PUSH32 0x6464726573730000000000000000000000000000000000000000000000000000 PUSH1 0x20 DUP3 ADD MSTORE POP JUMP JUMPDEST PUSH0 PUSH2 0x3E8A PUSH1 0x26 DUP4 PUSH2 0x2D14 JUMP JUMPDEST SWAP2 POP PUSH2 0x3E95 DUP3 PUSH2 0x3E30 JUMP JUMPDEST PUSH1 0x40 DUP3 ADD SWAP1 POP SWAP2 SWAP1 POP JUMP JUMPDEST PUSH0 PUSH1 0x20 DUP3 ADD SWAP1 POP DUP2 DUP2 SUB PUSH0 DUP4 ADD MSTORE PUSH2 0x3EB7 DUP2 PUSH2 0x3E7E JUMP JUMPDEST SWAP1 POP SWAP2 SWAP1 POP JUMP JUMPDEST PUSH32 0x4552433732313A207472616E736665722066726F6D20696E636F727265637420 PUSH0 DUP3 ADD MSTORE PUSH32 0x6F776E6572000000000000000000000000000000000000000000000000000000 PUSH1 0x20 DUP3 ADD MSTORE POP JUMP JUMPDEST PUSH0 PUSH2 0x3F18 PUSH1 0x25 DUP4 PUSH2 0x2D14 JUMP JUMPDEST SWAP2 POP PUSH2 0x3F23 DUP3 PUSH2 0x3EBE JUMP JUMPDEST PUSH1 0x40 DUP3 ADD SWAP1 POP SWAP2 SWAP1 POP JUMP JUMPDEST PUSH0 PUSH1 0x20 DUP3 ADD SWAP1 POP DUP2 DUP2 SUB PUSH0 DUP4 ADD MSTORE PUSH2 0x3F45 DUP2 PUSH2 0x3F0C JUMP JUMPDEST SWAP1 POP SWAP2 SWAP1 POP JUMP JUMPDEST PUSH32 0x4552433732313A207472616E7366657220746F20746865207A65726F20616464 PUSH0 DUP3 ADD MSTORE PUSH32 0x7265737300000000000000000000000000000000000000000000000000000000 PUSH1 0x20 DUP3 ADD MSTORE POP JUMP JUMPDEST PUSH0 PUSH2 0x3FA6 PUSH1 0x24 DUP4 PUSH2 0x2D14 JUMP JUMPDEST SWAP2 POP PUSH2 0x3FB1 DUP3 PUSH2 0x3F4C JUMP JUMPDEST PUSH1 0x40 DUP3 ADD SWAP1 POP SWAP2 SWAP1 POP JUMP JUMPDEST PUSH0 PUSH1 0x20 DUP3 ADD SWAP1 POP DUP2 DUP2 SUB PUSH0 DUP4 ADD MSTORE PUSH2 0x3FD3 DUP2 PUSH2 0x3F9A JUMP JUMPDEST SWAP1 POP SWAP2 SWAP1 POP JUMP JUMPDEST PUSH0 DUP2 MLOAD SWAP1 POP PUSH2 0x3FE8 DUP2 PUSH2 0x3104 JUMP JUMPDEST SWAP3 SWAP2 POP POP JUMP JUMPDEST PUSH0 PUSH1 0x20 DUP3 DUP5 SUB SLT ISZERO PUSH2 0x4003 JUMPI PUSH2 0x4002 PUSH2 0x2C4F JUMP JUMPDEST JUMPDEST PUSH0 PUSH2 0x4010 DUP5 DUP3 DUP6 ADD PUSH2 0x3FDA JUMP JUMPDEST SWAP2 POP POP SWAP3 SWAP2 POP POP JUMP JUMPDEST PUSH32 0x45524331393637557067726164653A206E657720696D706C656D656E74617469 PUSH0 DUP3 ADD MSTORE PUSH32 0x6F6E206973206E6F742055555053000000000000000000000000000000000000 PUSH1 0x20 DUP3 ADD MSTORE POP JUMP JUMPDEST PUSH0 PUSH2 0x4073 PUSH1 0x2E DUP4 PUSH2 0x2D14 JUMP JUMPDEST SWAP2 POP PUSH2 0x407E DUP3 PUSH2 0x4019 JUMP JUMPDEST PUSH1 0x40 DUP3 ADD SWAP1 POP SWAP2 SWAP1 POP JUMP JUMPDEST PUSH0 PUSH1 0x20 DUP3 ADD SWAP1 POP DUP2 DUP2 SUB PUSH0 DUP4 ADD MSTORE PUSH2 0x40A0 DUP2 PUSH2 0x4067 JUMP JUMPDEST SWAP1 POP SWAP2 SWAP1 POP JUMP JUMPDEST PUSH32 0x45524331393637557067726164653A20756E737570706F727465642070726F78 PUSH0 DUP3 ADD MSTORE PUSH32 0x6961626C65555549440000000000000000000000000000000000000000000000 PUSH1 0x20 DUP3 ADD MSTORE POP JUMP JUMPDEST PUSH0 PUSH2 0x4101 PUSH1 0x29 DUP4 PUSH2 0x2D14 JUMP JUMPDEST SWAP2 POP PUSH2 0x410C DUP3 PUSH2 0x40A7 JUMP JUMPDEST PUSH1 0x40 DUP3 ADD SWAP1 POP SWAP2 SWAP1 POP JUMP JUMPDEST PUSH0 PUSH1 0x20 DUP3 ADD SWAP1 POP DUP2 DUP2 SUB PUSH0 DUP4 ADD MSTORE PUSH2 0x412E DUP2 PUSH2 0x40F5 JUMP JUMPDEST SWAP1 POP SWAP2 SWAP1 POP JUMP JUMPDEST PUSH32 0x496E697469616C697A61626C653A20636F6E7472616374206973206E6F742069 PUSH0 DUP3 ADD MSTORE PUSH32 0x6E697469616C697A696E67000000000000000000000000000000000000000000 PUSH1 0x20 DUP3 ADD MSTORE POP JUMP JUMPDEST PUSH0 PUSH2 0x418F PUSH1 0x2B DUP4 PUSH2 0x2D14 JUMP JUMPDEST SWAP2 POP PUSH2 0x419A DUP3 PUSH2 0x4135 JUMP JUMPDEST PUSH1 0x40 DUP3 ADD SWAP1 POP SWAP2 SWAP1 POP JUMP JUMPDEST PUSH0 PUSH1 0x20 DUP3 ADD SWAP1 POP DUP2 DUP2 SUB PUSH0 DUP4 ADD MSTORE PUSH2 0x41BC DUP2 PUSH2 0x4183 JUMP JUMPDEST SWAP1 POP SWAP2 SWAP1 POP JUMP JUMPDEST PUSH32 0x4552433732313A207472616E7366657220746F206E6F6E204552433732315265 PUSH0 DUP3 ADD MSTORE PUSH32 0x63656976657220696D706C656D656E7465720000000000000000000000000000 PUSH1 0x20 DUP3 ADD MSTORE POP JUMP JUMPDEST PUSH0 PUSH2 0x421D PUSH1 0x32 DUP4 PUSH2 0x2D14 JUMP JUMPDEST SWAP2 POP PUSH2 0x4228 DUP3 PUSH2 0x41C3 JUMP JUMPDEST PUSH1 0x40 DUP3 ADD SWAP1 POP SWAP2 SWAP1 POP JUMP JUMPDEST PUSH0 PUSH1 0x20 DUP3 ADD SWAP1 POP DUP2 DUP2 SUB PUSH0 DUP4 ADD MSTORE PUSH2 0x424A DUP2 PUSH2 0x4211 JUMP JUMPDEST SWAP1 POP SWAP2 SWAP1 POP JUMP JUMPDEST PUSH32 0x4F776E61626C653A2063616C6C6572206973206E6F7420746865206F776E6572 PUSH0 DUP3 ADD MSTORE POP JUMP JUMPDEST PUSH0 PUSH2 0x4285 PUSH1 0x20 DUP4 PUSH2 0x2D14 JUMP JUMPDEST SWAP2 POP PUSH2 0x4290 DUP3 PUSH2 0x4251 JUMP JUMPDEST PUSH1 0x20 DUP3 ADD SWAP1 POP SWAP2 SWAP1 POP JUMP JUMPDEST PUSH0 PUSH1 0x20 DUP3 ADD SWAP1 POP DUP2 DUP2 SUB PUSH0 DUP4 ADD MSTORE PUSH2 0x42B2 DUP2 PUSH2 0x4279 JUMP JUMPDEST SWAP1 POP SWAP2 SWAP1 POP JUMP JUMPDEST PUSH32 0x4552433732313A20617070726F766520746F2063616C6C657200000000000000 PUSH0 DUP3 ADD MSTORE POP JUMP JUMPDEST PUSH0 PUSH2 0x42ED PUSH1 0x19 DUP4 PUSH2 0x2D14 JUMP JUMPDEST SWAP2 POP PUSH2 0x42F8 DUP3 PUSH2 0x42B9 JUMP JUMPDEST PUSH1 0x20 DUP3 ADD SWAP1 POP SWAP2 SWAP1 POP JUMP JUMPDEST PUSH0 PUSH1 0x20 DUP3 ADD SWAP1 POP DUP2 DUP2 SUB PUSH0 DUP4 ADD MSTORE PUSH2 0x431A DUP2 PUSH2 0x42E1 JUMP JUMPDEST SWAP1 POP SWAP2 SWAP1 POP JUMP JUMPDEST PUSH32 0x4E487B7100000000000000000000000000000000000000000000000000000000 PUSH0 MSTORE PUSH1 0x12 PUSH1 0x4 MSTORE PUSH1 0x24 PUSH0 REVERT JUMPDEST PUSH32 0x455243313936373A206E657720696D706C656D656E746174696F6E206973206E PUSH0 DUP3 ADD MSTORE PUSH32 0x6F74206120636F6E747261637400000000000000000000000000000000000000 PUSH1 0x20 DUP3 ADD MSTORE POP JUMP JUMPDEST PUSH0 PUSH2 0x43A8 PUSH1 0x2D DUP4 PUSH2 0x2D14 JUMP JUMPDEST SWAP2 POP PUSH2 0x43B3 DUP3 PUSH2 0x434E JUMP JUMPDEST PUSH1 0x40 DUP3 ADD SWAP1 POP SWAP2 SWAP1 POP JUMP JUMPDEST PUSH0 PUSH1 0x20 DUP3 ADD SWAP1 POP DUP2 DUP2 SUB PUSH0 DUP4 ADD MSTORE PUSH2 0x43D5 DUP2 PUSH2 0x439C JUMP JUMPDEST SWAP1 POP SWAP2 SWAP1 POP JUMP JUMPDEST PUSH0 DUP2 SWAP1 POP DUP2 PUSH0 MSTORE PUSH1 0x20 PUSH0 KECCAK256 SWAP1 POP SWAP2 SWAP1 POP JUMP JUMPDEST PUSH0 PUSH1 0x20 PUSH1 0x1F DUP4 ADD DIV SWAP1 POP SWAP2 SWAP1 POP JUMP JUMPDEST PUSH0 DUP3 DUP3 SHL SWAP1 POP SWAP3 SWAP2 POP POP JUMP JUMPDEST PUSH0 PUSH1 0x8 DUP4 MUL PUSH2 0x4438 PUSH32 0xFFFFFFFFFFFFFFFFFFFFFFFFFFFFFFFFFFFFFFFFFFFFFFFFFFFFFFFFFFFFFFFF DUP3 PUSH2 0x43FD JUMP JUMPDEST PUSH2 0x4442 DUP7 DUP4 PUSH2 0x43FD JUMP JUMPDEST SWAP6 POP DUP1 NOT DUP5 AND SWAP4 POP DUP1 DUP7 AND DUP5 OR SWAP3 POP POP POP SWAP4 SWAP3 POP POP POP JUMP JUMPDEST PUSH0 PUSH2 0x4474 PUSH2 0x446F PUSH2 0x446A DUP5 PUSH2 0x2DB4 JUMP JUMPDEST PUSH2 0x39C0 JUMP JUMPDEST PUSH2 0x2DB4 JUMP JUMPDEST SWAP1 POP SWAP2 SWAP1 POP JUMP JUMPDEST PUSH0 DUP2 SWAP1 POP SWAP2 SWAP1 POP JUMP JUMPDEST PUSH2 0x448D DUP4 PUSH2 0x445A JUMP JUMPDEST PUSH2 0x44A1 PUSH2 0x4499 DUP3 PUSH2 0x447B JUMP JUMPDEST DUP5 DUP5 SLOAD PUSH2 0x4409 JUMP JUMPDEST DUP3 SSTORE POP POP POP POP JUMP JUMPDEST PUSH0 SWAP1 JUMP JUMPDEST PUSH2 0x44B5 PUSH2 0x44A9 JUMP JUMPDEST PUSH2 0x44C0 DUP2 DUP5 DUP5 PUSH2 0x4484 JUMP JUMPDEST POP POP POP JUMP JUMPDEST JUMPDEST DUP2 DUP2 LT ISZERO PUSH2 0x44E3 JUMPI PUSH2 0x44D8 PUSH0 DUP3 PUSH2 0x44AD JUMP JUMPDEST PUSH1 0x1 DUP2 ADD SWAP1 POP PUSH2 0x44C6 JUMP JUMPDEST POP POP JUMP JUMPDEST PUSH1 0x1F DUP3 GT ISZERO PUSH2 0x4528 JUMPI PUSH2 0x44F9 DUP2 PUSH2 0x43DC JUMP JUMPDEST PUSH2 0x4502 DUP5 PUSH2 0x43EE JUMP JUMPDEST DUP2 ADD PUSH1 0x20 DUP6 LT ISZERO PUSH2 0x4511 JUMPI DUP2 SWAP1 POP JUMPDEST PUSH2 0x4525 PUSH2 0x451D DUP6 PUSH2 0x43EE JUMP JUMPDEST DUP4 ADD DUP3 PUSH2 0x44C5 JUMP JUMPDEST POP POP JUMPDEST POP POP POP JUMP JUMPDEST PUSH0 DUP3 DUP3 SHR SWAP1 POP SWAP3 SWAP2 POP POP JUMP JUMPDEST PUSH0 PUSH2 0x4548 PUSH0 NOT DUP5 PUSH1 0x8 MUL PUSH2 0x452D JUMP JUMPDEST NOT DUP1 DUP4 AND SWAP2 POP POP SWAP3 SWAP2 POP POP JUMP JUMPDEST PUSH0 PUSH2 0x4560 DUP4 DUP4 PUSH2 0x4539 JUMP JUMPDEST SWAP2 POP DUP3 PUSH1 0x2 MUL DUP3 OR SWAP1 POP SWAP3 SWAP2 POP POP JUMP JUMPDEST PUSH2 0x4579 DUP3 PUSH2 0x2D0A JUMP JUMPDEST PUSH8 0xFFFFFFFFFFFFFFFF DUP2 GT ISZERO PUSH2 0x4592 JUMPI PUSH2 0x4591 PUSH2 0x2F86 JUMP JUMPDEST JUMPDEST PUSH2 0x459C DUP3 SLOAD PUSH2 0x3599 JUMP JUMPDEST PUSH2 0x45A7 DUP3 DUP3 DUP6 PUSH2 0x44E7 JUMP JUMPDEST PUSH0 PUSH1 0x20 SWAP1 POP PUSH1 0x1F DUP4 GT PUSH1 0x1 DUP2 EQ PUSH2 0x45D8 JUMPI PUSH0 DUP5 ISZERO PUSH2 0x45C6 JUMPI DUP3 DUP8 ADD MLOAD SWAP1 POP JUMPDEST PUSH2 0x45D0 DUP6 DUP3 PUSH2 0x4555 JUMP JUMPDEST DUP7 SSTORE POP PUSH2 0x4637 JUMP JUMPDEST PUSH1 0x1F NOT DUP5 AND PUSH2 0x45E6 DUP7 PUSH2 0x43DC JUMP JUMPDEST PUSH0 JUMPDEST DUP3 DUP2 LT ISZERO PUSH2 0x460D JUMPI DUP5 DUP10 ADD MLOAD DUP3 SSTORE PUSH1 0x1 DUP3 ADD SWAP2 POP PUSH1 0x20 DUP6 ADD SWAP5 POP PUSH1 0x20 DUP2 ADD SWAP1 POP PUSH2 0x45E8 JUMP JUMPDEST DUP7 DUP4 LT ISZERO PUSH2 0x462A JUMPI DUP5 DUP10 ADD MLOAD PUSH2 0x4626 PUSH1 0x1F DUP10 AND DUP3 PUSH2 0x4539 JUMP JUMPDEST DUP4 SSTORE POP JUMPDEST PUSH1 0x1 PUSH1 0x2 DUP9 MUL ADD DUP9 SSTORE POP POP POP JUMPDEST POP POP POP POP POP POP JUMP JUMPDEST PUSH32 0x4552433732313A206D696E7420746F20746865207A65726F2061646472657373 PUSH0 DUP3 ADD MSTORE POP JUMP JUMPDEST PUSH0 PUSH2 0x4673 PUSH1 0x20 DUP4 PUSH2 0x2D14 JUMP JUMPDEST SWAP2 POP PUSH2 0x467E DUP3 PUSH2 0x463F JUMP JUMPDEST PUSH1 0x20 DUP3 ADD SWAP1 POP SWAP2 SWAP1 POP JUMP JUMPDEST PUSH0 PUSH1 0x20 DUP3 ADD SWAP1 POP DUP2 DUP2 SUB PUSH0 DUP4 ADD MSTORE PUSH2 0x46A0 DUP2 PUSH2 0x4667 JUMP JUMPDEST SWAP1 POP SWAP2 SWAP1 POP JUMP JUMPDEST PUSH32 0x4552433732313A20746F6B656E20616C7265616479206D696E74656400000000 PUSH0 DUP3 ADD MSTORE POP JUMP JUMPDEST PUSH0 PUSH2 0x46DB PUSH1 0x1C DUP4 PUSH2 0x2D14 JUMP JUMPDEST SWAP2 POP PUSH2 0x46E6 DUP3 PUSH2 0x46A7 JUMP JUMPDEST PUSH1 0x20 DUP3 ADD SWAP1 POP SWAP2 SWAP1 POP JUMP JUMPDEST PUSH0 PUSH1 0x20 DUP3 ADD SWAP1 POP DUP2 DUP2 SUB PUSH0 DUP4 ADD MSTORE PUSH2 0x4708 DUP2 PUSH2 0x46CF JUMP JUMPDEST SWAP1 POP SWAP2 SWAP1 POP JUMP JUMPDEST PUSH0 DUP3 DUP3 MSTORE PUSH1 0x20 DUP3 ADD SWAP1 POP SWAP3 SWAP2 POP POP JUMP JUMPDEST PUSH0 PUSH2 0x4729 DUP3 PUSH2 0x33AA JUMP JUMPDEST PUSH2 0x4733 DUP2 DUP6 PUSH2 0x470F JUMP JUMPDEST SWAP4 POP PUSH2 0x4743 DUP2 DUP6 PUSH1 0x20 DUP7 ADD PUSH2 0x2D24 JUMP JUMPDEST PUSH2 0x474C DUP2 PUSH2 0x2D4C JUMP JUMPDEST DUP5 ADD SWAP2 POP POP SWAP3 SWAP2 POP POP JUMP JUMPDEST PUSH0 PUSH1 0x80 DUP3 ADD SWAP1 POP PUSH2 0x476A PUSH0 DUP4 ADD DUP8 PUSH2 0x2E42 JUMP JUMPDEST PUSH2 0x4777 PUSH1 0x20 DUP4 ADD DUP7 PUSH2 0x2E42 JUMP JUMPDEST PUSH2 0x4784 PUSH1 0x40 DUP4 ADD DUP6 PUSH2 0x316C JUMP JUMPDEST DUP2 DUP2 SUB PUSH1 0x60 DUP4 ADD MSTORE PUSH2 0x4796 DUP2 DUP5 PUSH2 0x471F JUMP JUMPDEST SWAP1 POP SWAP6 SWAP5 POP POP POP POP POP JUMP JUMPDEST PUSH0 DUP2 MLOAD SWAP1 POP PUSH2 0x47AF DUP2 PUSH2 0x2C82 JUMP JUMPDEST SWAP3 SWAP2 POP POP JUMP JUMPDEST PUSH0 PUSH1 0x20 DUP3 DUP5 SUB SLT ISZERO PUSH2 0x47CA JUMPI PUSH2 0x47C9 PUSH2 0x2C4F JUMP JUMPDEST JUMPDEST PUSH0 PUSH2 0x47D7 DUP5 DUP3 DUP6 ADD PUSH2 0x47A1 JUMP JUMPDEST SWAP2 POP POP SWAP3 SWAP2 POP POP JUMP JUMPDEST PUSH0 DUP2 SWAP1 POP SWAP3 SWAP2 POP POP JUMP JUMPDEST PUSH0 PUSH2 0x47F4 DUP3 PUSH2 0x33AA JUMP JUMPDEST PUSH2 0x47FE DUP2 DUP6 PUSH2 0x47E0 JUMP JUMPDEST SWAP4 POP PUSH2 0x480E DUP2 DUP6 PUSH1 0x20 DUP7 ADD PUSH2 0x2D24 JUMP JUMPDEST DUP1 DUP5 ADD SWAP2 POP POP SWAP3 SWAP2 POP POP JUMP JUMPDEST PUSH0 PUSH2 0x4825 DUP3 DUP5 PUSH2 0x47EA JUMP JUMPDEST SWAP2 POP DUP2 SWAP1 POP SWAP3 SWAP2 POP POP JUMP JUMPDEST PUSH32 0x416464726573733A2063616C6C20746F206E6F6E2D636F6E7472616374000000 PUSH0 DUP3 ADD MSTORE POP JUMP JUMPDEST PUSH0 PUSH2 0x4864 PUSH1 0x1D DUP4 PUSH2 0x2D14 JUMP JUMPDEST SWAP2 POP PUSH2 0x486F DUP3 PUSH2 0x4830 JUMP JUMPDEST PUSH1 0x20 DUP3 ADD SWAP1 POP SWAP2 SWAP1 POP JUMP JUMPDEST PUSH0 PUSH1 0x20 DUP3 ADD SWAP1 POP DUP2 DUP2 SUB PUSH0 DUP4 ADD MSTORE PUSH2 0x4891 DUP2 PUSH2 0x4858 JUMP JUMPDEST SWAP1 POP SWAP2 SWAP1 POP JUMP INVALID COINBASE PUSH5 0x6472657373 GASPRICE KECCAK256 PUSH13 0x6F772D6C6576656C2064656C65 PUSH8 0x6174652063616C6C KECCAK256 PUSH7 0x61696C6564A264 PUSH10 0x70667358221220DCF517 JUMPDEST ADDMOD PUSH7 0x9157D33249CBA9 CALLDATASIZE 0xD INVALID ADDMOD 0x25 0x28 DUP8 BLOCKHASH SDIV 0xEA CREATE XOR 0xDF NOT 0xEC 0xF9 RETURNDATACOPY GASPRICE 0xC6 PUSH5 0x736F6C6343 STOP ADDMOD XOR STOP CALLER "
		},
		"gasEstimates": {
			"creation": {
				"codeDepositCost": "3735400",
				"executionCost": "infinite",
				"totalCost": "infinite"
			},
			"external": {
				"approve(address,uint256)": "infinite",
				"balanceOf(address)": "2975",
				"getApproved(uint256)": "5305",
				"idCounter()": "2491",
				"initialize(bytes32,uint256)": "infinite",
				"isApprovedForAll(address,address)": "infinite",
				"merkleRoot()": "2515",
				"mintAirdrops(uint256,bytes32[])": "infinite",
				"mintBuyWithETH()": "infinite",
				"multicall(bytes[])": "infinite",
				"name()": "infinite",
				"owner()": "2560",
				"ownerOf(uint256)": "3050",
				"price()": "2536",
				"proxiableUUID()": "infinite",
				"renounceOwnership()": "30436",
				"safeTransferFrom(address,address,uint256)": "infinite",
				"safeTransferFrom(address,address,uint256,bytes)": "infinite",
				"setApprovalForAll(address,bool)": "infinite",
				"setMerkleRoot(bytes32)": "22583",
				"setPrice(uint256)": "24865",
				"supportsInterface(bytes4)": "810",
				"symbol()": "infinite",
				"tokenURI(uint256)": "3482",
				"transferFrom(address,address,uint256)": "infinite",
				"transferOwnership(address)": "30841",
				"upgradeTo(address)": "infinite",
				"upgradeToAndCall(address,bytes)": "infinite",
				"withdrawETH(uint256)": "infinite"
			},
			"internal": {
				"_authorizeUpgrade(address)": "11"
			}
		},
		"methodIdentifiers": {
			"approve(address,uint256)": "095ea7b3",
			"balanceOf(address)": "70a08231",
			"getApproved(uint256)": "081812fc",
			"idCounter()": "eb08ab28",
			"initialize(bytes32,uint256)": "5b36c66b",
			"isApprovedForAll(address,address)": "e985e9c5",
			"merkleRoot()": "2eb4a7ab",
			"mintAirdrops(uint256,bytes32[])": "84296eb7",
			"mintBuyWithETH()": "658a7227",
			"multicall(bytes[])": "ac9650d8",
			"name()": "06fdde03",
			"owner()": "8da5cb5b",
			"ownerOf(uint256)": "6352211e",
			"price()": "a035b1fe",
			"proxiableUUID()": "52d1902d",
			"renounceOwnership()": "715018a6",
			"safeTransferFrom(address,address,uint256)": "42842e0e",
			"safeTransferFrom(address,address,uint256,bytes)": "b88d4fde",
			"setApprovalForAll(address,bool)": "a22cb465",
			"setMerkleRoot(bytes32)": "7cb64759",
			"setPrice(uint256)": "91b7f5ed",
			"supportsInterface(bytes4)": "01ffc9a7",
			"symbol()": "95d89b41",
			"tokenURI(uint256)": "c87b56dd",
			"transferFrom(address,address,uint256)": "23b872dd",
			"transferOwnership(address)": "f2fde38b",
			"upgradeTo(address)": "3659cfe6",
			"upgradeToAndCall(address,bytes)": "4f1ef286",
			"withdrawETH(uint256)": "f14210a6"
		}
	},
	"abi": [
		{
			"anonymous": false,
			"inputs": [
				{
					"indexed": false,
					"internalType": "address",
					"name": "previousAdmin",
					"type": "address"
				},
				{
					"indexed": false,
					"internalType": "address",
					"name": "newAdmin",
					"type": "address"
				}
			],
			"name": "AdminChanged",
			"type": "event"
		},
		{
			"anonymous": false,
			"inputs": [
				{
					"indexed": true,
					"internalType": "address",
					"name": "owner",
					"type": "address"
				},
				{
					"indexed": true,
					"internalType": "address",
					"name": "approved",
					"type": "address"
				},
				{
					"indexed": true,
					"internalType": "uint256",
					"name": "tokenId",
					"type": "uint256"
				}
			],
			"name": "Approval",
			"type": "event"
		},
		{
			"anonymous": false,
			"inputs": [
				{
					"indexed": true,
					"internalType": "address",
					"name": "owner",
					"type": "address"
				},
				{
					"indexed": true,
					"internalType": "address",
					"name": "operator",
					"type": "address"
				},
				{
					"indexed": false,
					"internalType": "bool",
					"name": "approved",
					"type": "bool"
				}
			],
			"name": "ApprovalForAll",
			"type": "event"
		},
		{
			"anonymous": false,
			"inputs": [
				{
					"indexed": true,
					"internalType": "address",
					"name": "beacon",
					"type": "address"
				}
			],
			"name": "BeaconUpgraded",
			"type": "event"
		},
		{
			"anonymous": false,
			"inputs": [
				{
					"indexed": false,
					"internalType": "uint8",
					"name": "version",
					"type": "uint8"
				}
			],
			"name": "Initialized",
			"type": "event"
		},
		{
			"anonymous": false,
			"inputs": [
				{
					"indexed": true,
					"internalType": "address",
					"name": "previousOwner",
					"type": "address"
				},
				{
					"indexed": true,
					"internalType": "address",
					"name": "newOwner",
					"type": "address"
				}
			],
			"name": "OwnershipTransferred",
			"type": "event"
		},
		{
			"anonymous": false,
			"inputs": [
				{
					"indexed": true,
					"internalType": "address",
					"name": "from",
					"type": "address"
				},
				{
					"indexed": true,
					"internalType": "address",
					"name": "to",
					"type": "address"
				},
				{
					"indexed": true,
					"internalType": "uint256",
					"name": "tokenId",
					"type": "uint256"
				}
			],
			"name": "Transfer",
			"type": "event"
		},
		{
			"anonymous": false,
			"inputs": [
				{
					"indexed": true,
					"internalType": "address",
					"name": "implementation",
					"type": "address"
				}
			],
			"name": "Upgraded",
			"type": "event"
		},
		{
			"inputs": [
				{
					"internalType": "address",
					"name": "to",
					"type": "address"
				},
				{
					"internalType": "uint256",
					"name": "tokenId",
					"type": "uint256"
				}
			],
			"name": "approve",
			"outputs": [],
			"stateMutability": "nonpayable",
			"type": "function"
		},
		{
			"inputs": [
				{
					"internalType": "address",
					"name": "owner",
					"type": "address"
				}
			],
			"name": "balanceOf",
			"outputs": [
				{
					"internalType": "uint256",
					"name": "",
					"type": "uint256"
				}
			],
			"stateMutability": "view",
			"type": "function"
		},
		{
			"inputs": [
				{
					"internalType": "uint256",
					"name": "tokenId",
					"type": "uint256"
				}
			],
			"name": "getApproved",
			"outputs": [
				{
					"internalType": "address",
					"name": "",
					"type": "address"
				}
			],
			"stateMutability": "view",
			"type": "function"
		},
		{
			"inputs": [],
			"name": "idCounter",
			"outputs": [
				{
					"internalType": "uint256",
					"name": "",
					"type": "uint256"
				}
			],
			"stateMutability": "view",
			"type": "function"
		},
		{
			"inputs": [
				{
					"internalType": "bytes32",
					"name": "merkleRoot_",
					"type": "bytes32"
				},
				{
					"internalType": "uint256",
					"name": "price_",
					"type": "uint256"
				}
			],
			"name": "initialize",
			"outputs": [],
			"stateMutability": "nonpayable",
			"type": "function"
		},
		{
			"inputs": [
				{
					"internalType": "address",
					"name": "owner",
					"type": "address"
				},
				{
					"internalType": "address",
					"name": "operator",
					"type": "address"
				}
			],
			"name": "isApprovedForAll",
			"outputs": [
				{
					"internalType": "bool",
					"name": "",
					"type": "bool"
				}
			],
			"stateMutability": "view",
			"type": "function"
		},
		{
			"inputs": [],
			"name": "merkleRoot",
			"outputs": [
				{
					"internalType": "bytes32",
					"name": "",
					"type": "bytes32"
				}
			],
			"stateMutability": "view",
			"type": "function"
		},
		{
			"inputs": [
				{
					"internalType": "uint256",
					"name": "id",
					"type": "uint256"
				},
				{
					"internalType": "bytes32[]",
					"name": "merkleProof",
					"type": "bytes32[]"
				}
			],
			"name": "mintAirdrops",
			"outputs": [],
			"stateMutability": "nonpayable",
			"type": "function"
		},
		{
			"inputs": [],
			"name": "mintBuyWithETH",
			"outputs": [],
			"stateMutability": "payable",
			"type": "function"
		},
		{
			"inputs": [
				{
					"internalType": "bytes[]",
					"name": "data",
					"type": "bytes[]"
				}
			],
			"name": "multicall",
			"outputs": [
				{
					"internalType": "bytes[]",
					"name": "results",
					"type": "bytes[]"
				}
			],
			"stateMutability": "payable",
			"type": "function"
		},
		{
			"inputs": [],
			"name": "name",
			"outputs": [
				{
					"internalType": "string",
					"name": "",
					"type": "string"
				}
			],
			"stateMutability": "view",
			"type": "function"
		},
		{
			"inputs": [],
			"name": "owner",
			"outputs": [
				{
					"internalType": "address",
					"name": "",
					"type": "address"
				}
			],
			"stateMutability": "view",
			"type": "function"
		},
		{
			"inputs": [
				{
					"internalType": "uint256",
					"name": "tokenId",
					"type": "uint256"
				}
			],
			"name": "ownerOf",
			"outputs": [
				{
					"internalType": "address",
					"name": "",
					"type": "address"
				}
			],
			"stateMutability": "view",
			"type": "function"
		},
		{
			"inputs": [],
			"name": "price",
			"outputs": [
				{
					"internalType": "uint256",
					"name": "",
					"type": "uint256"
				}
			],
			"stateMutability": "view",
			"type": "function"
		},
		{
			"inputs": [],
			"name": "proxiableUUID",
			"outputs": [
				{
					"internalType": "bytes32",
					"name": "",
					"type": "bytes32"
				}
			],
			"stateMutability": "view",
			"type": "function"
		},
		{
			"inputs": [],
			"name": "renounceOwnership",
			"outputs": [],
			"stateMutability": "nonpayable",
			"type": "function"
		},
		{
			"inputs": [
				{
					"internalType": "address",
					"name": "from",
					"type": "address"
				},
				{
					"internalType": "address",
					"name": "to",
					"type": "address"
				},
				{
					"internalType": "uint256",
					"name": "tokenId",
					"type": "uint256"
				}
			],
			"name": "safeTransferFrom",
			"outputs": [],
			"stateMutability": "nonpayable",
			"type": "function"
		},
		{
			"inputs": [
				{
					"internalType": "address",
					"name": "from",
					"type": "address"
				},
				{
					"internalType": "address",
					"name": "to",
					"type": "address"
				},
				{
					"internalType": "uint256",
					"name": "tokenId",
					"type": "uint256"
				},
				{
					"internalType": "bytes",
					"name": "data",
					"type": "bytes"
				}
			],
			"name": "safeTransferFrom",
			"outputs": [],
			"stateMutability": "nonpayable",
			"type": "function"
		},
		{
			"inputs": [
				{
					"internalType": "address",
					"name": "operator",
					"type": "address"
				},
				{
					"internalType": "bool",
					"name": "approved",
					"type": "bool"
				}
			],
			"name": "setApprovalForAll",
			"outputs": [],
			"stateMutability": "nonpayable",
			"type": "function"
		},
		{
			"inputs": [
				{
					"internalType": "bytes32",
					"name": "merkleRoot_",
					"type": "bytes32"
				}
			],
			"name": "setMerkleRoot",
			"outputs": [],
			"stateMutability": "nonpayable",
			"type": "function"
		},
		{
			"inputs": [
				{
					"internalType": "uint256",
					"name": "price_",
					"type": "uint256"
				}
			],
			"name": "setPrice",
			"outputs": [],
			"stateMutability": "nonpayable",
			"type": "function"
		},
		{
			"inputs": [
				{
					"internalType": "bytes4",
					"name": "interfaceId",
					"type": "bytes4"
				}
			],
			"name": "supportsInterface",
			"outputs": [
				{
					"internalType": "bool",
					"name": "",
					"type": "bool"
				}
			],
			"stateMutability": "view",
			"type": "function"
		},
		{
			"inputs": [],
			"name": "symbol",
			"outputs": [
				{
					"internalType": "string",
					"name": "",
					"type": "string"
				}
			],
			"stateMutability": "view",
			"type": "function"
		},
		{
			"inputs": [
				{
					"internalType": "uint256",
					"name": "tokenId",
					"type": "uint256"
				}
			],
			"name": "tokenURI",
			"outputs": [
				{
					"internalType": "string",
					"name": "",
					"type": "string"
				}
			],
			"stateMutability": "view",
			"type": "function"
		},
		{
			"inputs": [
				{
					"internalType": "address",
					"name": "from",
					"type": "address"
				},
				{
					"internalType": "address",
					"name": "to",
					"type": "address"
				},
				{
					"internalType": "uint256",
					"name": "tokenId",
					"type": "uint256"
				}
			],
			"name": "transferFrom",
			"outputs": [],
			"stateMutability": "nonpayable",
			"type": "function"
		},
		{
			"inputs": [
				{
					"internalType": "address",
					"name": "newOwner",
					"type": "address"
				}
			],
			"name": "transferOwnership",
			"outputs": [],
			"stateMutability": "nonpayable",
			"type": "function"
		},
		{
			"inputs": [
				{
					"internalType": "address",
					"name": "newImplementation",
					"type": "address"
				}
			],
			"name": "upgradeTo",
			"outputs": [],
			"stateMutability": "nonpayable",
			"type": "function"
		},
		{
			"inputs": [
				{
					"internalType": "address",
					"name": "newImplementation",
					"type": "address"
				},
				{
					"internalType": "bytes",
					"name": "data",
					"type": "bytes"
				}
			],
			"name": "upgradeToAndCall",
			"outputs": [],
			"stateMutability": "payable",
			"type": "function"
		},
		{
			"inputs": [
				{
					"internalType": "uint256",
					"name": "amount",
					"type": "uint256"
				}
			],
			"name": "withdrawETH",
			"outputs": [],
			"stateMutability": "nonpayable",
			"type": "function"
		}
	]
}