{
	"data": {
		"bytecode": {
			"linkReferences": {},
			"object": "60c060405230608052348015610013575f80fd5b5060405161175e38038061175e8339810160408190526100329161003a565b60a052610051565b5f6020828403121561004a575f80fd5b5051919050565b60805160a0516116bb6100a35f395f818161021801528181610807015281816109510152610ae301525f818161036a015281816103b30152818161058c015281816105cc015261074501526116bb5ff3fe6080604052600436106100ef575f3560e01c80636112fe2e11610087578063ac9650d811610057578063ac9650d8146102ce578063d52c1db2146102ee578063e912615414610322578063fc0c546a14610341575f80fd5b80636112fe2e1461023a578063647fd8ef146102595780637e059b221461027857806390f20d15146102a3575f80fd5b80634f1ef286116100c25780634f1ef286146101b3578063504006ca146101c657806352d1902d146101e55780635891de7214610207575f80fd5b8063150b7a02146100f35780633659cfe61461013c57806347ccca021461015d578063485cc95514610194575b5f80fd5b3480156100fe575f80fd5b5061011e61010d3660046111bf565b630a85bd0160e11b95945050505050565b6040516001600160e01b031990911681526020015b60405180910390f35b348015610147575f80fd5b5061015b610156366004611256565b610360565b005b348015610168575f80fd5b5060665461017c906001600160a01b031681565b6040516001600160a01b039091168152602001610133565b34801561019f575f80fd5b5061015b6101ae366004611271565b61043d565b61015b6101c13660046112bc565b610582565b3480156101d1575f80fd5b5061015b6101e036600461137a565b610648565b3480156101f0575f80fd5b506101f9610739565b604051908152602001610133565b348015610212575f80fd5b506101f97f000000000000000000000000000000000000000000000000000000000000000081565b348015610245575f80fd5b5061015b61025436600461137a565b6107ea565b348015610264575f80fd5b5061015b61027336600461137a565b6109a2565b348015610283575f80fd5b506101f9610292366004611256565b60676020525f908152604090205481565b3480156102ae575f80fd5b506101f96102bd366004611256565b60686020525f908152604090205481565b6102e16102dc366004611391565b610b36565b604051610133919061144d565b3480156102f9575f80fd5b5061017c61030836600461137a565b60696020525f90815260409020546001600160a01b031681565b34801561032d575f80fd5b5061015b61033c36600461137a565b610c1f565b34801561034c575f80fd5b5060655461017c906001600160a01b031681565b6001600160a01b037f00000000000000000000000000000000000000000000000000000000000000001630036103b15760405162461bcd60e51b81526004016103a8906114af565b60405180910390fd5b7f00000000000000000000000000000000000000000000000000000000000000006001600160a01b03166103f95f8051602061163f833981519152546001600160a01b031690565b6001600160a01b03161461041f5760405162461bcd60e51b81526004016103a8906114fb565b604080515f8082526020820190925261043a91839190610d87565b50565b5f54610100900460ff161580801561045b57505f54600160ff909116105b806104745750303b15801561047457505f5460ff166001145b6104d75760405162461bcd60e51b815260206004820152602e60248201527f496e697469616c697a61626c653a20636f6e747261637420697320616c72656160448201526d191e481a5b9a5d1a585b1a5e995960921b60648201526084016103a8565b5f805460ff1916600117905580156104f8575f805461ff0019166101001790555b610500610ef1565b610508610ef1565b606580546001600160a01b038086166001600160a01b0319928316179092556066805492851692909116919091179055801561057d575f805461ff0019169055604051600181527f7f26b83ff96e1f2b6a682f133852f6798a09c465da95921460cefb38474024989060200160405180910390a15b505050565b6001600160a01b037f00000000000000000000000000000000000000000000000000000000000000001630036105ca5760405162461bcd60e51b81526004016103a8906114af565b7f00000000000000000000000000000000000000000000000000000000000000006001600160a01b03166106125f8051602061163f833981519152546001600160a01b031690565b6001600160a01b0316146106385760405162461bcd60e51b81526004016103a8906114fb565b61064482826001610d87565b5050565b335f90815260686020908152604080832054606790925290912054829161066e9161155b565b106106b35760405162461bcd60e51b8152602060048201526015602482015274139bdd08195b9bdd59da0818dbdb1b185d195c985b605a1b60448201526064016103a8565b335f90815260686020526040812080548392906106d190849061156e565b9091555050606554604051630f38ca0d60e31b8152336004820152602481018390526001600160a01b03909116906379c65068906044015b5f604051808303815f87803b158015610720575f80fd5b505af1158015610732573d5f803e3d5ffd5b5050505050565b5f306001600160a01b037f000000000000000000000000000000000000000000000000000000000000000016146107d85760405162461bcd60e51b815260206004820152603860248201527f555550535570677261646561626c653a206d757374206e6f742062652063616c60448201527f6c6564207468726f7567682064656c656761746563616c6c000000000000000060648201526084016103a8565b505f8051602061163f83398151915290565b335f908152606860209081526040808320546067909252909120547f0000000000000000000000000000000000000000000000000000000000000000916108309161155b565b10156108775760405162461bcd60e51b8152602060048201526016602482015275436f6c6c61746572616c20756e617661696c61626c6560501b60448201526064016103a8565b5f818152606960205260409020546001600160a01b031633146108dc5760405162461bcd60e51b815260206004820152601a60248201527f4944206e6f74206465706f73697465642062792063616c6c657200000000000060448201526064016103a8565b606654604051632142170760e11b8152306004820152336024820152604481018390526001600160a01b03909116906342842e0e906064015f604051808303815f87803b15801561092b575f80fd5b505af115801561093d573d5f803e3d5ffd5b5050335f90815260676020526040812080547f0000000000000000000000000000000000000000000000000000000000000000945090925061098090849061155b565b90915550505f90815260696020526040902080546001600160a01b0319169055565b6066546040516331a9108f60e11b81526004810183905233916001600160a01b031690636352211e90602401602060405180830381865afa1580156109e9573d5f803e3d5ffd5b505050506040513d601f19601f82011682018060405250810190610a0d9190611581565b6001600160a01b031614610a6e5760405162461bcd60e51b815260206004820152602260248201527f43616c6c6572206973206e6f7420746865206f776e6572206f6620746865204e604482015261119560f21b60648201526084016103a8565b606654604051632142170760e11b8152336004820152306024820152604481018390526001600160a01b03909116906342842e0e906064015f604051808303815f87803b158015610abd575f80fd5b505af1158015610acf573d5f803e3d5ffd5b5050335f90815260676020526040812080547f00000000000000000000000000000000000000000000000000000000000000009450909250610b1290849061156e565b90915550505f90815260696020526040902080546001600160a01b03191633179055565b60608167ffffffffffffffff811115610b5157610b516112a8565b604051908082528060200260200182016040528015610b8457816020015b6060815260200190600190039081610b6f5790505b5090505f5b82811015610c1757610bf230858584818110610ba757610ba761159c565b9050602002810190610bb991906115b0565b8080601f0160208091040260200160405190810160405280939291908181526020018383808284375f92019190915250610f5d92505050565b828281518110610c0457610c0461159c565b6020908102919091010152600101610b89565b505b92915050565b335f90815260686020526040902054811115610c755760405162461bcd60e51b8152602060048201526015602482015274139bdd08195b9bdd59da0818dbdb1b185d195c985b605a1b60448201526064016103a8565b6065546040516370a0823160e01b815233600482015282916001600160a01b0316906370a0823190602401602060405180830381865afa158015610cbb573d5f803e3d5ffd5b505050506040513d601f19601f82011682018060405250810190610cdf91906115fa565b1015610d2d5760405162461bcd60e51b815260206004820152601860248201527f4e6f7420656e6f75676820746f6b656e2062616c616e6365000000000000000060448201526064016103a8565b335f9081526068602052604081208054839290610d4b90849061156e565b9091555050606554604051633477cc1b60e21b8152336004820152602481018390526001600160a01b039091169063d1df306c90604401610709565b7f4910fdfa16fed3260ed0e7147f7cc6da11a60208b5b9406d12a635614ffd91435460ff1615610dba5761057d83610f89565b826001600160a01b03166352d1902d6040518163ffffffff1660e01b8152600401602060405180830381865afa925050508015610e14575060408051601f3d908101601f19168201909252610e11918101906115fa565b60015b610e775760405162461bcd60e51b815260206004820152602e60248201527f45524331393637557067726164653a206e657720696d706c656d656e7461746960448201526d6f6e206973206e6f74205555505360901b60648201526084016103a8565b5f8051602061163f8339815191528114610ee55760405162461bcd60e51b815260206004820152602960248201527f45524331393637557067726164653a20756e737570706f727465642070726f786044820152681a58589b195555525160ba1b60648201526084016103a8565b5061057d838383611024565b5f54610100900460ff16610f5b5760405162461bcd60e51b815260206004820152602b60248201527f496e697469616c697a61626c653a20636f6e7472616374206973206e6f74206960448201526a6e697469616c697a696e6760a81b60648201526084016103a8565b565b6060610f82838360405180606001604052806027815260200161165f6027913961104e565b9392505050565b6001600160a01b0381163b610ff65760405162461bcd60e51b815260206004820152602d60248201527f455243313936373a206e657720696d706c656d656e746174696f6e206973206e60448201526c1bdd08184818dbdb9d1c9858dd609a1b60648201526084016103a8565b5f8051602061163f83398151915280546001600160a01b0319166001600160a01b0392909216919091179055565b61102d836110c2565b5f825111806110395750805b1561057d576110488383610f5d565b50505050565b60605f80856001600160a01b03168560405161106a9190611611565b5f60405180830381855af49150503d805f81146110a2576040519150601f19603f3d011682016040523d82523d5f602084013e6110a7565b606091505b50915091506110b886838387611101565b9695505050505050565b6110cb81610f89565b6040516001600160a01b038216907fbc7cd75a20ee27fd9adebab32041f755214dbc6bffa90cc0225b39da2e5c2d3b905f90a250565b6060831561116f5782515f03611168576001600160a01b0385163b6111685760405162461bcd60e51b815260206004820152601d60248201527f416464726573733a2063616c6c20746f206e6f6e2d636f6e747261637400000060448201526064016103a8565b5081611179565b6111798383611181565b949350505050565b8151156111915781518083602001fd5b8060405162461bcd60e51b81526004016103a8919061162c565b6001600160a01b038116811461043a575f80fd5b5f805f805f608086880312156111d3575f80fd5b85356111de816111ab565b945060208601356111ee816111ab565b935060408601359250606086013567ffffffffffffffff80821115611211575f80fd5b818801915088601f830112611224575f80fd5b813581811115611232575f80fd5b896020828501011115611243575f80fd5b9699959850939650602001949392505050565b5f60208284031215611266575f80fd5b8135610f82816111ab565b5f8060408385031215611282575f80fd5b823561128d816111ab565b9150602083013561129d816111ab565b809150509250929050565b634e487b7160e01b5f52604160045260245ffd5b5f80604083850312156112cd575f80fd5b82356112d8816111ab565b9150602083013567ffffffffffffffff808211156112f4575f80fd5b818501915085601f830112611307575f80fd5b813581811115611319576113196112a8565b604051601f8201601f19908116603f01168101908382118183101715611341576113416112a8565b81604052828152886020848701011115611359575f80fd5b826020860160208301375f6020848301015280955050505050509250929050565b5f6020828403121561138a575f80fd5b5035919050565b5f80602083850312156113a2575f80fd5b823567ffffffffffffffff808211156113b9575f80fd5b818501915085601f8301126113cc575f80fd5b8135818111156113da575f80fd5b8660208260051b85010111156113ee575f80fd5b60209290920196919550909350505050565b5f5b8381101561141a578181015183820152602001611402565b50505f910152565b5f8151808452611439816020860160208601611400565b601f01601f19169290920160200192915050565b5f60208083016020845280855180835260408601915060408160051b8701019250602087015f5b828110156114a257603f19888603018452611490858351611422565b94509285019290850190600101611474565b5092979650505050505050565b6020808252602c908201527f46756e6374696f6e206d7573742062652063616c6c6564207468726f7567682060408201526b19195b1959d85d1958d85b1b60a21b606082015260800190565b6020808252602c908201527f46756e6374696f6e206d7573742062652063616c6c6564207468726f7567682060408201526b6163746976652070726f787960a01b606082015260800190565b634e487b7160e01b5f52601160045260245ffd5b81810381811115610c1957610c19611547565b80820180821115610c1957610c19611547565b5f60208284031215611591575f80fd5b8151610f82816111ab565b634e487b7160e01b5f52603260045260245ffd5b5f808335601e198436030181126115c5575f80fd5b83018035915067ffffffffffffffff8211156115df575f80fd5b6020019150368190038213156115f3575f80fd5b9250929050565b5f6020828403121561160a575f80fd5b5051919050565b5f8251611622818460208701611400565b9190910192915050565b602081525f610f82602083018461142256fe360894a13ba1a3210667c828492db98dca3e2076cc3735a920a3ca505d382bbc416464726573733a206c6f772d6c6576656c2064656c65676174652063616c6c206661696c6564a264697066735822122036e9e92fdf3027bb50ed52ae44352e0c59399feddab4b5e0e0e11a995db9b8cc64736f6c63430008180033",
			"opcodes": "PUSH1 0xC0 PUSH1 0x40 MSTORE ADDRESS PUSH1 0x80 MSTORE CALLVALUE DUP1 ISZERO PUSH2 0x13 JUMPI PUSH0 DUP1 REVERT JUMPDEST POP PUSH1 0x40 MLOAD PUSH2 0x175E CODESIZE SUB DUP1 PUSH2 0x175E DUP4 CODECOPY DUP2 ADD PUSH1 0x40 DUP2 SWAP1 MSTORE PUSH2 0x32 SWAP2 PUSH2 0x3A JUMP JUMPDEST PUSH1 0xA0 MSTORE PUSH2 0x51 JUMP JUMPDEST PUSH0 PUSH1 0x20 DUP3 DUP5 SUB SLT ISZERO PUSH2 0x4A JUMPI PUSH0 DUP1 REVERT JUMPDEST POP MLOAD SWAP2 SWAP1 POP JUMP JUMPDEST PUSH1 0x80 MLOAD PUSH1 0xA0 MLOAD PUSH2 0x16BB PUSH2 0xA3 PUSH0 CODECOPY PUSH0 DUP2 DUP2 PUSH2 0x218 ADD MSTORE DUP2 DUP2 PUSH2 0x807 ADD MSTORE DUP2 DUP2 PUSH2 0x951 ADD MSTORE PUSH2 0xAE3 ADD MSTORE PUSH0 DUP2 DUP2 PUSH2 0x36A ADD MSTORE DUP2 DUP2 PUSH2 0x3B3 ADD MSTORE DUP2 DUP2 PUSH2 0x58C ADD MSTORE DUP2 DUP2 PUSH2 0x5CC ADD MSTORE PUSH2 0x745 ADD MSTORE PUSH2 0x16BB PUSH0 RETURN INVALID PUSH1 0x80 PUSH1 0x40 MSTORE PUSH1 0x4 CALLDATASIZE LT PUSH2 0xEF JUMPI PUSH0 CALLDATALOAD PUSH1 0xE0 SHR DUP1 PUSH4 0x6112FE2E GT PUSH2 0x87 JUMPI DUP1 PUSH4 0xAC9650D8 GT PUSH2 0x57 JUMPI DUP1 PUSH4 0xAC9650D8 EQ PUSH2 0x2CE JUMPI DUP1 PUSH4 0xD52C1DB2 EQ PUSH2 0x2EE JUMPI DUP1 PUSH4 0xE9126154 EQ PUSH2 0x322 JUMPI DUP1 PUSH4 0xFC0C546A EQ PUSH2 0x341 JUMPI PUSH0 DUP1 REVERT JUMPDEST DUP1 PUSH4 0x6112FE2E EQ PUSH2 0x23A JUMPI DUP1 PUSH4 0x647FD8EF EQ PUSH2 0x259 JUMPI DUP1 PUSH4 0x7E059B22 EQ PUSH2 0x278 JUMPI DUP1 PUSH4 0x90F20D15 EQ PUSH2 0x2A3 JUMPI PUSH0 DUP1 REVERT JUMPDEST DUP1 PUSH4 0x4F1EF286 GT PUSH2 0xC2 JUMPI DUP1 PUSH4 0x4F1EF286 EQ PUSH2 0x1B3 JUMPI DUP1 PUSH4 0x504006CA EQ PUSH2 0x1C6 JUMPI DUP1 PUSH4 0x52D1902D EQ PUSH2 0x1E5 JUMPI DUP1 PUSH4 0x5891DE72 EQ PUSH2 0x207 JUMPI PUSH0 DUP1 REVERT JUMPDEST DUP1 PUSH4 0x150B7A02 EQ PUSH2 0xF3 JUMPI DUP1 PUSH4 0x3659CFE6 EQ PUSH2 0x13C JUMPI DUP1 PUSH4 0x47CCCA02 EQ PUSH2 0x15D JUMPI DUP1 PUSH4 0x485CC955 EQ PUSH2 0x194 JUMPI JUMPDEST PUSH0 DUP1 REVERT JUMPDEST CALLVALUE DUP1 ISZERO PUSH2 0xFE JUMPI PUSH0 DUP1 REVERT JUMPDEST POP PUSH2 0x11E PUSH2 0x10D CALLDATASIZE PUSH1 0x4 PUSH2 0x11BF JUMP JUMPDEST PUSH4 0xA85BD01 PUSH1 0xE1 SHL SWAP6 SWAP5 POP POP POP POP POP JUMP JUMPDEST PUSH1 0x40 MLOAD PUSH1 0x1 PUSH1 0x1 PUSH1 0xE0 SHL SUB NOT SWAP1 SWAP2 AND DUP2 MSTORE PUSH1 0x20 ADD JUMPDEST PUSH1 0x40 MLOAD DUP1 SWAP2 SUB SWAP1 RETURN JUMPDEST CALLVALUE DUP1 ISZERO PUSH2 0x147 JUMPI PUSH0 DUP1 REVERT JUMPDEST POP PUSH2 0x15B PUSH2 0x156 CALLDATASIZE PUSH1 0x4 PUSH2 0x1256 JUMP JUMPDEST PUSH2 0x360 JUMP JUMPDEST STOP JUMPDEST CALLVALUE DUP1 ISZERO PUSH2 0x168 JUMPI PUSH0 DUP1 REVERT JUMPDEST POP PUSH1 0x66 SLOAD PUSH2 0x17C SWAP1 PUSH1 0x1 PUSH1 0x1 PUSH1 0xA0 SHL SUB AND DUP2 JUMP JUMPDEST PUSH1 0x40 MLOAD PUSH1 0x1 PUSH1 0x1 PUSH1 0xA0 SHL SUB SWAP1 SWAP2 AND DUP2 MSTORE PUSH1 0x20 ADD PUSH2 0x133 JUMP JUMPDEST CALLVALUE DUP1 ISZERO PUSH2 0x19F JUMPI PUSH0 DUP1 REVERT JUMPDEST POP PUSH2 0x15B PUSH2 0x1AE CALLDATASIZE PUSH1 0x4 PUSH2 0x1271 JUMP JUMPDEST PUSH2 0x43D JUMP JUMPDEST PUSH2 0x15B PUSH2 0x1C1 CALLDATASIZE PUSH1 0x4 PUSH2 0x12BC JUMP JUMPDEST PUSH2 0x582 JUMP JUMPDEST CALLVALUE DUP1 ISZERO PUSH2 0x1D1 JUMPI PUSH0 DUP1 REVERT JUMPDEST POP PUSH2 0x15B PUSH2 0x1E0 CALLDATASIZE PUSH1 0x4 PUSH2 0x137A JUMP JUMPDEST PUSH2 0x648 JUMP JUMPDEST CALLVALUE DUP1 ISZERO PUSH2 0x1F0 JUMPI PUSH0 DUP1 REVERT JUMPDEST POP PUSH2 0x1F9 PUSH2 0x739 JUMP JUMPDEST PUSH1 0x40 MLOAD SWAP1 DUP2 MSTORE PUSH1 0x20 ADD PUSH2 0x133 JUMP JUMPDEST CALLVALUE DUP1 ISZERO PUSH2 0x212 JUMPI PUSH0 DUP1 REVERT JUMPDEST POP PUSH2 0x1F9 PUSH32 0x0 DUP2 JUMP JUMPDEST CALLVALUE DUP1 ISZERO PUSH2 0x245 JUMPI PUSH0 DUP1 REVERT JUMPDEST POP PUSH2 0x15B PUSH2 0x254 CALLDATASIZE PUSH1 0x4 PUSH2 0x137A JUMP JUMPDEST PUSH2 0x7EA JUMP JUMPDEST CALLVALUE DUP1 ISZERO PUSH2 0x264 JUMPI PUSH0 DUP1 REVERT JUMPDEST POP PUSH2 0x15B PUSH2 0x273 CALLDATASIZE PUSH1 0x4 PUSH2 0x137A JUMP JUMPDEST PUSH2 0x9A2 JUMP JUMPDEST CALLVALUE DUP1 ISZERO PUSH2 0x283 JUMPI PUSH0 DUP1 REVERT JUMPDEST POP PUSH2 0x1F9 PUSH2 0x292 CALLDATASIZE PUSH1 0x4 PUSH2 0x1256 JUMP JUMPDEST PUSH1 0x67 PUSH1 0x20 MSTORE PUSH0 SWAP1 DUP2 MSTORE PUSH1 0x40 SWAP1 KECCAK256 SLOAD DUP2 JUMP JUMPDEST CALLVALUE DUP1 ISZERO PUSH2 0x2AE JUMPI PUSH0 DUP1 REVERT JUMPDEST POP PUSH2 0x1F9 PUSH2 0x2BD CALLDATASIZE PUSH1 0x4 PUSH2 0x1256 JUMP JUMPDEST PUSH1 0x68 PUSH1 0x20 MSTORE PUSH0 SWAP1 DUP2 MSTORE PUSH1 0x40 SWAP1 KECCAK256 SLOAD DUP2 JUMP JUMPDEST PUSH2 0x2E1 PUSH2 0x2DC CALLDATASIZE PUSH1 0x4 PUSH2 0x1391 JUMP JUMPDEST PUSH2 0xB36 JUMP JUMPDEST PUSH1 0x40 MLOAD PUSH2 0x133 SWAP2 SWAP1 PUSH2 0x144D JUMP JUMPDEST CALLVALUE DUP1 ISZERO PUSH2 0x2F9 JUMPI PUSH0 DUP1 REVERT JUMPDEST POP PUSH2 0x17C PUSH2 0x308 CALLDATASIZE PUSH1 0x4 PUSH2 0x137A JUMP JUMPDEST PUSH1 0x69 PUSH1 0x20 MSTORE PUSH0 SWAP1 DUP2 MSTORE PUSH1 0x40 SWAP1 KECCAK256 SLOAD PUSH1 0x1 PUSH1 0x1 PUSH1 0xA0 SHL SUB AND DUP2 JUMP JUMPDEST CALLVALUE DUP1 ISZERO PUSH2 0x32D JUMPI PUSH0 DUP1 REVERT JUMPDEST POP PUSH2 0x15B PUSH2 0x33C CALLDATASIZE PUSH1 0x4 PUSH2 0x137A JUMP JUMPDEST PUSH2 0xC1F JUMP JUMPDEST CALLVALUE DUP1 ISZERO PUSH2 0x34C JUMPI PUSH0 DUP1 REVERT JUMPDEST POP PUSH1 0x65 SLOAD PUSH2 0x17C SWAP1 PUSH1 0x1 PUSH1 0x1 PUSH1 0xA0 SHL SUB AND DUP2 JUMP JUMPDEST PUSH1 0x1 PUSH1 0x1 PUSH1 0xA0 SHL SUB PUSH32 0x0 AND ADDRESS SUB PUSH2 0x3B1 JUMPI PUSH1 0x40 MLOAD PUSH3 0x461BCD PUSH1 0xE5 SHL DUP2 MSTORE PUSH1 0x4 ADD PUSH2 0x3A8 SWAP1 PUSH2 0x14AF JUMP JUMPDEST PUSH1 0x40 MLOAD DUP1 SWAP2 SUB SWAP1 REVERT JUMPDEST PUSH32 0x0 PUSH1 0x1 PUSH1 0x1 PUSH1 0xA0 SHL SUB AND PUSH2 0x3F9 PUSH0 DUP1 MLOAD PUSH1 0x20 PUSH2 0x163F DUP4 CODECOPY DUP2 MLOAD SWAP2 MSTORE SLOAD PUSH1 0x1 PUSH1 0x1 PUSH1 0xA0 SHL SUB AND SWAP1 JUMP JUMPDEST PUSH1 0x1 PUSH1 0x1 PUSH1 0xA0 SHL SUB AND EQ PUSH2 0x41F JUMPI PUSH1 0x40 MLOAD PUSH3 0x461BCD PUSH1 0xE5 SHL DUP2 MSTORE PUSH1 0x4 ADD PUSH2 0x3A8 SWAP1 PUSH2 0x14FB JUMP JUMPDEST PUSH1 0x40 DUP1 MLOAD PUSH0 DUP1 DUP3 MSTORE PUSH1 0x20 DUP3 ADD SWAP1 SWAP3 MSTORE PUSH2 0x43A SWAP2 DUP4 SWAP2 SWAP1 PUSH2 0xD87 JUMP JUMPDEST POP JUMP JUMPDEST PUSH0 SLOAD PUSH2 0x100 SWAP1 DIV PUSH1 0xFF AND ISZERO DUP1 DUP1 ISZERO PUSH2 0x45B JUMPI POP PUSH0 SLOAD PUSH1 0x1 PUSH1 0xFF SWAP1 SWAP2 AND LT JUMPDEST DUP1 PUSH2 0x474 JUMPI POP ADDRESS EXTCODESIZE ISZERO DUP1 ISZERO PUSH2 0x474 JUMPI POP PUSH0 SLOAD PUSH1 0xFF AND PUSH1 0x1 EQ JUMPDEST PUSH2 0x4D7 JUMPI PUSH1 0x40 MLOAD PUSH3 0x461BCD PUSH1 0xE5 SHL DUP2 MSTORE PUSH1 0x20 PUSH1 0x4 DUP3 ADD MSTORE PUSH1 0x2E PUSH1 0x24 DUP3 ADD MSTORE PUSH32 0x496E697469616C697A61626C653A20636F6E747261637420697320616C726561 PUSH1 0x44 DUP3 ADD MSTORE PUSH14 0x191E481A5B9A5D1A585B1A5E9959 PUSH1 0x92 SHL PUSH1 0x64 DUP3 ADD MSTORE PUSH1 0x84 ADD PUSH2 0x3A8 JUMP JUMPDEST PUSH0 DUP1 SLOAD PUSH1 0xFF NOT AND PUSH1 0x1 OR SWAP1 SSTORE DUP1 ISZERO PUSH2 0x4F8 JUMPI PUSH0 DUP1 SLOAD PUSH2 0xFF00 NOT AND PUSH2 0x100 OR SWAP1 SSTORE JUMPDEST PUSH2 0x500 PUSH2 0xEF1 JUMP JUMPDEST PUSH2 0x508 PUSH2 0xEF1 JUMP JUMPDEST PUSH1 0x65 DUP1 SLOAD PUSH1 0x1 PUSH1 0x1 PUSH1 0xA0 SHL SUB DUP1 DUP7 AND PUSH1 0x1 PUSH1 0x1 PUSH1 0xA0 SHL SUB NOT SWAP3 DUP4 AND OR SWAP1 SWAP3 SSTORE PUSH1 0x66 DUP1 SLOAD SWAP3 DUP6 AND SWAP3 SWAP1 SWAP2 AND SWAP2 SWAP1 SWAP2 OR SWAP1 SSTORE DUP1 ISZERO PUSH2 0x57D JUMPI PUSH0 DUP1 SLOAD PUSH2 0xFF00 NOT AND SWAP1 SSTORE PUSH1 0x40 MLOAD PUSH1 0x1 DUP2 MSTORE PUSH32 0x7F26B83FF96E1F2B6A682F133852F6798A09C465DA95921460CEFB3847402498 SWAP1 PUSH1 0x20 ADD PUSH1 0x40 MLOAD DUP1 SWAP2 SUB SWAP1 LOG1 JUMPDEST POP POP POP JUMP JUMPDEST PUSH1 0x1 PUSH1 0x1 PUSH1 0xA0 SHL SUB PUSH32 0x0 AND ADDRESS SUB PUSH2 0x5CA JUMPI PUSH1 0x40 MLOAD PUSH3 0x461BCD PUSH1 0xE5 SHL DUP2 MSTORE PUSH1 0x4 ADD PUSH2 0x3A8 SWAP1 PUSH2 0x14AF JUMP JUMPDEST PUSH32 0x0 PUSH1 0x1 PUSH1 0x1 PUSH1 0xA0 SHL SUB AND PUSH2 0x612 PUSH0 DUP1 MLOAD PUSH1 0x20 PUSH2 0x163F DUP4 CODECOPY DUP2 MLOAD SWAP2 MSTORE SLOAD PUSH1 0x1 PUSH1 0x1 PUSH1 0xA0 SHL SUB AND SWAP1 JUMP JUMPDEST PUSH1 0x1 PUSH1 0x1 PUSH1 0xA0 SHL SUB AND EQ PUSH2 0x638 JUMPI PUSH1 0x40 MLOAD PUSH3 0x461BCD PUSH1 0xE5 SHL DUP2 MSTORE PUSH1 0x4 ADD PUSH2 0x3A8 SWAP1 PUSH2 0x14FB JUMP JUMPDEST PUSH2 0x644 DUP3 DUP3 PUSH1 0x1 PUSH2 0xD87 JUMP JUMPDEST POP POP JUMP JUMPDEST CALLER PUSH0 SWAP1 DUP2 MSTORE PUSH1 0x68 PUSH1 0x20 SWAP1 DUP2 MSTORE PUSH1 0x40 DUP1 DUP4 KECCAK256 SLOAD PUSH1 0x67 SWAP1 SWAP3 MSTORE SWAP1 SWAP2 KECCAK256 SLOAD DUP3 SWAP2 PUSH2 0x66E SWAP2 PUSH2 0x155B JUMP JUMPDEST LT PUSH2 0x6B3 JUMPI PUSH1 0x40 MLOAD PUSH3 0x461BCD PUSH1 0xE5 SHL DUP2 MSTORE PUSH1 0x20 PUSH1 0x4 DUP3 ADD MSTORE PUSH1 0x15 PUSH1 0x24 DUP3 ADD MSTORE PUSH21 0x139BDD08195B9BDD59DA0818DBDB1B185D195C985B PUSH1 0x5A SHL PUSH1 0x44 DUP3 ADD MSTORE PUSH1 0x64 ADD PUSH2 0x3A8 JUMP JUMPDEST CALLER PUSH0 SWAP1 DUP2 MSTORE PUSH1 0x68 PUSH1 0x20 MSTORE PUSH1 0x40 DUP2 KECCAK256 DUP1 SLOAD DUP4 SWAP3 SWAP1 PUSH2 0x6D1 SWAP1 DUP5 SWAP1 PUSH2 0x156E JUMP JUMPDEST SWAP1 SWAP2 SSTORE POP POP PUSH1 0x65 SLOAD PUSH1 0x40 MLOAD PUSH4 0xF38CA0D PUSH1 0xE3 SHL DUP2 MSTORE CALLER PUSH1 0x4 DUP3 ADD MSTORE PUSH1 0x24 DUP2 ADD DUP4 SWAP1 MSTORE PUSH1 0x1 PUSH1 0x1 PUSH1 0xA0 SHL SUB SWAP1 SWAP2 AND SWAP1 PUSH4 0x79C65068 SWAP1 PUSH1 0x44 ADD JUMPDEST PUSH0 PUSH1 0x40 MLOAD DUP1 DUP4 SUB DUP2 PUSH0 DUP8 DUP1 EXTCODESIZE ISZERO DUP1 ISZERO PUSH2 0x720 JUMPI PUSH0 DUP1 REVERT JUMPDEST POP GAS CALL ISZERO DUP1 ISZERO PUSH2 0x732 JUMPI RETURNDATASIZE PUSH0 DUP1 RETURNDATACOPY RETURNDATASIZE PUSH0 REVERT JUMPDEST POP POP POP POP POP JUMP JUMPDEST PUSH0 ADDRESS PUSH1 0x1 PUSH1 0x1 PUSH1 0xA0 SHL SUB PUSH32 0x0 AND EQ PUSH2 0x7D8 JUMPI PUSH1 0x40 MLOAD PUSH3 0x461BCD PUSH1 0xE5 SHL DUP2 MSTORE PUSH1 0x20 PUSH1 0x4 DUP3 ADD MSTORE PUSH1 0x38 PUSH1 0x24 DUP3 ADD MSTORE PUSH32 0x555550535570677261646561626C653A206D757374206E6F742062652063616C PUSH1 0x44 DUP3 ADD MSTORE PUSH32 0x6C6564207468726F7567682064656C656761746563616C6C0000000000000000 PUSH1 0x64 DUP3 ADD MSTORE PUSH1 0x84 ADD PUSH2 0x3A8 JUMP JUMPDEST POP PUSH0 DUP1 MLOAD PUSH1 0x20 PUSH2 0x163F DUP4 CODECOPY DUP2 MLOAD SWAP2 MSTORE SWAP1 JUMP JUMPDEST CALLER PUSH0 SWAP1 DUP2 MSTORE PUSH1 0x68 PUSH1 0x20 SWAP1 DUP2 MSTORE PUSH1 0x40 DUP1 DUP4 KECCAK256 SLOAD PUSH1 0x67 SWAP1 SWAP3 MSTORE SWAP1 SWAP2 KECCAK256 SLOAD PUSH32 0x0 SWAP2 PUSH2 0x830 SWAP2 PUSH2 0x155B JUMP JUMPDEST LT ISZERO PUSH2 0x877 JUMPI PUSH1 0x40 MLOAD PUSH3 0x461BCD PUSH1 0xE5 SHL DUP2 MSTORE PUSH1 0x20 PUSH1 0x4 DUP3 ADD MSTORE PUSH1 0x16 PUSH1 0x24 DUP3 ADD MSTORE PUSH22 0x436F6C6C61746572616C20756E617661696C61626C65 PUSH1 0x50 SHL PUSH1 0x44 DUP3 ADD MSTORE PUSH1 0x64 ADD PUSH2 0x3A8 JUMP JUMPDEST PUSH0 DUP2 DUP2 MSTORE PUSH1 0x69 PUSH1 0x20 MSTORE PUSH1 0x40 SWAP1 KECCAK256 SLOAD PUSH1 0x1 PUSH1 0x1 PUSH1 0xA0 SHL SUB AND CALLER EQ PUSH2 0x8DC JUMPI PUSH1 0x40 MLOAD PUSH3 0x461BCD PUSH1 0xE5 SHL DUP2 MSTORE PUSH1 0x20 PUSH1 0x4 DUP3 ADD MSTORE PUSH1 0x1A PUSH1 0x24 DUP3 ADD MSTORE PUSH32 0x4944206E6F74206465706F73697465642062792063616C6C6572000000000000 PUSH1 0x44 DUP3 ADD MSTORE PUSH1 0x64 ADD PUSH2 0x3A8 JUMP JUMPDEST PUSH1 0x66 SLOAD PUSH1 0x40 MLOAD PUSH4 0x21421707 PUSH1 0xE1 SHL DUP2 MSTORE ADDRESS PUSH1 0x4 DUP3 ADD MSTORE CALLER PUSH1 0x24 DUP3 ADD MSTORE PUSH1 0x44 DUP2 ADD DUP4 SWAP1 MSTORE PUSH1 0x1 PUSH1 0x1 PUSH1 0xA0 SHL SUB SWAP1 SWAP2 AND SWAP1 PUSH4 0x42842E0E SWAP1 PUSH1 0x64 ADD PUSH0 PUSH1 0x40 MLOAD DUP1 DUP4 SUB DUP2 PUSH0 DUP8 DUP1 EXTCODESIZE ISZERO DUP1 ISZERO PUSH2 0x92B JUMPI PUSH0 DUP1 REVERT JUMPDEST POP GAS CALL ISZERO DUP1 ISZERO PUSH2 0x93D JUMPI RETURNDATASIZE PUSH0 DUP1 RETURNDATACOPY RETURNDATASIZE PUSH0 REVERT JUMPDEST POP POP CALLER PUSH0 SWAP1 DUP2 MSTORE PUSH1 0x67 PUSH1 0x20 MSTORE PUSH1 0x40 DUP2 KECCAK256 DUP1 SLOAD PUSH32 0x0 SWAP5 POP SWAP1 SWAP3 POP PUSH2 0x980 SWAP1 DUP5 SWAP1 PUSH2 0x155B JUMP JUMPDEST SWAP1 SWAP2 SSTORE POP POP PUSH0 SWAP1 DUP2 MSTORE PUSH1 0x69 PUSH1 0x20 MSTORE PUSH1 0x40 SWAP1 KECCAK256 DUP1 SLOAD PUSH1 0x1 PUSH1 0x1 PUSH1 0xA0 SHL SUB NOT AND SWAP1 SSTORE JUMP JUMPDEST PUSH1 0x66 SLOAD PUSH1 0x40 MLOAD PUSH4 0x31A9108F PUSH1 0xE1 SHL DUP2 MSTORE PUSH1 0x4 DUP2 ADD DUP4 SWAP1 MSTORE CALLER SWAP2 PUSH1 0x1 PUSH1 0x1 PUSH1 0xA0 SHL SUB AND SWAP1 PUSH4 0x6352211E SWAP1 PUSH1 0x24 ADD PUSH1 0x20 PUSH1 0x40 MLOAD DUP1 DUP4 SUB DUP2 DUP7 GAS STATICCALL ISZERO DUP1 ISZERO PUSH2 0x9E9 JUMPI RETURNDATASIZE PUSH0 DUP1 RETURNDATACOPY RETURNDATASIZE PUSH0 REVERT JUMPDEST POP POP POP POP PUSH1 0x40 MLOAD RETURNDATASIZE PUSH1 0x1F NOT PUSH1 0x1F DUP3 ADD AND DUP3 ADD DUP1 PUSH1 0x40 MSTORE POP DUP2 ADD SWAP1 PUSH2 0xA0D SWAP2 SWAP1 PUSH2 0x1581 JUMP JUMPDEST PUSH1 0x1 PUSH1 0x1 PUSH1 0xA0 SHL SUB AND EQ PUSH2 0xA6E JUMPI PUSH1 0x40 MLOAD PUSH3 0x461BCD PUSH1 0xE5 SHL DUP2 MSTORE PUSH1 0x20 PUSH1 0x4 DUP3 ADD MSTORE PUSH1 0x22 PUSH1 0x24 DUP3 ADD MSTORE PUSH32 0x43616C6C6572206973206E6F7420746865206F776E6572206F6620746865204E PUSH1 0x44 DUP3 ADD MSTORE PUSH2 0x1195 PUSH1 0xF2 SHL PUSH1 0x64 DUP3 ADD MSTORE PUSH1 0x84 ADD PUSH2 0x3A8 JUMP JUMPDEST PUSH1 0x66 SLOAD PUSH1 0x40 MLOAD PUSH4 0x21421707 PUSH1 0xE1 SHL DUP2 MSTORE CALLER PUSH1 0x4 DUP3 ADD MSTORE ADDRESS PUSH1 0x24 DUP3 ADD MSTORE PUSH1 0x44 DUP2 ADD DUP4 SWAP1 MSTORE PUSH1 0x1 PUSH1 0x1 PUSH1 0xA0 SHL SUB SWAP1 SWAP2 AND SWAP1 PUSH4 0x42842E0E SWAP1 PUSH1 0x64 ADD PUSH0 PUSH1 0x40 MLOAD DUP1 DUP4 SUB DUP2 PUSH0 DUP8 DUP1 EXTCODESIZE ISZERO DUP1 ISZERO PUSH2 0xABD JUMPI PUSH0 DUP1 REVERT JUMPDEST POP GAS CALL ISZERO DUP1 ISZERO PUSH2 0xACF JUMPI RETURNDATASIZE PUSH0 DUP1 RETURNDATACOPY RETURNDATASIZE PUSH0 REVERT JUMPDEST POP POP CALLER PUSH0 SWAP1 DUP2 MSTORE PUSH1 0x67 PUSH1 0x20 MSTORE PUSH1 0x40 DUP2 KECCAK256 DUP1 SLOAD PUSH32 0x0 SWAP5 POP SWAP1 SWAP3 POP PUSH2 0xB12 SWAP1 DUP5 SWAP1 PUSH2 0x156E JUMP JUMPDEST SWAP1 SWAP2 SSTORE POP POP PUSH0 SWAP1 DUP2 MSTORE PUSH1 0x69 PUSH1 0x20 MSTORE PUSH1 0x40 SWAP1 KECCAK256 DUP1 SLOAD PUSH1 0x1 PUSH1 0x1 PUSH1 0xA0 SHL SUB NOT AND CALLER OR SWAP1 SSTORE JUMP JUMPDEST PUSH1 0x60 DUP2 PUSH8 0xFFFFFFFFFFFFFFFF DUP2 GT ISZERO PUSH2 0xB51 JUMPI PUSH2 0xB51 PUSH2 0x12A8 JUMP JUMPDEST PUSH1 0x40 MLOAD SWAP1 DUP1 DUP3 MSTORE DUP1 PUSH1 0x20 MUL PUSH1 0x20 ADD DUP3 ADD PUSH1 0x40 MSTORE DUP1 ISZERO PUSH2 0xB84 JUMPI DUP2 PUSH1 0x20 ADD JUMPDEST PUSH1 0x60 DUP2 MSTORE PUSH1 0x20 ADD SWAP1 PUSH1 0x1 SWAP1 SUB SWAP1 DUP2 PUSH2 0xB6F JUMPI SWAP1 POP JUMPDEST POP SWAP1 POP PUSH0 JUMPDEST DUP3 DUP2 LT ISZERO PUSH2 0xC17 JUMPI PUSH2 0xBF2 ADDRESS DUP6 DUP6 DUP5 DUP2 DUP2 LT PUSH2 0xBA7 JUMPI PUSH2 0xBA7 PUSH2 0x159C JUMP JUMPDEST SWAP1 POP PUSH1 0x20 MUL DUP2 ADD SWAP1 PUSH2 0xBB9 SWAP2 SWAP1 PUSH2 0x15B0 JUMP JUMPDEST DUP1 DUP1 PUSH1 0x1F ADD PUSH1 0x20 DUP1 SWAP2 DIV MUL PUSH1 0x20 ADD PUSH1 0x40 MLOAD SWAP1 DUP2 ADD PUSH1 0x40 MSTORE DUP1 SWAP4 SWAP3 SWAP2 SWAP1 DUP2 DUP2 MSTORE PUSH1 0x20 ADD DUP4 DUP4 DUP1 DUP3 DUP5 CALLDATACOPY PUSH0 SWAP3 ADD SWAP2 SWAP1 SWAP2 MSTORE POP PUSH2 0xF5D SWAP3 POP POP POP JUMP JUMPDEST DUP3 DUP3 DUP2 MLOAD DUP2 LT PUSH2 0xC04 JUMPI PUSH2 0xC04 PUSH2 0x159C JUMP JUMPDEST PUSH1 0x20 SWAP1 DUP2 MUL SWAP2 SWAP1 SWAP2 ADD ADD MSTORE PUSH1 0x1 ADD PUSH2 0xB89 JUMP JUMPDEST POP JUMPDEST SWAP3 SWAP2 POP POP JUMP JUMPDEST CALLER PUSH0 SWAP1 DUP2 MSTORE PUSH1 0x68 PUSH1 0x20 MSTORE PUSH1 0x40 SWAP1 KECCAK256 SLOAD DUP2 GT ISZERO PUSH2 0xC75 JUMPI PUSH1 0x40 MLOAD PUSH3 0x461BCD PUSH1 0xE5 SHL DUP2 MSTORE PUSH1 0x20 PUSH1 0x4 DUP3 ADD MSTORE PUSH1 0x15 PUSH1 0x24 DUP3 ADD MSTORE PUSH21 0x139BDD08195B9BDD59DA0818DBDB1B185D195C985B PUSH1 0x5A SHL PUSH1 0x44 DUP3 ADD MSTORE PUSH1 0x64 ADD PUSH2 0x3A8 JUMP JUMPDEST PUSH1 0x65 SLOAD PUSH1 0x40 MLOAD PUSH4 0x70A08231 PUSH1 0xE0 SHL DUP2 MSTORE CALLER PUSH1 0x4 DUP3 ADD MSTORE DUP3 SWAP2 PUSH1 0x1 PUSH1 0x1 PUSH1 0xA0 SHL SUB AND SWAP1 PUSH4 0x70A08231 SWAP1 PUSH1 0x24 ADD PUSH1 0x20 PUSH1 0x40 MLOAD DUP1 DUP4 SUB DUP2 DUP7 GAS STATICCALL ISZERO DUP1 ISZERO PUSH2 0xCBB JUMPI RETURNDATASIZE PUSH0 DUP1 RETURNDATACOPY RETURNDATASIZE PUSH0 REVERT JUMPDEST POP POP POP POP PUSH1 0x40 MLOAD RETURNDATASIZE PUSH1 0x1F NOT PUSH1 0x1F DUP3 ADD AND DUP3 ADD DUP1 PUSH1 0x40 MSTORE POP DUP2 ADD SWAP1 PUSH2 0xCDF SWAP2 SWAP1 PUSH2 0x15FA JUMP JUMPDEST LT ISZERO PUSH2 0xD2D JUMPI PUSH1 0x40 MLOAD PUSH3 0x461BCD PUSH1 0xE5 SHL DUP2 MSTORE PUSH1 0x20 PUSH1 0x4 DUP3 ADD MSTORE PUSH1 0x18 PUSH1 0x24 DUP3 ADD MSTORE PUSH32 0x4E6F7420656E6F75676820746F6B656E2062616C616E63650000000000000000 PUSH1 0x44 DUP3 ADD MSTORE PUSH1 0x64 ADD PUSH2 0x3A8 JUMP JUMPDEST CALLER PUSH0 SWAP1 DUP2 MSTORE PUSH1 0x68 PUSH1 0x20 MSTORE PUSH1 0x40 DUP2 KECCAK256 DUP1 SLOAD DUP4 SWAP3 SWAP1 PUSH2 0xD4B SWAP1 DUP5 SWAP1 PUSH2 0x156E JUMP JUMPDEST SWAP1 SWAP2 SSTORE POP POP PUSH1 0x65 SLOAD PUSH1 0x40 MLOAD PUSH4 0x3477CC1B PUSH1 0xE2 SHL DUP2 MSTORE CALLER PUSH1 0x4 DUP3 ADD MSTORE PUSH1 0x24 DUP2 ADD DUP4 SWAP1 MSTORE PUSH1 0x1 PUSH1 0x1 PUSH1 0xA0 SHL SUB SWAP1 SWAP2 AND SWAP1 PUSH4 0xD1DF306C SWAP1 PUSH1 0x44 ADD PUSH2 0x709 JUMP JUMPDEST PUSH32 0x4910FDFA16FED3260ED0E7147F7CC6DA11A60208B5B9406D12A635614FFD9143 SLOAD PUSH1 0xFF AND ISZERO PUSH2 0xDBA JUMPI PUSH2 0x57D DUP4 PUSH2 0xF89 JUMP JUMPDEST DUP3 PUSH1 0x1 PUSH1 0x1 PUSH1 0xA0 SHL SUB AND PUSH4 0x52D1902D PUSH1 0x40 MLOAD DUP2 PUSH4 0xFFFFFFFF AND PUSH1 0xE0 SHL DUP2 MSTORE PUSH1 0x4 ADD PUSH1 0x20 PUSH1 0x40 MLOAD DUP1 DUP4 SUB DUP2 DUP7 GAS STATICCALL SWAP3 POP POP POP DUP1 ISZERO PUSH2 0xE14 JUMPI POP PUSH1 0x40 DUP1 MLOAD PUSH1 0x1F RETURNDATASIZE SWAP1 DUP2 ADD PUSH1 0x1F NOT AND DUP3 ADD SWAP1 SWAP3 MSTORE PUSH2 0xE11 SWAP2 DUP2 ADD SWAP1 PUSH2 0x15FA JUMP JUMPDEST PUSH1 0x1 JUMPDEST PUSH2 0xE77 JUMPI PUSH1 0x40 MLOAD PUSH3 0x461BCD PUSH1 0xE5 SHL DUP2 MSTORE PUSH1 0x20 PUSH1 0x4 DUP3 ADD MSTORE PUSH1 0x2E PUSH1 0x24 DUP3 ADD MSTORE PUSH32 0x45524331393637557067726164653A206E657720696D706C656D656E74617469 PUSH1 0x44 DUP3 ADD MSTORE PUSH14 0x6F6E206973206E6F742055555053 PUSH1 0x90 SHL PUSH1 0x64 DUP3 ADD MSTORE PUSH1 0x84 ADD PUSH2 0x3A8 JUMP JUMPDEST PUSH0 DUP1 MLOAD PUSH1 0x20 PUSH2 0x163F DUP4 CODECOPY DUP2 MLOAD SWAP2 MSTORE DUP2 EQ PUSH2 0xEE5 JUMPI PUSH1 0x40 MLOAD PUSH3 0x461BCD PUSH1 0xE5 SHL DUP2 MSTORE PUSH1 0x20 PUSH1 0x4 DUP3 ADD MSTORE PUSH1 0x29 PUSH1 0x24 DUP3 ADD MSTORE PUSH32 0x45524331393637557067726164653A20756E737570706F727465642070726F78 PUSH1 0x44 DUP3 ADD MSTORE PUSH9 0x1A58589B1955555251 PUSH1 0xBA SHL PUSH1 0x64 DUP3 ADD MSTORE PUSH1 0x84 ADD PUSH2 0x3A8 JUMP JUMPDEST POP PUSH2 0x57D DUP4 DUP4 DUP4 PUSH2 0x1024 JUMP JUMPDEST PUSH0 SLOAD PUSH2 0x100 SWAP1 DIV PUSH1 0xFF AND PUSH2 0xF5B JUMPI PUSH1 0x40 MLOAD PUSH3 0x461BCD PUSH1 0xE5 SHL DUP2 MSTORE PUSH1 0x20 PUSH1 0x4 DUP3 ADD MSTORE PUSH1 0x2B PUSH1 0x24 DUP3 ADD MSTORE PUSH32 0x496E697469616C697A61626C653A20636F6E7472616374206973206E6F742069 PUSH1 0x44 DUP3 ADD MSTORE PUSH11 0x6E697469616C697A696E67 PUSH1 0xA8 SHL PUSH1 0x64 DUP3 ADD MSTORE PUSH1 0x84 ADD PUSH2 0x3A8 JUMP JUMPDEST JUMP JUMPDEST PUSH1 0x60 PUSH2 0xF82 DUP4 DUP4 PUSH1 0x40 MLOAD DUP1 PUSH1 0x60 ADD PUSH1 0x40 MSTORE DUP1 PUSH1 0x27 DUP2 MSTORE PUSH1 0x20 ADD PUSH2 0x165F PUSH1 0x27 SWAP2 CODECOPY PUSH2 0x104E JUMP JUMPDEST SWAP4 SWAP3 POP POP POP JUMP JUMPDEST PUSH1 0x1 PUSH1 0x1 PUSH1 0xA0 SHL SUB DUP2 AND EXTCODESIZE PUSH2 0xFF6 JUMPI PUSH1 0x40 MLOAD PUSH3 0x461BCD PUSH1 0xE5 SHL DUP2 MSTORE PUSH1 0x20 PUSH1 0x4 DUP3 ADD MSTORE PUSH1 0x2D PUSH1 0x24 DUP3 ADD MSTORE PUSH32 0x455243313936373A206E657720696D706C656D656E746174696F6E206973206E PUSH1 0x44 DUP3 ADD MSTORE PUSH13 0x1BDD08184818DBDB9D1C9858DD PUSH1 0x9A SHL PUSH1 0x64 DUP3 ADD MSTORE PUSH1 0x84 ADD PUSH2 0x3A8 JUMP JUMPDEST PUSH0 DUP1 MLOAD PUSH1 0x20 PUSH2 0x163F DUP4 CODECOPY DUP2 MLOAD SWAP2 MSTORE DUP1 SLOAD PUSH1 0x1 PUSH1 0x1 PUSH1 0xA0 SHL SUB NOT AND PUSH1 0x1 PUSH1 0x1 PUSH1 0xA0 SHL SUB SWAP3 SWAP1 SWAP3 AND SWAP2 SWAP1 SWAP2 OR SWAP1 SSTORE JUMP JUMPDEST PUSH2 0x102D DUP4 PUSH2 0x10C2 JUMP JUMPDEST PUSH0 DUP3 MLOAD GT DUP1 PUSH2 0x1039 JUMPI POP DUP1 JUMPDEST ISZERO PUSH2 0x57D JUMPI PUSH2 0x1048 DUP4 DUP4 PUSH2 0xF5D JUMP JUMPDEST POP POP POP POP JUMP JUMPDEST PUSH1 0x60 PUSH0 DUP1 DUP6 PUSH1 0x1 PUSH1 0x1 PUSH1 0xA0 SHL SUB AND DUP6 PUSH1 0x40 MLOAD PUSH2 0x106A SWAP2 SWAP1 PUSH2 0x1611 JUMP JUMPDEST PUSH0 PUSH1 0x40 MLOAD DUP1 DUP4 SUB DUP2 DUP6 GAS DELEGATECALL SWAP2 POP POP RETURNDATASIZE DUP1 PUSH0 DUP2 EQ PUSH2 0x10A2 JUMPI PUSH1 0x40 MLOAD SWAP2 POP PUSH1 0x1F NOT PUSH1 0x3F RETURNDATASIZE ADD AND DUP3 ADD PUSH1 0x40 MSTORE RETURNDATASIZE DUP3 MSTORE RETURNDATASIZE PUSH0 PUSH1 0x20 DUP5 ADD RETURNDATACOPY PUSH2 0x10A7 JUMP JUMPDEST PUSH1 0x60 SWAP2 POP JUMPDEST POP SWAP2 POP SWAP2 POP PUSH2 0x10B8 DUP7 DUP4 DUP4 DUP8 PUSH2 0x1101 JUMP JUMPDEST SWAP7 SWAP6 POP POP POP POP POP POP JUMP JUMPDEST PUSH2 0x10CB DUP2 PUSH2 0xF89 JUMP JUMPDEST PUSH1 0x40 MLOAD PUSH1 0x1 PUSH1 0x1 PUSH1 0xA0 SHL SUB DUP3 AND SWAP1 PUSH32 0xBC7CD75A20EE27FD9ADEBAB32041F755214DBC6BFFA90CC0225B39DA2E5C2D3B SWAP1 PUSH0 SWAP1 LOG2 POP JUMP JUMPDEST PUSH1 0x60 DUP4 ISZERO PUSH2 0x116F JUMPI DUP3 MLOAD PUSH0 SUB PUSH2 0x1168 JUMPI PUSH1 0x1 PUSH1 0x1 PUSH1 0xA0 SHL SUB DUP6 AND EXTCODESIZE PUSH2 0x1168 JUMPI PUSH1 0x40 MLOAD PUSH3 0x461BCD PUSH1 0xE5 SHL DUP2 MSTORE PUSH1 0x20 PUSH1 0x4 DUP3 ADD MSTORE PUSH1 0x1D PUSH1 0x24 DUP3 ADD MSTORE PUSH32 0x416464726573733A2063616C6C20746F206E6F6E2D636F6E7472616374000000 PUSH1 0x44 DUP3 ADD MSTORE PUSH1 0x64 ADD PUSH2 0x3A8 JUMP JUMPDEST POP DUP2 PUSH2 0x1179 JUMP JUMPDEST PUSH2 0x1179 DUP4 DUP4 PUSH2 0x1181 JUMP JUMPDEST SWAP5 SWAP4 POP POP POP POP JUMP JUMPDEST DUP2 MLOAD ISZERO PUSH2 0x1191 JUMPI DUP2 MLOAD DUP1 DUP4 PUSH1 0x20 ADD REVERT JUMPDEST DUP1 PUSH1 0x40 MLOAD PUSH3 0x461BCD PUSH1 0xE5 SHL DUP2 MSTORE PUSH1 0x4 ADD PUSH2 0x3A8 SWAP2 SWAP1 PUSH2 0x162C JUMP JUMPDEST PUSH1 0x1 PUSH1 0x1 PUSH1 0xA0 SHL SUB DUP2 AND DUP2 EQ PUSH2 0x43A JUMPI PUSH0 DUP1 REVERT JUMPDEST PUSH0 DUP1 PUSH0 DUP1 PUSH0 PUSH1 0x80 DUP7 DUP9 SUB SLT ISZERO PUSH2 0x11D3 JUMPI PUSH0 DUP1 REVERT JUMPDEST DUP6 CALLDATALOAD PUSH2 0x11DE DUP2 PUSH2 0x11AB JUMP JUMPDEST SWAP5 POP PUSH1 0x20 DUP7 ADD CALLDATALOAD PUSH2 0x11EE DUP2 PUSH2 0x11AB JUMP JUMPDEST SWAP4 POP PUSH1 0x40 DUP7 ADD CALLDATALOAD SWAP3 POP PUSH1 0x60 DUP7 ADD CALLDATALOAD PUSH8 0xFFFFFFFFFFFFFFFF DUP1 DUP3 GT ISZERO PUSH2 0x1211 JUMPI PUSH0 DUP1 REVERT JUMPDEST DUP2 DUP9 ADD SWAP2 POP DUP9 PUSH1 0x1F DUP4 ADD SLT PUSH2 0x1224 JUMPI PUSH0 DUP1 REVERT JUMPDEST DUP2 CALLDATALOAD DUP2 DUP2 GT ISZERO PUSH2 0x1232 JUMPI PUSH0 DUP1 REVERT JUMPDEST DUP10 PUSH1 0x20 DUP3 DUP6 ADD ADD GT ISZERO PUSH2 0x1243 JUMPI PUSH0 DUP1 REVERT JUMPDEST SWAP7 SWAP10 SWAP6 SWAP9 POP SWAP4 SWAP7 POP PUSH1 0x20 ADD SWAP5 SWAP4 SWAP3 POP POP POP JUMP JUMPDEST PUSH0 PUSH1 0x20 DUP3 DUP5 SUB SLT ISZERO PUSH2 0x1266 JUMPI PUSH0 DUP1 REVERT JUMPDEST DUP2 CALLDATALOAD PUSH2 0xF82 DUP2 PUSH2 0x11AB JUMP JUMPDEST PUSH0 DUP1 PUSH1 0x40 DUP4 DUP6 SUB SLT ISZERO PUSH2 0x1282 JUMPI PUSH0 DUP1 REVERT JUMPDEST DUP3 CALLDATALOAD PUSH2 0x128D DUP2 PUSH2 0x11AB JUMP JUMPDEST SWAP2 POP PUSH1 0x20 DUP4 ADD CALLDATALOAD PUSH2 0x129D DUP2 PUSH2 0x11AB JUMP JUMPDEST DUP1 SWAP2 POP POP SWAP3 POP SWAP3 SWAP1 POP JUMP JUMPDEST PUSH4 0x4E487B71 PUSH1 0xE0 SHL PUSH0 MSTORE PUSH1 0x41 PUSH1 0x4 MSTORE PUSH1 0x24 PUSH0 REVERT JUMPDEST PUSH0 DUP1 PUSH1 0x40 DUP4 DUP6 SUB SLT ISZERO PUSH2 0x12CD JUMPI PUSH0 DUP1 REVERT JUMPDEST DUP3 CALLDATALOAD PUSH2 0x12D8 DUP2 PUSH2 0x11AB JUMP JUMPDEST SWAP2 POP PUSH1 0x20 DUP4 ADD CALLDATALOAD PUSH8 0xFFFFFFFFFFFFFFFF DUP1 DUP3 GT ISZERO PUSH2 0x12F4 JUMPI PUSH0 DUP1 REVERT JUMPDEST DUP2 DUP6 ADD SWAP2 POP DUP6 PUSH1 0x1F DUP4 ADD SLT PUSH2 0x1307 JUMPI PUSH0 DUP1 REVERT JUMPDEST DUP2 CALLDATALOAD DUP2 DUP2 GT ISZERO PUSH2 0x1319 JUMPI PUSH2 0x1319 PUSH2 0x12A8 JUMP JUMPDEST PUSH1 0x40 MLOAD PUSH1 0x1F DUP3 ADD PUSH1 0x1F NOT SWAP1 DUP2 AND PUSH1 0x3F ADD AND DUP2 ADD SWAP1 DUP4 DUP3 GT DUP2 DUP4 LT OR ISZERO PUSH2 0x1341 JUMPI PUSH2 0x1341 PUSH2 0x12A8 JUMP JUMPDEST DUP2 PUSH1 0x40 MSTORE DUP3 DUP2 MSTORE DUP9 PUSH1 0x20 DUP5 DUP8 ADD ADD GT ISZERO PUSH2 0x1359 JUMPI PUSH0 DUP1 REVERT JUMPDEST DUP3 PUSH1 0x20 DUP7 ADD PUSH1 0x20 DUP4 ADD CALLDATACOPY PUSH0 PUSH1 0x20 DUP5 DUP4 ADD ADD MSTORE DUP1 SWAP6 POP POP POP POP POP POP SWAP3 POP SWAP3 SWAP1 POP JUMP JUMPDEST PUSH0 PUSH1 0x20 DUP3 DUP5 SUB SLT ISZERO PUSH2 0x138A JUMPI PUSH0 DUP1 REVERT JUMPDEST POP CALLDATALOAD SWAP2 SWAP1 POP JUMP JUMPDEST PUSH0 DUP1 PUSH1 0x20 DUP4 DUP6 SUB SLT ISZERO PUSH2 0x13A2 JUMPI PUSH0 DUP1 REVERT JUMPDEST DUP3 CALLDATALOAD PUSH8 0xFFFFFFFFFFFFFFFF DUP1 DUP3 GT ISZERO PUSH2 0x13B9 JUMPI PUSH0 DUP1 REVERT JUMPDEST DUP2 DUP6 ADD SWAP2 POP DUP6 PUSH1 0x1F DUP4 ADD SLT PUSH2 0x13CC JUMPI PUSH0 DUP1 REVERT JUMPDEST DUP2 CALLDATALOAD DUP2 DUP2 GT ISZERO PUSH2 0x13DA JUMPI PUSH0 DUP1 REVERT JUMPDEST DUP7 PUSH1 0x20 DUP3 PUSH1 0x5 SHL DUP6 ADD ADD GT ISZERO PUSH2 0x13EE JUMPI PUSH0 DUP1 REVERT JUMPDEST PUSH1 0x20 SWAP3 SWAP1 SWAP3 ADD SWAP7 SWAP2 SWAP6 POP SWAP1 SWAP4 POP POP POP POP JUMP JUMPDEST PUSH0 JUMPDEST DUP4 DUP2 LT ISZERO PUSH2 0x141A JUMPI DUP2 DUP2 ADD MLOAD DUP4 DUP3 ADD MSTORE PUSH1 0x20 ADD PUSH2 0x1402 JUMP JUMPDEST POP POP PUSH0 SWAP2 ADD MSTORE JUMP JUMPDEST PUSH0 DUP2 MLOAD DUP1 DUP5 MSTORE PUSH2 0x1439 DUP2 PUSH1 0x20 DUP7 ADD PUSH1 0x20 DUP7 ADD PUSH2 0x1400 JUMP JUMPDEST PUSH1 0x1F ADD PUSH1 0x1F NOT AND SWAP3 SWAP1 SWAP3 ADD PUSH1 0x20 ADD SWAP3 SWAP2 POP POP JUMP JUMPDEST PUSH0 PUSH1 0x20 DUP1 DUP4 ADD PUSH1 0x20 DUP5 MSTORE DUP1 DUP6 MLOAD DUP1 DUP4 MSTORE PUSH1 0x40 DUP7 ADD SWAP2 POP PUSH1 0x40 DUP2 PUSH1 0x5 SHL DUP8 ADD ADD SWAP3 POP PUSH1 0x20 DUP8 ADD PUSH0 JUMPDEST DUP3 DUP2 LT ISZERO PUSH2 0x14A2 JUMPI PUSH1 0x3F NOT DUP9 DUP7 SUB ADD DUP5 MSTORE PUSH2 0x1490 DUP6 DUP4 MLOAD PUSH2 0x1422 JUMP JUMPDEST SWAP5 POP SWAP3 DUP6 ADD SWAP3 SWAP1 DUP6 ADD SWAP1 PUSH1 0x1 ADD PUSH2 0x1474 JUMP JUMPDEST POP SWAP3 SWAP8 SWAP7 POP POP POP POP POP POP POP JUMP JUMPDEST PUSH1 0x20 DUP1 DUP3 MSTORE PUSH1 0x2C SWAP1 DUP3 ADD MSTORE PUSH32 0x46756E6374696F6E206D7573742062652063616C6C6564207468726F75676820 PUSH1 0x40 DUP3 ADD MSTORE PUSH12 0x19195B1959D85D1958D85B1B PUSH1 0xA2 SHL PUSH1 0x60 DUP3 ADD MSTORE PUSH1 0x80 ADD SWAP1 JUMP JUMPDEST PUSH1 0x20 DUP1 DUP3 MSTORE PUSH1 0x2C SWAP1 DUP3 ADD MSTORE PUSH32 0x46756E6374696F6E206D7573742062652063616C6C6564207468726F75676820 PUSH1 0x40 DUP3 ADD MSTORE PUSH12 0x6163746976652070726F7879 PUSH1 0xA0 SHL PUSH1 0x60 DUP3 ADD MSTORE PUSH1 0x80 ADD SWAP1 JUMP JUMPDEST PUSH4 0x4E487B71 PUSH1 0xE0 SHL PUSH0 MSTORE PUSH1 0x11 PUSH1 0x4 MSTORE PUSH1 0x24 PUSH0 REVERT JUMPDEST DUP2 DUP2 SUB DUP2 DUP2 GT ISZERO PUSH2 0xC19 JUMPI PUSH2 0xC19 PUSH2 0x1547 JUMP JUMPDEST DUP1 DUP3 ADD DUP1 DUP3 GT ISZERO PUSH2 0xC19 JUMPI PUSH2 0xC19 PUSH2 0x1547 JUMP JUMPDEST PUSH0 PUSH1 0x20 DUP3 DUP5 SUB SLT ISZERO PUSH2 0x1591 JUMPI PUSH0 DUP1 REVERT JUMPDEST DUP2 MLOAD PUSH2 0xF82 DUP2 PUSH2 0x11AB JUMP JUMPDEST PUSH4 0x4E487B71 PUSH1 0xE0 SHL PUSH0 MSTORE PUSH1 0x32 PUSH1 0x4 MSTORE PUSH1 0x24 PUSH0 REVERT JUMPDEST PUSH0 DUP1 DUP4 CALLDATALOAD PUSH1 0x1E NOT DUP5 CALLDATASIZE SUB ADD DUP2 SLT PUSH2 0x15C5 JUMPI PUSH0 DUP1 REVERT JUMPDEST DUP4 ADD DUP1 CALLDATALOAD SWAP2 POP PUSH8 0xFFFFFFFFFFFFFFFF DUP3 GT ISZERO PUSH2 0x15DF JUMPI PUSH0 DUP1 REVERT JUMPDEST PUSH1 0x20 ADD SWAP2 POP CALLDATASIZE DUP2 SWAP1 SUB DUP3 SGT ISZERO PUSH2 0x15F3 JUMPI PUSH0 DUP1 REVERT JUMPDEST SWAP3 POP SWAP3 SWAP1 POP JUMP JUMPDEST PUSH0 PUSH1 0x20 DUP3 DUP5 SUB SLT ISZERO PUSH2 0x160A JUMPI PUSH0 DUP1 REVERT JUMPDEST POP MLOAD SWAP2 SWAP1 POP JUMP JUMPDEST PUSH0 DUP3 MLOAD PUSH2 0x1622 DUP2 DUP5 PUSH1 0x20 DUP8 ADD PUSH2 0x1400 JUMP JUMPDEST SWAP2 SWAP1 SWAP2 ADD SWAP3 SWAP2 POP POP JUMP JUMPDEST PUSH1 0x20 DUP2 MSTORE PUSH0 PUSH2 0xF82 PUSH1 0x20 DUP4 ADD DUP5 PUSH2 0x1422 JUMP INVALID CALLDATASIZE ADDMOD SWAP5 LOG1 EXTCODESIZE LOG1 LOG3 0x21 MOD PUSH8 0xC828492DB98DCA3E KECCAK256 PUSH23 0xCC3735A920A3CA505D382BBC416464726573733A206C6F PUSH24 0x2D6C6576656C2064656C65676174652063616C6C20666169 PUSH13 0x6564A264697066735822122036 0xE9 0xE9 0x2F 0xDF ADDRESS 0x27 0xBB POP 0xED MSTORE 0xAE PREVRANDAO CALLDATALOAD 0x2E 0xC MSIZE CODECOPY SWAP16 0xED 0xDA 0xB4 0xB5 0xE0 0xE0 0xE1 BYTE SWAP10 TSTORE 0xB9 0xB8 0xCC PUSH5 0x736F6C6343 STOP ADDMOD XOR STOP CALLER "
		},
		"gasEstimates": {
			"creation": {
				"codeDepositCost": "1163800",
				"executionCost": "infinite",
				"totalCost": "infinite"
			},
			"external": {
				"collateralPrice()": "infinite",
				"depositNFTCollateral(uint256)": "infinite",
				"getLoan(uint256)": "infinite",
				"idsCollateral(uint256)": "2518",
				"initialize(address,address)": "infinite",
				"multicall(bytes[])": "infinite",
				"nft()": "2404",
				"onERC721Received(address,address,uint256,bytes)": "infinite",
				"proxiableUUID()": "infinite",
				"returnLoan(uint256)": "infinite",
				"token()": "2424",
				"totalCollateral(address)": "2577",
				"upgradeTo(address)": "infinite",
				"upgradeToAndCall(address,bytes)": "infinite",
				"usedCollateral(address)": "2599",
				"withdrawCollateral(uint256)": "infinite"
			},
			"internal": {
				"_authorizeUpgrade(address)": "infinite"
			}
		},
		"methodIdentifiers": {
			"collateralPrice()": "5891de72",
			"depositNFTCollateral(uint256)": "647fd8ef",
			"getLoan(uint256)": "504006ca",
			"idsCollateral(uint256)": "d52c1db2",
			"initialize(address,address)": "485cc955",
			"multicall(bytes[])": "ac9650d8",
			"nft()": "47ccca02",
			"onERC721Received(address,address,uint256,bytes)": "150b7a02",
			"proxiableUUID()": "52d1902d",
			"returnLoan(uint256)": "e9126154",
			"token()": "fc0c546a",
			"totalCollateral(address)": "7e059b22",
			"upgradeTo(address)": "3659cfe6",
			"upgradeToAndCall(address,bytes)": "4f1ef286",
			"usedCollateral(address)": "90f20d15",
			"withdrawCollateral(uint256)": "6112fe2e"
		}
	},
	"abi": [
		{
			"inputs": [
				{
					"internalType": "uint256",
					"name": "collateralPrice_",
					"type": "uint256"
				}
			],
			"stateMutability": "nonpayable",
			"type": "constructor"
		},
		{
			"anonymous": false,
			"inputs": [
				{
					"indexed": false,
					"internalType": "address",
					"name": "previousAdmin",
					"type": "address"
				},
				{
					"indexed": false,
					"internalType": "address",
					"name": "newAdmin",
					"type": "address"
				}
			],
			"name": "AdminChanged",
			"type": "event"
		},
		{
			"anonymous": false,
			"inputs": [
				{
					"indexed": true,
					"internalType": "address",
					"name": "beacon",
					"type": "address"
				}
			],
			"name": "BeaconUpgraded",
			"type": "event"
		},
		{
			"anonymous": false,
			"inputs": [
				{
					"indexed": false,
					"internalType": "uint8",
					"name": "version",
					"type": "uint8"
				}
			],
			"name": "Initialized",
			"type": "event"
		},
		{
			"anonymous": false,
			"inputs": [
				{
					"indexed": true,
					"internalType": "address",
					"name": "implementation",
					"type": "address"
				}
			],
			"name": "Upgraded",
			"type": "event"
		},
		{
			"inputs": [],
			"name": "collateralPrice",
			"outputs": [
				{
					"internalType": "uint256",
					"name": "",
					"type": "uint256"
				}
			],
			"stateMutability": "view",
			"type": "function"
		},
		{
			"inputs": [
				{
					"internalType": "uint256",
					"name": "id",
					"type": "uint256"
				}
			],
			"name": "depositNFTCollateral",
			"outputs": [],
			"stateMutability": "nonpayable",
			"type": "function"
		},
		{
			"inputs": [
				{
					"internalType": "uint256",
					"name": "amount",
					"type": "uint256"
				}
			],
			"name": "getLoan",
			"outputs": [],
			"stateMutability": "nonpayable",
			"type": "function"
		},
		{
			"inputs": [
				{
					"internalType": "uint256",
					"name": "",
					"type": "uint256"
				}
			],
			"name": "idsCollateral",
			"outputs": [
				{
					"internalType": "address",
					"name": "",
					"type": "address"
				}
			],
			"stateMutability": "view",
			"type": "function"
		},
		{
			"inputs": [
				{
					"internalType": "address",
					"name": "token_",
					"type": "address"
				},
				{
					"internalType": "address",
					"name": "nft_",
					"type": "address"
				}
			],
			"name": "initialize",
			"outputs": [],
			"stateMutability": "nonpayable",
			"type": "function"
		},
		{
			"inputs": [
				{
					"internalType": "bytes[]",
					"name": "data",
					"type": "bytes[]"
				}
			],
			"name": "multicall",
			"outputs": [
				{
					"internalType": "bytes[]",
					"name": "results",
					"type": "bytes[]"
				}
			],
			"stateMutability": "payable",
			"type": "function"
		},
		{
			"inputs": [],
			"name": "nft",
			"outputs": [
				{
					"internalType": "contract HalbornNFT",
					"name": "",
					"type": "address"
				}
			],
			"stateMutability": "view",
			"type": "function"
		},
		{
			"inputs": [
				{
					"internalType": "address",
					"name": "",
					"type": "address"
				},
				{
					"internalType": "address",
					"name": "",
					"type": "address"
				},
				{
					"internalType": "uint256",
					"name": "",
					"type": "uint256"
				},
				{
					"internalType": "bytes",
					"name": "",
					"type": "bytes"
				}
			],
			"name": "onERC721Received",
			"outputs": [
				{
					"internalType": "bytes4",
					"name": "",
					"type": "bytes4"
				}
			],
			"stateMutability": "pure",
			"type": "function"
		},
		{
			"inputs": [],
			"name": "proxiableUUID",
			"outputs": [
				{
					"internalType": "bytes32",
					"name": "",
					"type": "bytes32"
				}
			],
			"stateMutability": "view",
			"type": "function"
		},
		{
			"inputs": [
				{
					"internalType": "uint256",
					"name": "amount",
					"type": "uint256"
				}
			],
			"name": "returnLoan",
			"outputs": [],
			"stateMutability": "nonpayable",
			"type": "function"
		},
		{
			"inputs": [],
			"name": "token",
			"outputs": [
				{
					"internalType": "contract HalbornToken",
					"name": "",
					"type": "address"
				}
			],
			"stateMutability": "view",
			"type": "function"
		},
		{
			"inputs": [
				{
					"internalType": "address",
					"name": "",
					"type": "address"
				}
			],
			"name": "totalCollateral",
			"outputs": [
				{
					"internalType": "uint256",
					"name": "",
					"type": "uint256"
				}
			],
			"stateMutability": "view",
			"type": "function"
		},
		{
			"inputs": [
				{
					"internalType": "address",
					"name": "newImplementation",
					"type": "address"
				}
			],
			"name": "upgradeTo",
			"outputs": [],
			"stateMutability": "nonpayable",
			"type": "function"
		},
		{
			"inputs": [
				{
					"internalType": "address",
					"name": "newImplementation",
					"type": "address"
				},
				{
					"internalType": "bytes",
					"name": "data",
					"type": "bytes"
				}
			],
			"name": "upgradeToAndCall",
			"outputs": [],
			"stateMutability": "payable",
			"type": "function"
		},
		{
			"inputs": [
				{
					"internalType": "address",
					"name": "",
					"type": "address"
				}
			],
			"name": "usedCollateral",
			"outputs": [
				{
					"internalType": "uint256",
					"name": "",
					"type": "uint256"
				}
			],
			"stateMutability": "view",
			"type": "function"
		},
		{
			"inputs": [
				{
					"internalType": "uint256",
					"name": "id",
					"type": "uint256"
				}
			],
			"name": "withdrawCollateral",
			"outputs": [],
			"stateMutability": "nonpayable",
			"type": "function"
		}
	]
}